{"contracts/core/DEXPair.sol":{"DEXPair":{"abi":[{"inputs":[{"internalType":"address","name":"_token0","type":"address"},{"internalType":"address","name":"_token1","type":"address"},{"internalType":"address","name":"_factory","type":"address"}],"stateMutability":"nonpayable","type":"constructor"},{"inputs":[{"internalType":"address","name":"spender","type":"address"},{"internalType":"uint256","name":"allowance","type":"uint256"},{"internalType":"uint256","name":"needed","type":"uint256"}],"name":"ERC20InsufficientAllowance","type":"error"},{"inputs":[{"internalType":"address","name":"sender","type":"address"},{"internalType":"uint256","name":"balance","type":"uint256"},{"internalType":"uint256","name":"needed","type":"uint256"}],"name":"ERC20InsufficientBalance","type":"error"},{"inputs":[{"internalType":"address","name":"approver","type":"address"}],"name":"ERC20InvalidApprover","type":"error"},{"inputs":[{"internalType":"address","name":"receiver","type":"address"}],"name":"ERC20InvalidReceiver","type":"error"},{"inputs":[{"internalType":"address","name":"sender","type":"address"}],"name":"ERC20InvalidSender","type":"error"},{"inputs":[{"internalType":"address","name":"spender","type":"address"}],"name":"ERC20InvalidSpender","type":"error"},{"inputs":[],"name":"ReentrancyGuardReentrantCall","type":"error"},{"inputs":[{"internalType":"address","name":"token","type":"address"}],"name":"SafeERC20FailedOperation","type":"error"},{"anonymous":false,"inputs":[{"indexed":true,"internalType":"address","name":"owner","type":"address"},{"indexed":true,"internalType":"address","name":"spender","type":"address"},{"indexed":false,"internalType":"uint256","name":"value","type":"uint256"}],"name":"Approval","type":"event"},{"anonymous":false,"inputs":[{"indexed":true,"internalType":"address","name":"sender","type":"address"},{"indexed":false,"internalType":"uint256","name":"amount0","type":"uint256"},{"indexed":false,"internalType":"uint256","name":"amount1","type":"uint256"},{"indexed":true,"internalType":"address","name":"to","type":"address"}],"name":"Burn","type":"event"},{"anonymous":false,"inputs":[{"indexed":true,"internalType":"address","name":"sender","type":"address"},{"indexed":false,"internalType":"uint256","name":"amount0","type":"uint256"},{"indexed":false,"internalType":"uint256","name":"amount1","type":"uint256"}],"name":"Mint","type":"event"},{"anonymous":false,"inputs":[{"indexed":true,"internalType":"address","name":"sender","type":"address"},{"indexed":false,"internalType":"uint256","name":"amount0In","type":"uint256"},{"indexed":false,"internalType":"uint256","name":"amount1In","type":"uint256"},{"indexed":false,"internalType":"uint256","name":"amount0Out","type":"uint256"},{"indexed":false,"internalType":"uint256","name":"amount1Out","type":"uint256"},{"indexed":true,"internalType":"address","name":"to","type":"address"}],"name":"Swap","type":"event"},{"anonymous":false,"inputs":[{"indexed":false,"internalType":"uint112","name":"reserve0","type":"uint112"},{"indexed":false,"internalType":"uint112","name":"reserve1","type":"uint112"}],"name":"Sync","type":"event"},{"anonymous":false,"inputs":[{"indexed":true,"internalType":"address","name":"from","type":"address"},{"indexed":true,"internalType":"address","name":"to","type":"address"},{"indexed":false,"internalType":"uint256","name":"value","type":"uint256"}],"name":"Transfer","type":"event"},{"inputs":[],"name":"MINIMUM_LIQUIDITY","outputs":[{"internalType":"uint256","name":"","type":"uint256"}],"stateMutability":"view","type":"function"},{"inputs":[{"internalType":"address","name":"owner","type":"address"},{"internalType":"address","name":"spender","type":"address"}],"name":"allowance","outputs":[{"internalType":"uint256","name":"","type":"uint256"}],"stateMutability":"view","type":"function"},{"inputs":[{"internalType":"address","name":"spender","type":"address"},{"internalType":"uint256","name":"value","type":"uint256"}],"name":"approve","outputs":[{"internalType":"bool","name":"","type":"bool"}],"stateMutability":"nonpayable","type":"function"},{"inputs":[{"internalType":"address","name":"account","type":"address"}],"name":"balanceOf","outputs":[{"internalType":"uint256","name":"","type":"uint256"}],"stateMutability":"view","type":"function"},{"inputs":[{"internalType":"address","name":"to","type":"address"}],"name":"burn","outputs":[{"internalType":"uint256","name":"amount0","type":"uint256"},{"internalType":"uint256","name":"amount1","type":"uint256"}],"stateMutability":"nonpayable","type":"function"},{"inputs":[],"name":"decimals","outputs":[{"internalType":"uint8","name":"","type":"uint8"}],"stateMutability":"view","type":"function"},{"inputs":[],"name":"factory","outputs":[{"internalType":"address","name":"","type":"address"}],"stateMutability":"view","type":"function"},{"inputs":[],"name":"getReserves","outputs":[{"internalType":"uint112","name":"_reserve0","type":"uint112"},{"internalType":"uint112","name":"_reserve1","type":"uint112"},{"internalType":"uint32","name":"_blockTimestampLast","type":"uint32"}],"stateMutability":"view","type":"function"},{"inputs":[],"name":"kLast","outputs":[{"internalType":"uint256","name":"","type":"uint256"}],"stateMutability":"view","type":"function"},{"inputs":[{"internalType":"address","name":"to","type":"address"}],"name":"mint","outputs":[{"internalType":"uint256","name":"liquidity","type":"uint256"}],"stateMutability":"nonpayable","type":"function"},{"inputs":[],"name":"name","outputs":[{"internalType":"string","name":"","type":"string"}],"stateMutability":"view","type":"function"},{"inputs":[],"name":"price0CumulativeLast","outputs":[{"internalType":"uint256","name":"","type":"uint256"}],"stateMutability":"view","type":"function"},{"inputs":[],"name":"price1CumulativeLast","outputs":[{"internalType":"uint256","name":"","type":"uint256"}],"stateMutability":"view","type":"function"},{"inputs":[{"internalType":"uint256","name":"amount0Out","type":"uint256"},{"internalType":"uint256","name":"amount1Out","type":"uint256"},{"internalType":"address","name":"to","type":"address"}],"name":"swap","outputs":[],"stateMutability":"nonpayable","type":"function"},{"inputs":[],"name":"symbol","outputs":[{"internalType":"string","name":"","type":"string"}],"stateMutability":"view","type":"function"},{"inputs":[],"name":"sync","outputs":[],"stateMutability":"nonpayable","type":"function"},{"inputs":[],"name":"token0","outputs":[{"internalType":"address","name":"","type":"address"}],"stateMutability":"view","type":"function"},{"inputs":[],"name":"token1","outputs":[{"internalType":"address","name":"","type":"address"}],"stateMutability":"view","type":"function"},{"inputs":[],"name":"totalSupply","outputs":[{"internalType":"uint256","name":"","type":"uint256"}],"stateMutability":"view","type":"function"},{"inputs":[{"internalType":"address","name":"to","type":"address"},{"internalType":"uint256","name":"value","type":"uint256"}],"name":"transfer","outputs":[{"internalType":"bool","name":"","type":"bool"}],"stateMutability":"nonpayable","type":"function"},{"inputs":[{"internalType":"address","name":"from","type":"address"},{"internalType":"address","name":"to","type":"address"},{"internalType":"uint256","name":"value","type":"uint256"}],"name":"transferFrom","outputs":[{"internalType":"bool","name":"","type":"bool"}],"stateMutability":"nonpayable","type":"function"}],"evm":{"bytecode":{"linkReferences":{},"object":"60e0346200041e576001600160401b0390601f19601f6200215b388190038281018416850191908683118684101762000322578086926060946040528339810103126200041e57620000518362000443565b916020946200007060406200006888880162000443565b960162000443565b956200007b62000423565b93600c85526b2222ac102628102a37b5b2b760a11b828601526200009e62000423565b600681526504445582d4c560d41b83820152855192848411620003225760039384546001988982811c9216801562000413575b84831014620003fd578186849311620003a7575b508390868311600114620003445760009262000338575b505060001982871b1c191690881b1784555b8151948511620003225760049586548881811c9116801562000317575b83821014620003025790818588979695949311620002a4575b5081938611600114620002395750506000936200022d575b505082851b92600019911b1c19161790555b7f9b779b17422d0df92223018b32b4d1fa46e071723d6817e2486d003becc55f005560a05260c052608052604051611d0290816200045982396080518181816103130152611bfa015260a051818181610147015281816104f50152818161063c015281816106b801528181610a2501528181610f9b015261136f015260c05181818161018f015281816102ce0152818161054b015281816106700152818161070e01528181610ab001528181610dc501528181610e520152610fe30152f35b0151915038806200015c565b88969493929194168760005284600020946000905b8282106200028a57505085116200026f575b50505050811b0190556200016e565b01519060f884600019921b161c191690553880808062000260565b8484015187558a989096019593840193908101906200024e565b9091929394955087600052826000208580890160051c820192858a10620002f8575b918b918a999897969594930160051c01915b828110620002e857505062000144565b600081558998508b9101620002d8565b92508192620002c6565b602288634e487b7160e01b6000525260246000fd5b90607f16906200012b565b634e487b7160e01b600052604160045260246000fd5b015190503880620000fc565b90898b94169188600052856000209260005b8782821062000390575050841162000377575b505050811b0184556200010e565b015160001983891b60f8161c1916905538808062000369565b8385015186558e9790950194938401930162000356565b90915086600052836000208680850160051c820192868610620003f3575b918c91869594930160051c01915b828110620003e3575050620000e5565b600081558594508c9101620003d3565b92508192620003c5565b634e487b7160e01b600052602260045260246000fd5b91607f1691620000d1565b600080fd5b60408051919082016001600160401b038111838210176200032257604052565b51906001600160a01b03821682036200041e5756fe608080604052600436101561001357600080fd5b60003560e01c90816306fdde031461147d575080630902f1ac14611424578063095ea7b31461139e5780630dfe16811461135957806318160ddd1461133b57806323b872dd14611249578063313ce5671461122d5780635909c0d51461120f5780635a3d5493146111f15780636a62784214610f305780636d9a640a146109a157806370a08231146109675780637464fc3d1461094957806389afcb441461049757806395d89b4114610390578063a9059cbb1461035f578063ba9a7a5614610342578063c45a0155146102fd578063d21220a7146102b8578063dd62ed3e146102675763fff6cae91461010657600080fd5b3461021e57600036600319011261021e5761011f611702565b6040516370a0823160e01b8082523060048301526001600160a01b03916020919082816024817f000000000000000000000000000000000000000000000000000000000000000088165afa91821561022a578391600093610236575b5060246040518096819382523060048301527f0000000000000000000000000000000000000000000000000000000000000000165afa91821561022a576000926101f3575b6101df8383600554916001600160701b03808460701c16931691611985565b6001600080516020611cad83398151915255005b90915082813d8311610223575b61020a81836115af565b8101031261021e576101df915190386101c0565b600080fd5b503d610200565b6040513d6000823e3d90fd5b8281939294503d8311610260575b61024e81836115af565b8101031261021e57829051913861017b565b503d610244565b3461021e57604036600319011261021e57610280611583565b610288611599565b9060018060a01b038091166000526001602052604060002091166000526020526020604060002054604051908152f35b3461021e57600036600319011261021e576040517f00000000000000000000000000000000000000000000000000000000000000006001600160a01b03168152602090f35b3461021e57600036600319011261021e576040517f00000000000000000000000000000000000000000000000000000000000000006001600160a01b03168152602090f35b3461021e57600036600319011261021e5760206040516103e88152f35b3461021e57604036600319011261021e5761038561037b611583565b602435903361163d565b602060405160018152f35b3461021e57600036600319011261021e5760405160009060045460018160011c906001831692831561048d575b60209384841081146104775783865290811561045757506001146103fc575b6103f8846103ec818803826115af565b6040519182918261153a565b0390f35b600460009081529294507f8a35acfbc15ff81a39ae7d344fd709f28e8600b4aa8c65c6b64bfe7fe36bd19b5b82841061044457505050816103f8936103ec92820101936103dc565b8054858501870152928501928101610428565b60ff1916858501525050151560051b82010191506103ec816103f86103dc565b634e487b7160e01b600052602260045260246000fd5b91607f16916103bd565b3461021e57602036600319011261021e576104b0611583565b6104b8611702565b6104d76005546001600160701b0391828216928260701c169160e01c90565b506040516370a0823160e01b815230600482015291926020836024817f00000000000000000000000000000000000000000000000000000000000000006001600160a01b03165afa92831561022a57600093610915575b506040516370a0823160e01b8152306004820152926020846024817f00000000000000000000000000000000000000000000000000000000000000006001600160a01b03165afa93841561022a576000946108e1575b50306000526000602052604060002054926105c46105b86105b86105bd6105ab858b61173f565b956002549384918a61160a565b61161d565b978761160a565b93851515806108d8575b1561088457301561086b573060005260006020526040600020548181106108435790806000923084528360205203604083205580600254036002556040519081527fddf252ad1be2c89b69c2b068fc378daa952ba7f163c4a11628f55a4df523b3ef60203092a361066985847f00000000000000000000000000000000000000000000000000000000000000006001600160a01b0316611b3d565b61069d84847f00000000000000000000000000000000000000000000000000000000000000006001600160a01b0316611b3d565b6040516370a0823160e01b81523060048201526020816024817f00000000000000000000000000000000000000000000000000000000000000006001600160a01b03165afa90811561022a57600091610811575b506040516370a0823160e01b8152306004820152906020826024817f00000000000000000000000000000000000000000000000000000000000000006001600160a01b03165afa91821561022a576000926107d6575b50966107569291604098611985565b6107b3575b83519083825282602083015260018060a01b0316907fdccd412f0b1252819cb1fd330b93224ca42612892bb3f4f789976e6d81936496853392a36001600080516020611cad8339815191525582519182526020820152f35b6107ce6005546001600160701b03808260701c16911661160a565b60085561075b565b929150966020833d602011610809575b816107f3602093836115af565b8101031261021e57915191969091906040610747565b3d91506107e6565b90506020813d60201161083b575b8161082c602093836115af565b8101031261021e5751876106f1565b3d915061081f565b60405163391434e360e21b815230600482015260248101919091526044810191909152606490fd5b604051634b637e8f60e11b815260006004820152602490fd5b60405162461bcd60e51b815260206004820152602660248201527f444558506169723a20494e53554646494349454e545f4c49515549444954595f60448201526510955493915160d21b6064820152608490fd5b508415156105ce565b9093506020813d60201161090d575b816108fd602093836115af565b8101031261021e57519285610584565b3d91506108f0565b9092506020813d602011610941575b81610931602093836115af565b8101031261021e5751918461052e565b3d9150610924565b3461021e57600036600319011261021e576020600854604051908152f35b3461021e57602036600319011261021e576001600160a01b03610988611583565b1660005260006020526020604060002054604051908152f35b3461021e57606036600319011261021e576044356001600160a01b038116810361021e576109cd611702565b600435159081158092610f25575b15610ed4576109ff6005546001600160701b0391828216928260701c169160e01c90565b5090926001600160701b0384166004351080610ec0575b15610e7b576001600160a01b037f000000000000000000000000000000000000000000000000000000000000000081169190841682141580610e44575b15610e0957602491602091610df7575b8235610dbd575b6040516370a0823160e01b815230600482015292839182905afa90811561022a57600091610d8b575b506040516370a0823160e01b8152306004820152916020836024817f00000000000000000000000000000000000000000000000000000000000000006001600160a01b03165afa92831561022a57600093610d57575b50610aff6004356001600160701b0387166115e7565b821115610d4f57610b24610b1e6004356001600160701b0388166115e7565b836115e7565b945b610b3b6024356001600160701b0384166115e7565b841115610d4757610b60610b5a6024356001600160701b0385166115e7565b856115e7565b935b8615801590610d3e575b15610cee57836103e88102046103e81484151715610caf57610b9a610b90886115f4565b6103e886026115e7565b816103e88102046103e81482151715610caf57610bcd90610bc7610bbd886115f4565b6103e885026115e7565b9061160a565b610be96001600160701b0385166001600160701b03851661160a565b6001906103e860025b60018111610cc5575080600019048311610caf57610c1192029061160a565b11610c7d57610c1f93611985565b60405192835260208301526004356040830152602435606083015260018060a01b0316907fd78ad95fa46c994b6551d0da85fc275fe613ce37657fb8d5e3d130840159d82260803392a36001600080516020611cad83398151915255005b60405162461bcd60e51b815260206004820152600a602482015269444558506169723a204b60b01b6044820152606490fd5b634e487b7160e01b600052601160045260246000fd5b9080600019048111610caf5760018216610ce5575b80029060011c610bf2565b80930292610cda565b60405162461bcd60e51b815260206004820152602260248201527f444558506169723a20494e53554646494349454e545f494e5055545f414d4f55604482015261139560f21b6064820152608490fd5b50841515610b6c565b600093610b62565b600094610b26565b9092506020813d602011610d83575b81610d73602093836115af565b8101031261021e57519185610ae9565b3d9150610d66565b90506020813d602011610db5575b81610da6602093836115af565b8101031261021e575184610a93565b3d9150610d99565b610df28335867f00000000000000000000000000000000000000000000000000000000000000006001600160a01b0316611b3d565b610a6a565b610e046004358683611b3d565b610a63565b60405162461bcd60e51b8152602060048201526013602482015272444558506169723a20494e56414c49445f544f60681b6044820152606490fd5b506001600160a01b038481167f00000000000000000000000000000000000000000000000000000000000000009091161415610a53565b60405162461bcd60e51b815260206004820152601f60248201527f444558506169723a20494e53554646494349454e545f4c4951554944495459006044820152606490fd5b506001600160701b03821660243510610a16565b60405162461bcd60e51b815260206004820152602360248201527f444558506169723a20494e53554646494349454e545f4f55545055545f414d4f60448201526215539560ea1b6064820152608490fd5b5060243515156109db565b3461021e5760208060031936011261021e57610f4a611583565b610f52611702565b610f716005546001600160701b0391828216928260701c169160e01c90565b506040516370a0823160e01b80825230600483015292936001600160a01b039390929186816024817f000000000000000000000000000000000000000000000000000000000000000089165afa91821561022a5787916000936111c0575b5060246040518097819382523060048301527f0000000000000000000000000000000000000000000000000000000000000000165afa93841561022a57600094611191575b506001600160701b03918286169561102c87846115e7565b958483169361103b85836115e7565b98611046858561173f565b9560025491821560001461108a576110666110618d8d61160a565b611807565b6103e719810111610caf5760405163ec442f0560e01b815260006004820152602490fd5b906105b86110a26110a9936105b89c9e9c868f61160a565b938b61160a565b90818082109118021898891561113d57906110ca8a6110cf96959493611927565b611985565b61111f575b50604051918252838201527f4c209b5fc8ad50758f13e2e1088ba56a560dff690a1c6fef26394f4c03821c4f60403392a26001600080516020611cad83398151915255604051908152f35b6111349060055490808260701c16911661160a565b600855846110d4565b60405162461bcd60e51b8152600481018c9052602660248201527f444558506169723a20494e53554646494349454e545f4c49515549444954595f60448201526513525395115160d21b6064820152608490fd5b9093508581813d83116111b9575b6111a981836115af565b8101031261021e57519286611014565b503d61119f565b8281939294503d83116111ea575b6111d881836115af565b8101031261021e578690519188610fcf565b503d6111ce565b3461021e57600036600319011261021e576020600754604051908152f35b3461021e57600036600319011261021e576020600654604051908152f35b3461021e57600036600319011261021e57602060405160128152f35b3461021e57606036600319011261021e57611262611583565b61126a611599565b6001600160a01b038216600081815260016020908152604080832033845290915290205492604435929160001985106112a9575b50610385935061163d565b8385106113155780156112fc5733156112e3576103859484916000526001602052604060002033600052602052036040600020558461129e565b604051634a1406b160e11b815260006004820152602490fd5b60405163e602df0560e01b815260006004820152602490fd5b604051637dc7a0d960e11b81523360048201526024810186905260448101859052606490fd5b3461021e57600036600319011261021e576020600254604051908152f35b3461021e57600036600319011261021e576040517f00000000000000000000000000000000000000000000000000000000000000006001600160a01b03168152602090f35b3461021e57604036600319011261021e576113b7611583565b6024359033156112fc576001600160a01b03169081156112e357336000526001602052604060002082600052602052806040600020556040519081527f8c5be1e5ebec7d5bd14f71427d1e84f3dd0314c0f7b2291e5b200ac8c7c3b92560203392a3602060405160018152f35b3461021e57600036600319011261021e57606063ffffffff61145b6005546001600160701b0391828216928260701c169160e01c90565b909291604051936001600160701b038092168552166020840152166040820152f35b3461021e57600036600319011261021e5760009060035460018160011c9060018316928315611530575b60209384841081146104775783865290811561045757506001146114d5576103f8846103ec818803826115af565b600360009081529294507fc2575a0e9e593c00f959f8c92f12db2869c3395a3b0502d05e2516446f71f85b5b82841061151d57505050816103f8936103ec92820101936103dc565b8054858501870152928501928101611501565b91607f16916114a7565b6020808252825181830181905290939260005b82811061156f57505060409293506000838284010152601f8019910116010190565b81810186015184820160400152850161154d565b600435906001600160a01b038216820361021e57565b602435906001600160a01b038216820361021e57565b90601f8019910116810190811067ffffffffffffffff8211176115d157604052565b634e487b7160e01b600052604160045260246000fd5b91908203918211610caf57565b90600382029180830460031490151715610caf57565b81810292918115918404141715610caf57565b8115611627570490565b634e487b7160e01b600052601260045260246000fd5b916001600160a01b0380841692831561086b57169283156116e957600090838252816020526040822054908382106116b7575091604082827fddf252ad1be2c89b69c2b068fc378daa952ba7f163c4a11628f55a4df523b3ef958760209652828652038282205586815220818154019055604051908152a3565b60405163391434e360e21b81526001600160a01b03919091166004820152602481019190915260448101839052606490fd5b60405163ec442f0560e01b815260006004820152602490fd5b600080516020611cad83398151915260028154146117205760029055565b604051633ee5aeb560e01b8152600490fd5b91908201809211610caf57565b91909161174a611bbe565b6008546001600160a01b038216158015959293919291906117f65782611771575b50505050565b61106161178e91611794936001600160701b03809116911661160a565b91611807565b908181116117a3575b8061176b565b6117b3600254610bc784846115e7565b90600581029080820460051490151715610caf576117da926117d491611732565b9061161d565b806117e6575b8061179d565b6117ef91611927565b38806117e0565b5050905061180057565b6000600855565b600180821115611923576118c4908083600160801b811015611911575b80600160401b6004921015611904575b6401000000008110156118f7575b620100008110156118ea575b6101008110156118de575b60108110156118d2575b10156118cb575b600302811c611879818561161d565b01811c611886818561161d565b01811c611893818561161d565b01811c6118a0818561161d565b01811c6118ad818561161d565b01811c6118ba818561161d565b01901c809261161d565b8111900390565b811b61186a565b811c9160021b91611863565b60081c91811b91611859565b60101c9160081b9161184e565b60201c9160101b91611842565b60401c9160201b91611834565b50600160401b9050608084901c611824565b5090565b6001600160a01b03169081156116e9577fddf252ad1be2c89b69c2b068fc378daa952ba7f163c4a11628f55a4df523b3ef602082611969600094600254611732565b60025584845283825260408420818154019055604051908152a3565b9092916001600160701b03928383111580611b33575b15611afa5763ffffffff60055460e01c81421603818111610caf571680151580611aef575b80611ae4575b611a37575b505050607092831b6dffffffffffffffffffffffffffff60701b169082169081174260e01b6001600160e01b03191617600581905560408051928352931c90911660208201527f1c411e9a96e071241c2f21f7726b17ae89e3cab4c78be50e062b03a9fffbbad19190a1565b9093919492828516946001600160701b0360701b809160701b1690600160701b97878304891488151715610caf57611a86611a7e86611a79898516809761161d565b61160a565b600654611732565b60065560701b16968188041490151715610caf57611ad7611acf8493611a796040987f1c411e9a96e071241c2f21f7726b17ae89e3cab4c78be50e062b03a9fffbbad19a61161d565b600754611732565b60075592948194506119cb565b5084821615156119c6565b5084831615156119c0565b60405162461bcd60e51b8152602060048201526011602482015270444558506169723a204f564552464c4f5760781b6044820152606490fd5b508385111561199b565b60405163a9059cbb60e01b60009081526001600160a01b039384166004526024949094529260209060448180855af1600160005114811615611b9e575b8360405215611b8857505050565b635274afe760e01b835216600482015260249150fd5b6001811516611bb457813b15153d151616611b7a565b833d6000823e3d90fd5b60408051622fcfcb60e31b60208201908152600482529167ffffffffffffffff91908101828111828210176115d15760405260008093819251907f00000000000000000000000000000000000000000000000000000000000000005afa3d15611ca3573d918211611c8f5760405191611c41601f8201601f1916602001846115af565b82523d83602084013e5b158015611c86575b61192357602081805181010312611c8257602001516001600160a01b0381169190829003611c7f575090565b80fd5b5080fd5b50805115611c53565b634e487b7160e01b83526041600452602483fd5b60609150611c4b56fe9b779b17422d0df92223018b32b4d1fa46e071723d6817e2486d003becc55f00a2646970667358221220c61972a38aaddbf246ed420a73eca1e448d53fbd6747bafae34846fac0ed2d2364736f6c63430008180033","opcodes":"PUSH1 0xE0 CALLVALUE PUSH3 0x41E JUMPI PUSH1 0x1 PUSH1 0x1 PUSH1 0x40 SHL SUB SWAP1 PUSH1 0x1F NOT PUSH1 0x1F PUSH3 0x215B CODESIZE DUP2 SWAP1 SUB DUP3 DUP2 ADD DUP5 AND DUP6 ADD SWAP2 SWAP1 DUP7 DUP4 GT DUP7 DUP5 LT OR PUSH3 0x322 JUMPI DUP1 DUP7 SWAP3 PUSH1 0x60 SWAP5 PUSH1 0x40 MSTORE DUP4 CODECOPY DUP2 ADD SUB SLT PUSH3 0x41E JUMPI PUSH3 0x51 DUP4 PUSH3 0x443 JUMP JUMPDEST SWAP2 PUSH1 0x20 SWAP5 PUSH3 0x70 PUSH1 0x40 PUSH3 0x68 DUP9 DUP9 ADD PUSH3 0x443 JUMP JUMPDEST SWAP7 ADD PUSH3 0x443 JUMP JUMPDEST SWAP6 PUSH3 0x7B PUSH3 0x423 JUMP JUMPDEST SWAP4 PUSH1 0xC DUP6 MSTORE PUSH12 0x2222AC102628102A37B5B2B7 PUSH1 0xA1 SHL DUP3 DUP7 ADD MSTORE PUSH3 0x9E PUSH3 0x423 JUMP JUMPDEST PUSH1 0x6 DUP2 MSTORE PUSH6 0x4445582D4C5 PUSH1 0xD4 SHL DUP4 DUP3 ADD MSTORE DUP6 MLOAD SWAP3 DUP5 DUP5 GT PUSH3 0x322 JUMPI PUSH1 0x3 SWAP4 DUP5 SLOAD PUSH1 0x1 SWAP9 DUP10 DUP3 DUP2 SHR SWAP3 AND DUP1 ISZERO PUSH3 0x413 JUMPI JUMPDEST DUP5 DUP4 LT EQ PUSH3 0x3FD JUMPI DUP2 DUP7 DUP5 SWAP4 GT PUSH3 0x3A7 JUMPI JUMPDEST POP DUP4 SWAP1 DUP7 DUP4 GT PUSH1 0x1 EQ PUSH3 0x344 JUMPI PUSH1 0x0 SWAP3 PUSH3 0x338 JUMPI JUMPDEST POP POP PUSH1 0x0 NOT DUP3 DUP8 SHL SHR NOT AND SWAP1 DUP9 SHL OR DUP5 SSTORE JUMPDEST DUP2 MLOAD SWAP5 DUP6 GT PUSH3 0x322 JUMPI PUSH1 0x4 SWAP6 DUP7 SLOAD DUP9 DUP2 DUP2 SHR SWAP2 AND DUP1 ISZERO PUSH3 0x317 JUMPI JUMPDEST DUP4 DUP3 LT EQ PUSH3 0x302 JUMPI SWAP1 DUP2 DUP6 DUP9 SWAP8 SWAP7 SWAP6 SWAP5 SWAP4 GT PUSH3 0x2A4 JUMPI JUMPDEST POP DUP2 SWAP4 DUP7 GT PUSH1 0x1 EQ PUSH3 0x239 JUMPI POP POP PUSH1 0x0 SWAP4 PUSH3 0x22D JUMPI JUMPDEST POP POP DUP3 DUP6 SHL SWAP3 PUSH1 0x0 NOT SWAP2 SHL SHR NOT AND OR SWAP1 SSTORE JUMPDEST PUSH32 0x9B779B17422D0DF92223018B32B4D1FA46E071723D6817E2486D003BECC55F00 SSTORE PUSH1 0xA0 MSTORE PUSH1 0xC0 MSTORE PUSH1 0x80 MSTORE PUSH1 0x40 MLOAD PUSH2 0x1D02 SWAP1 DUP2 PUSH3 0x459 DUP3 CODECOPY PUSH1 0x80 MLOAD DUP2 DUP2 DUP2 PUSH2 0x313 ADD MSTORE PUSH2 0x1BFA ADD MSTORE PUSH1 0xA0 MLOAD DUP2 DUP2 DUP2 PUSH2 0x147 ADD MSTORE DUP2 DUP2 PUSH2 0x4F5 ADD MSTORE DUP2 DUP2 PUSH2 0x63C ADD MSTORE DUP2 DUP2 PUSH2 0x6B8 ADD MSTORE DUP2 DUP2 PUSH2 0xA25 ADD MSTORE DUP2 DUP2 PUSH2 0xF9B ADD MSTORE PUSH2 0x136F ADD MSTORE PUSH1 0xC0 MLOAD DUP2 DUP2 DUP2 PUSH2 0x18F ADD MSTORE DUP2 DUP2 PUSH2 0x2CE ADD MSTORE DUP2 DUP2 PUSH2 0x54B ADD MSTORE DUP2 DUP2 PUSH2 0x670 ADD MSTORE DUP2 DUP2 PUSH2 0x70E ADD MSTORE DUP2 DUP2 PUSH2 0xAB0 ADD MSTORE DUP2 DUP2 PUSH2 0xDC5 ADD MSTORE DUP2 DUP2 PUSH2 0xE52 ADD MSTORE PUSH2 0xFE3 ADD MSTORE RETURN JUMPDEST ADD MLOAD SWAP2 POP CODESIZE DUP1 PUSH3 0x15C JUMP JUMPDEST DUP9 SWAP7 SWAP5 SWAP4 SWAP3 SWAP2 SWAP5 AND DUP8 PUSH1 0x0 MSTORE DUP5 PUSH1 0x0 KECCAK256 SWAP5 PUSH1 0x0 SWAP1 JUMPDEST DUP3 DUP3 LT PUSH3 0x28A JUMPI POP POP DUP6 GT PUSH3 0x26F JUMPI JUMPDEST POP POP POP POP DUP2 SHL ADD SWAP1 SSTORE PUSH3 0x16E JUMP JUMPDEST ADD MLOAD SWAP1 PUSH1 0xF8 DUP5 PUSH1 0x0 NOT SWAP3 SHL AND SHR NOT AND SWAP1 SSTORE CODESIZE DUP1 DUP1 DUP1 PUSH3 0x260 JUMP JUMPDEST DUP5 DUP5 ADD MLOAD DUP8 SSTORE DUP11 SWAP9 SWAP1 SWAP7 ADD SWAP6 SWAP4 DUP5 ADD SWAP4 SWAP1 DUP2 ADD SWAP1 PUSH3 0x24E JUMP JUMPDEST SWAP1 SWAP2 SWAP3 SWAP4 SWAP5 SWAP6 POP DUP8 PUSH1 0x0 MSTORE DUP3 PUSH1 0x0 KECCAK256 DUP6 DUP1 DUP10 ADD PUSH1 0x5 SHR DUP3 ADD SWAP3 DUP6 DUP11 LT PUSH3 0x2F8 JUMPI JUMPDEST SWAP2 DUP12 SWAP2 DUP11 SWAP10 SWAP9 SWAP8 SWAP7 SWAP6 SWAP5 SWAP4 ADD PUSH1 0x5 SHR ADD SWAP2 JUMPDEST DUP3 DUP2 LT PUSH3 0x2E8 JUMPI POP POP PUSH3 0x144 JUMP JUMPDEST PUSH1 0x0 DUP2 SSTORE DUP10 SWAP9 POP DUP12 SWAP2 ADD PUSH3 0x2D8 JUMP JUMPDEST SWAP3 POP DUP2 SWAP3 PUSH3 0x2C6 JUMP JUMPDEST PUSH1 0x22 DUP9 PUSH4 0x4E487B71 PUSH1 0xE0 SHL PUSH1 0x0 MSTORE MSTORE PUSH1 0x24 PUSH1 0x0 REVERT JUMPDEST SWAP1 PUSH1 0x7F AND SWAP1 PUSH3 0x12B JUMP JUMPDEST PUSH4 0x4E487B71 PUSH1 0xE0 SHL PUSH1 0x0 MSTORE PUSH1 0x41 PUSH1 0x4 MSTORE PUSH1 0x24 PUSH1 0x0 REVERT JUMPDEST ADD MLOAD SWAP1 POP CODESIZE DUP1 PUSH3 0xFC JUMP JUMPDEST SWAP1 DUP10 DUP12 SWAP5 AND SWAP2 DUP9 PUSH1 0x0 MSTORE DUP6 PUSH1 0x0 KECCAK256 SWAP3 PUSH1 0x0 JUMPDEST DUP8 DUP3 DUP3 LT PUSH3 0x390 JUMPI POP POP DUP5 GT PUSH3 0x377 JUMPI JUMPDEST POP POP POP DUP2 SHL ADD DUP5 SSTORE PUSH3 0x10E JUMP JUMPDEST ADD MLOAD PUSH1 0x0 NOT DUP4 DUP10 SHL PUSH1 0xF8 AND SHR NOT AND SWAP1 SSTORE CODESIZE DUP1 DUP1 PUSH3 0x369 JUMP JUMPDEST DUP4 DUP6 ADD MLOAD DUP7 SSTORE DUP15 SWAP8 SWAP1 SWAP6 ADD SWAP5 SWAP4 DUP5 ADD SWAP4 ADD PUSH3 0x356 JUMP JUMPDEST SWAP1 SWAP2 POP DUP7 PUSH1 0x0 MSTORE DUP4 PUSH1 0x0 KECCAK256 DUP7 DUP1 DUP6 ADD PUSH1 0x5 SHR DUP3 ADD SWAP3 DUP7 DUP7 LT PUSH3 0x3F3 JUMPI JUMPDEST SWAP2 DUP13 SWAP2 DUP7 SWAP6 SWAP5 SWAP4 ADD PUSH1 0x5 SHR ADD SWAP2 JUMPDEST DUP3 DUP2 LT PUSH3 0x3E3 JUMPI POP POP PUSH3 0xE5 JUMP JUMPDEST PUSH1 0x0 DUP2 SSTORE DUP6 SWAP5 POP DUP13 SWAP2 ADD PUSH3 0x3D3 JUMP JUMPDEST SWAP3 POP DUP2 SWAP3 PUSH3 0x3C5 JUMP JUMPDEST PUSH4 0x4E487B71 PUSH1 0xE0 SHL PUSH1 0x0 MSTORE PUSH1 0x22 PUSH1 0x4 MSTORE PUSH1 0x24 PUSH1 0x0 REVERT JUMPDEST SWAP2 PUSH1 0x7F AND SWAP2 PUSH3 0xD1 JUMP JUMPDEST PUSH1 0x0 DUP1 REVERT JUMPDEST PUSH1 0x40 DUP1 MLOAD SWAP2 SWAP1 DUP3 ADD PUSH1 0x1 PUSH1 0x1 PUSH1 0x40 SHL SUB DUP2 GT DUP4 DUP3 LT OR PUSH3 0x322 JUMPI PUSH1 0x40 MSTORE JUMP JUMPDEST MLOAD SWAP1 PUSH1 0x1 PUSH1 0x1 PUSH1 0xA0 SHL SUB DUP3 AND DUP3 SUB PUSH3 0x41E JUMPI JUMP INVALID PUSH1 0x80 DUP1 PUSH1 0x40 MSTORE PUSH1 0x4 CALLDATASIZE LT ISZERO PUSH2 0x13 JUMPI PUSH1 0x0 DUP1 REVERT JUMPDEST PUSH1 0x0 CALLDATALOAD PUSH1 0xE0 SHR SWAP1 DUP2 PUSH4 0x6FDDE03 EQ PUSH2 0x147D JUMPI POP DUP1 PUSH4 0x902F1AC EQ PUSH2 0x1424 JUMPI DUP1 PUSH4 0x95EA7B3 EQ PUSH2 0x139E JUMPI DUP1 PUSH4 0xDFE1681 EQ PUSH2 0x1359 JUMPI DUP1 PUSH4 0x18160DDD EQ PUSH2 0x133B JUMPI DUP1 PUSH4 0x23B872DD EQ PUSH2 0x1249 JUMPI DUP1 PUSH4 0x313CE567 EQ PUSH2 0x122D JUMPI DUP1 PUSH4 0x5909C0D5 EQ PUSH2 0x120F JUMPI DUP1 PUSH4 0x5A3D5493 EQ PUSH2 0x11F1 JUMPI DUP1 PUSH4 0x6A627842 EQ PUSH2 0xF30 JUMPI DUP1 PUSH4 0x6D9A640A EQ PUSH2 0x9A1 JUMPI DUP1 PUSH4 0x70A08231 EQ PUSH2 0x967 JUMPI DUP1 PUSH4 0x7464FC3D EQ PUSH2 0x949 JUMPI DUP1 PUSH4 0x89AFCB44 EQ PUSH2 0x497 JUMPI DUP1 PUSH4 0x95D89B41 EQ PUSH2 0x390 JUMPI DUP1 PUSH4 0xA9059CBB EQ PUSH2 0x35F JUMPI DUP1 PUSH4 0xBA9A7A56 EQ PUSH2 0x342 JUMPI DUP1 PUSH4 0xC45A0155 EQ PUSH2 0x2FD JUMPI DUP1 PUSH4 0xD21220A7 EQ PUSH2 0x2B8 JUMPI DUP1 PUSH4 0xDD62ED3E EQ PUSH2 0x267 JUMPI PUSH4 0xFFF6CAE9 EQ PUSH2 0x106 JUMPI PUSH1 0x0 DUP1 REVERT JUMPDEST CALLVALUE PUSH2 0x21E JUMPI PUSH1 0x0 CALLDATASIZE PUSH1 0x3 NOT ADD SLT PUSH2 0x21E JUMPI PUSH2 0x11F PUSH2 0x1702 JUMP JUMPDEST PUSH1 0x40 MLOAD PUSH4 0x70A08231 PUSH1 0xE0 SHL DUP1 DUP3 MSTORE ADDRESS PUSH1 0x4 DUP4 ADD MSTORE PUSH1 0x1 PUSH1 0x1 PUSH1 0xA0 SHL SUB SWAP2 PUSH1 0x20 SWAP2 SWAP1 DUP3 DUP2 PUSH1 0x24 DUP2 PUSH32 0x0 DUP9 AND GAS STATICCALL SWAP2 DUP3 ISZERO PUSH2 0x22A JUMPI DUP4 SWAP2 PUSH1 0x0 SWAP4 PUSH2 0x236 JUMPI JUMPDEST POP PUSH1 0x24 PUSH1 0x40 MLOAD DUP1 SWAP7 DUP2 SWAP4 DUP3 MSTORE ADDRESS PUSH1 0x4 DUP4 ADD MSTORE PUSH32 0x0 AND GAS STATICCALL SWAP2 DUP3 ISZERO PUSH2 0x22A JUMPI PUSH1 0x0 SWAP3 PUSH2 0x1F3 JUMPI JUMPDEST PUSH2 0x1DF DUP4 DUP4 PUSH1 0x5 SLOAD SWAP2 PUSH1 0x1 PUSH1 0x1 PUSH1 0x70 SHL SUB DUP1 DUP5 PUSH1 0x70 SHR AND SWAP4 AND SWAP2 PUSH2 0x1985 JUMP JUMPDEST PUSH1 0x1 PUSH1 0x0 DUP1 MLOAD PUSH1 0x20 PUSH2 0x1CAD DUP4 CODECOPY DUP2 MLOAD SWAP2 MSTORE SSTORE STOP JUMPDEST SWAP1 SWAP2 POP DUP3 DUP2 RETURNDATASIZE DUP4 GT PUSH2 0x223 JUMPI JUMPDEST PUSH2 0x20A DUP2 DUP4 PUSH2 0x15AF JUMP JUMPDEST DUP2 ADD SUB SLT PUSH2 0x21E JUMPI PUSH2 0x1DF SWAP2 MLOAD SWAP1 CODESIZE PUSH2 0x1C0 JUMP JUMPDEST PUSH1 0x0 DUP1 REVERT JUMPDEST POP RETURNDATASIZE PUSH2 0x200 JUMP JUMPDEST PUSH1 0x40 MLOAD RETURNDATASIZE PUSH1 0x0 DUP3 RETURNDATACOPY RETURNDATASIZE SWAP1 REVERT JUMPDEST DUP3 DUP2 SWAP4 SWAP3 SWAP5 POP RETURNDATASIZE DUP4 GT PUSH2 0x260 JUMPI JUMPDEST PUSH2 0x24E DUP2 DUP4 PUSH2 0x15AF JUMP JUMPDEST DUP2 ADD SUB SLT PUSH2 0x21E JUMPI DUP3 SWAP1 MLOAD SWAP2 CODESIZE PUSH2 0x17B JUMP JUMPDEST POP RETURNDATASIZE PUSH2 0x244 JUMP JUMPDEST CALLVALUE PUSH2 0x21E JUMPI PUSH1 0x40 CALLDATASIZE PUSH1 0x3 NOT ADD SLT PUSH2 0x21E JUMPI PUSH2 0x280 PUSH2 0x1583 JUMP JUMPDEST PUSH2 0x288 PUSH2 0x1599 JUMP JUMPDEST SWAP1 PUSH1 0x1 DUP1 PUSH1 0xA0 SHL SUB DUP1 SWAP2 AND PUSH1 0x0 MSTORE PUSH1 0x1 PUSH1 0x20 MSTORE PUSH1 0x40 PUSH1 0x0 KECCAK256 SWAP2 AND PUSH1 0x0 MSTORE PUSH1 0x20 MSTORE PUSH1 0x20 PUSH1 0x40 PUSH1 0x0 KECCAK256 SLOAD PUSH1 0x40 MLOAD SWAP1 DUP2 MSTORE RETURN JUMPDEST CALLVALUE PUSH2 0x21E JUMPI PUSH1 0x0 CALLDATASIZE PUSH1 0x3 NOT ADD SLT PUSH2 0x21E JUMPI PUSH1 0x40 MLOAD PUSH32 0x0 PUSH1 0x1 PUSH1 0x1 PUSH1 0xA0 SHL SUB AND DUP2 MSTORE PUSH1 0x20 SWAP1 RETURN JUMPDEST CALLVALUE PUSH2 0x21E JUMPI PUSH1 0x0 CALLDATASIZE PUSH1 0x3 NOT ADD SLT PUSH2 0x21E JUMPI PUSH1 0x40 MLOAD PUSH32 0x0 PUSH1 0x1 PUSH1 0x1 PUSH1 0xA0 SHL SUB AND DUP2 MSTORE PUSH1 0x20 SWAP1 RETURN JUMPDEST CALLVALUE PUSH2 0x21E JUMPI PUSH1 0x0 CALLDATASIZE PUSH1 0x3 NOT ADD SLT PUSH2 0x21E JUMPI PUSH1 0x20 PUSH1 0x40 MLOAD PUSH2 0x3E8 DUP2 MSTORE RETURN JUMPDEST CALLVALUE PUSH2 0x21E JUMPI PUSH1 0x40 CALLDATASIZE PUSH1 0x3 NOT ADD SLT PUSH2 0x21E JUMPI PUSH2 0x385 PUSH2 0x37B PUSH2 0x1583 JUMP JUMPDEST PUSH1 0x24 CALLDATALOAD SWAP1 CALLER PUSH2 0x163D JUMP JUMPDEST PUSH1 0x20 PUSH1 0x40 MLOAD PUSH1 0x1 DUP2 MSTORE RETURN JUMPDEST CALLVALUE PUSH2 0x21E JUMPI PUSH1 0x0 CALLDATASIZE PUSH1 0x3 NOT ADD SLT PUSH2 0x21E JUMPI PUSH1 0x40 MLOAD PUSH1 0x0 SWAP1 PUSH1 0x4 SLOAD PUSH1 0x1 DUP2 PUSH1 0x1 SHR SWAP1 PUSH1 0x1 DUP4 AND SWAP3 DUP4 ISZERO PUSH2 0x48D JUMPI JUMPDEST PUSH1 0x20 SWAP4 DUP5 DUP5 LT DUP2 EQ PUSH2 0x477 JUMPI DUP4 DUP7 MSTORE SWAP1 DUP2 ISZERO PUSH2 0x457 JUMPI POP PUSH1 0x1 EQ PUSH2 0x3FC JUMPI JUMPDEST PUSH2 0x3F8 DUP5 PUSH2 0x3EC DUP2 DUP9 SUB DUP3 PUSH2 0x15AF JUMP JUMPDEST PUSH1 0x40 MLOAD SWAP2 DUP3 SWAP2 DUP3 PUSH2 0x153A JUMP JUMPDEST SUB SWAP1 RETURN JUMPDEST PUSH1 0x4 PUSH1 0x0 SWAP1 DUP2 MSTORE SWAP3 SWAP5 POP PUSH32 0x8A35ACFBC15FF81A39AE7D344FD709F28E8600B4AA8C65C6B64BFE7FE36BD19B JUMPDEST DUP3 DUP5 LT PUSH2 0x444 JUMPI POP POP POP DUP2 PUSH2 0x3F8 SWAP4 PUSH2 0x3EC SWAP3 DUP3 ADD ADD SWAP4 PUSH2 0x3DC JUMP JUMPDEST DUP1 SLOAD DUP6 DUP6 ADD DUP8 ADD MSTORE SWAP3 DUP6 ADD SWAP3 DUP2 ADD PUSH2 0x428 JUMP JUMPDEST PUSH1 0xFF NOT AND DUP6 DUP6 ADD MSTORE POP POP ISZERO ISZERO PUSH1 0x5 SHL DUP3 ADD ADD SWAP2 POP PUSH2 0x3EC DUP2 PUSH2 0x3F8 PUSH2 0x3DC JUMP JUMPDEST PUSH4 0x4E487B71 PUSH1 0xE0 SHL PUSH1 0x0 MSTORE PUSH1 0x22 PUSH1 0x4 MSTORE PUSH1 0x24 PUSH1 0x0 REVERT JUMPDEST SWAP2 PUSH1 0x7F AND SWAP2 PUSH2 0x3BD JUMP JUMPDEST CALLVALUE PUSH2 0x21E JUMPI PUSH1 0x20 CALLDATASIZE PUSH1 0x3 NOT ADD SLT PUSH2 0x21E JUMPI PUSH2 0x4B0 PUSH2 0x1583 JUMP JUMPDEST PUSH2 0x4B8 PUSH2 0x1702 JUMP JUMPDEST PUSH2 0x4D7 PUSH1 0x5 SLOAD PUSH1 0x1 PUSH1 0x1 PUSH1 0x70 SHL SUB SWAP2 DUP3 DUP3 AND SWAP3 DUP3 PUSH1 0x70 SHR AND SWAP2 PUSH1 0xE0 SHR SWAP1 JUMP JUMPDEST POP PUSH1 0x40 MLOAD PUSH4 0x70A08231 PUSH1 0xE0 SHL DUP2 MSTORE ADDRESS PUSH1 0x4 DUP3 ADD MSTORE SWAP2 SWAP3 PUSH1 0x20 DUP4 PUSH1 0x24 DUP2 PUSH32 0x0 PUSH1 0x1 PUSH1 0x1 PUSH1 0xA0 SHL SUB AND GAS STATICCALL SWAP3 DUP4 ISZERO PUSH2 0x22A JUMPI PUSH1 0x0 SWAP4 PUSH2 0x915 JUMPI JUMPDEST POP PUSH1 0x40 MLOAD PUSH4 0x70A08231 PUSH1 0xE0 SHL DUP2 MSTORE ADDRESS PUSH1 0x4 DUP3 ADD MSTORE SWAP3 PUSH1 0x20 DUP5 PUSH1 0x24 DUP2 PUSH32 0x0 PUSH1 0x1 PUSH1 0x1 PUSH1 0xA0 SHL SUB AND GAS STATICCALL SWAP4 DUP5 ISZERO PUSH2 0x22A JUMPI PUSH1 0x0 SWAP5 PUSH2 0x8E1 JUMPI JUMPDEST POP ADDRESS PUSH1 0x0 MSTORE PUSH1 0x0 PUSH1 0x20 MSTORE PUSH1 0x40 PUSH1 0x0 KECCAK256 SLOAD SWAP3 PUSH2 0x5C4 PUSH2 0x5B8 PUSH2 0x5B8 PUSH2 0x5BD PUSH2 0x5AB DUP6 DUP12 PUSH2 0x173F JUMP JUMPDEST SWAP6 PUSH1 0x2 SLOAD SWAP4 DUP5 SWAP2 DUP11 PUSH2 0x160A JUMP JUMPDEST PUSH2 0x161D JUMP JUMPDEST SWAP8 DUP8 PUSH2 0x160A JUMP JUMPDEST SWAP4 DUP6 ISZERO ISZERO DUP1 PUSH2 0x8D8 JUMPI JUMPDEST ISZERO PUSH2 0x884 JUMPI ADDRESS ISZERO PUSH2 0x86B JUMPI ADDRESS PUSH1 0x0 MSTORE PUSH1 0x0 PUSH1 0x20 MSTORE PUSH1 0x40 PUSH1 0x0 KECCAK256 SLOAD DUP2 DUP2 LT PUSH2 0x843 JUMPI SWAP1 DUP1 PUSH1 0x0 SWAP3 ADDRESS DUP5 MSTORE DUP4 PUSH1 0x20 MSTORE SUB PUSH1 0x40 DUP4 KECCAK256 SSTORE DUP1 PUSH1 0x2 SLOAD SUB PUSH1 0x2 SSTORE PUSH1 0x40 MLOAD SWAP1 DUP2 MSTORE PUSH32 0xDDF252AD1BE2C89B69C2B068FC378DAA952BA7F163C4A11628F55A4DF523B3EF PUSH1 0x20 ADDRESS SWAP3 LOG3 PUSH2 0x669 DUP6 DUP5 PUSH32 0x0 PUSH1 0x1 PUSH1 0x1 PUSH1 0xA0 SHL SUB AND PUSH2 0x1B3D JUMP JUMPDEST PUSH2 0x69D DUP5 DUP5 PUSH32 0x0 PUSH1 0x1 PUSH1 0x1 PUSH1 0xA0 SHL SUB AND PUSH2 0x1B3D JUMP JUMPDEST PUSH1 0x40 MLOAD PUSH4 0x70A08231 PUSH1 0xE0 SHL DUP2 MSTORE ADDRESS PUSH1 0x4 DUP3 ADD MSTORE PUSH1 0x20 DUP2 PUSH1 0x24 DUP2 PUSH32 0x0 PUSH1 0x1 PUSH1 0x1 PUSH1 0xA0 SHL SUB AND GAS STATICCALL SWAP1 DUP2 ISZERO PUSH2 0x22A JUMPI PUSH1 0x0 SWAP2 PUSH2 0x811 JUMPI JUMPDEST POP PUSH1 0x40 MLOAD PUSH4 0x70A08231 PUSH1 0xE0 SHL DUP2 MSTORE ADDRESS PUSH1 0x4 DUP3 ADD MSTORE SWAP1 PUSH1 0x20 DUP3 PUSH1 0x24 DUP2 PUSH32 0x0 PUSH1 0x1 PUSH1 0x1 PUSH1 0xA0 SHL SUB AND GAS STATICCALL SWAP2 DUP3 ISZERO PUSH2 0x22A JUMPI PUSH1 0x0 SWAP3 PUSH2 0x7D6 JUMPI JUMPDEST POP SWAP7 PUSH2 0x756 SWAP3 SWAP2 PUSH1 0x40 SWAP9 PUSH2 0x1985 JUMP JUMPDEST PUSH2 0x7B3 JUMPI JUMPDEST DUP4 MLOAD SWAP1 DUP4 DUP3 MSTORE DUP3 PUSH1 0x20 DUP4 ADD MSTORE PUSH1 0x1 DUP1 PUSH1 0xA0 SHL SUB AND SWAP1 PUSH32 0xDCCD412F0B1252819CB1FD330B93224CA42612892BB3F4F789976E6D81936496 DUP6 CALLER SWAP3 LOG3 PUSH1 0x1 PUSH1 0x0 DUP1 MLOAD PUSH1 0x20 PUSH2 0x1CAD DUP4 CODECOPY DUP2 MLOAD SWAP2 MSTORE SSTORE DUP3 MLOAD SWAP2 DUP3 MSTORE PUSH1 0x20 DUP3 ADD MSTORE RETURN JUMPDEST PUSH2 0x7CE PUSH1 0x5 SLOAD PUSH1 0x1 PUSH1 0x1 PUSH1 0x70 SHL SUB DUP1 DUP3 PUSH1 0x70 SHR AND SWAP2 AND PUSH2 0x160A JUMP JUMPDEST PUSH1 0x8 SSTORE PUSH2 0x75B JUMP JUMPDEST SWAP3 SWAP2 POP SWAP7 PUSH1 0x20 DUP4 RETURNDATASIZE PUSH1 0x20 GT PUSH2 0x809 JUMPI JUMPDEST DUP2 PUSH2 0x7F3 PUSH1 0x20 SWAP4 DUP4 PUSH2 0x15AF JUMP JUMPDEST DUP2 ADD SUB SLT PUSH2 0x21E JUMPI SWAP2 MLOAD SWAP2 SWAP7 SWAP1 SWAP2 SWAP1 PUSH1 0x40 PUSH2 0x747 JUMP JUMPDEST RETURNDATASIZE SWAP2 POP PUSH2 0x7E6 JUMP JUMPDEST SWAP1 POP PUSH1 0x20 DUP2 RETURNDATASIZE PUSH1 0x20 GT PUSH2 0x83B JUMPI JUMPDEST DUP2 PUSH2 0x82C PUSH1 0x20 SWAP4 DUP4 PUSH2 0x15AF JUMP JUMPDEST DUP2 ADD SUB SLT PUSH2 0x21E JUMPI MLOAD DUP8 PUSH2 0x6F1 JUMP JUMPDEST RETURNDATASIZE SWAP2 POP PUSH2 0x81F JUMP JUMPDEST PUSH1 0x40 MLOAD PUSH4 0x391434E3 PUSH1 0xE2 SHL DUP2 MSTORE ADDRESS PUSH1 0x4 DUP3 ADD MSTORE PUSH1 0x24 DUP2 ADD SWAP2 SWAP1 SWAP2 MSTORE PUSH1 0x44 DUP2 ADD SWAP2 SWAP1 SWAP2 MSTORE PUSH1 0x64 SWAP1 REVERT JUMPDEST PUSH1 0x40 MLOAD PUSH4 0x4B637E8F PUSH1 0xE1 SHL DUP2 MSTORE PUSH1 0x0 PUSH1 0x4 DUP3 ADD MSTORE PUSH1 0x24 SWAP1 REVERT JUMPDEST PUSH1 0x40 MLOAD PUSH3 0x461BCD PUSH1 0xE5 SHL DUP2 MSTORE PUSH1 0x20 PUSH1 0x4 DUP3 ADD MSTORE PUSH1 0x26 PUSH1 0x24 DUP3 ADD MSTORE PUSH32 0x444558506169723A20494E53554646494349454E545F4C49515549444954595F PUSH1 0x44 DUP3 ADD MSTORE PUSH6 0x109554939151 PUSH1 0xD2 SHL PUSH1 0x64 DUP3 ADD MSTORE PUSH1 0x84 SWAP1 REVERT JUMPDEST POP DUP5 ISZERO ISZERO PUSH2 0x5CE JUMP JUMPDEST SWAP1 SWAP4 POP PUSH1 0x20 DUP2 RETURNDATASIZE PUSH1 0x20 GT PUSH2 0x90D JUMPI JUMPDEST DUP2 PUSH2 0x8FD PUSH1 0x20 SWAP4 DUP4 PUSH2 0x15AF JUMP JUMPDEST DUP2 ADD SUB SLT PUSH2 0x21E JUMPI MLOAD SWAP3 DUP6 PUSH2 0x584 JUMP JUMPDEST RETURNDATASIZE SWAP2 POP PUSH2 0x8F0 JUMP JUMPDEST SWAP1 SWAP3 POP PUSH1 0x20 DUP2 RETURNDATASIZE PUSH1 0x20 GT PUSH2 0x941 JUMPI JUMPDEST DUP2 PUSH2 0x931 PUSH1 0x20 SWAP4 DUP4 PUSH2 0x15AF JUMP JUMPDEST DUP2 ADD SUB SLT PUSH2 0x21E JUMPI MLOAD SWAP2 DUP5 PUSH2 0x52E JUMP JUMPDEST RETURNDATASIZE SWAP2 POP PUSH2 0x924 JUMP JUMPDEST CALLVALUE PUSH2 0x21E JUMPI PUSH1 0x0 CALLDATASIZE PUSH1 0x3 NOT ADD SLT PUSH2 0x21E JUMPI PUSH1 0x20 PUSH1 0x8 SLOAD PUSH1 0x40 MLOAD SWAP1 DUP2 MSTORE RETURN JUMPDEST CALLVALUE PUSH2 0x21E JUMPI PUSH1 0x20 CALLDATASIZE PUSH1 0x3 NOT ADD SLT PUSH2 0x21E JUMPI PUSH1 0x1 PUSH1 0x1 PUSH1 0xA0 SHL SUB PUSH2 0x988 PUSH2 0x1583 JUMP JUMPDEST AND PUSH1 0x0 MSTORE PUSH1 0x0 PUSH1 0x20 MSTORE PUSH1 0x20 PUSH1 0x40 PUSH1 0x0 KECCAK256 SLOAD PUSH1 0x40 MLOAD SWAP1 DUP2 MSTORE RETURN JUMPDEST CALLVALUE PUSH2 0x21E JUMPI PUSH1 0x60 CALLDATASIZE PUSH1 0x3 NOT ADD SLT PUSH2 0x21E JUMPI PUSH1 0x44 CALLDATALOAD PUSH1 0x1 PUSH1 0x1 PUSH1 0xA0 SHL SUB DUP2 AND DUP2 SUB PUSH2 0x21E JUMPI PUSH2 0x9CD PUSH2 0x1702 JUMP JUMPDEST PUSH1 0x4 CALLDATALOAD ISZERO SWAP1 DUP2 ISZERO DUP1 SWAP3 PUSH2 0xF25 JUMPI JUMPDEST ISZERO PUSH2 0xED4 JUMPI PUSH2 0x9FF PUSH1 0x5 SLOAD PUSH1 0x1 PUSH1 0x1 PUSH1 0x70 SHL SUB SWAP2 DUP3 DUP3 AND SWAP3 DUP3 PUSH1 0x70 SHR AND SWAP2 PUSH1 0xE0 SHR SWAP1 JUMP JUMPDEST POP SWAP1 SWAP3 PUSH1 0x1 PUSH1 0x1 PUSH1 0x70 SHL SUB DUP5 AND PUSH1 0x4 CALLDATALOAD LT DUP1 PUSH2 0xEC0 JUMPI JUMPDEST ISZERO PUSH2 0xE7B JUMPI PUSH1 0x1 PUSH1 0x1 PUSH1 0xA0 SHL SUB PUSH32 0x0 DUP2 AND SWAP2 SWAP1 DUP5 AND DUP3 EQ ISZERO DUP1 PUSH2 0xE44 JUMPI JUMPDEST ISZERO PUSH2 0xE09 JUMPI PUSH1 0x24 SWAP2 PUSH1 0x20 SWAP2 PUSH2 0xDF7 JUMPI JUMPDEST DUP3 CALLDATALOAD PUSH2 0xDBD JUMPI JUMPDEST PUSH1 0x40 MLOAD PUSH4 0x70A08231 PUSH1 0xE0 SHL DUP2 MSTORE ADDRESS PUSH1 0x4 DUP3 ADD MSTORE SWAP3 DUP4 SWAP2 DUP3 SWAP1 GAS STATICCALL SWAP1 DUP2 ISZERO PUSH2 0x22A JUMPI PUSH1 0x0 SWAP2 PUSH2 0xD8B JUMPI JUMPDEST POP PUSH1 0x40 MLOAD PUSH4 0x70A08231 PUSH1 0xE0 SHL DUP2 MSTORE ADDRESS PUSH1 0x4 DUP3 ADD MSTORE SWAP2 PUSH1 0x20 DUP4 PUSH1 0x24 DUP2 PUSH32 0x0 PUSH1 0x1 PUSH1 0x1 PUSH1 0xA0 SHL SUB AND GAS STATICCALL SWAP3 DUP4 ISZERO PUSH2 0x22A JUMPI PUSH1 0x0 SWAP4 PUSH2 0xD57 JUMPI JUMPDEST POP PUSH2 0xAFF PUSH1 0x4 CALLDATALOAD PUSH1 0x1 PUSH1 0x1 PUSH1 0x70 SHL SUB DUP8 AND PUSH2 0x15E7 JUMP JUMPDEST DUP3 GT ISZERO PUSH2 0xD4F JUMPI PUSH2 0xB24 PUSH2 0xB1E PUSH1 0x4 CALLDATALOAD PUSH1 0x1 PUSH1 0x1 PUSH1 0x70 SHL SUB DUP9 AND PUSH2 0x15E7 JUMP JUMPDEST DUP4 PUSH2 0x15E7 JUMP JUMPDEST SWAP5 JUMPDEST PUSH2 0xB3B PUSH1 0x24 CALLDATALOAD PUSH1 0x1 PUSH1 0x1 PUSH1 0x70 SHL SUB DUP5 AND PUSH2 0x15E7 JUMP JUMPDEST DUP5 GT ISZERO PUSH2 0xD47 JUMPI PUSH2 0xB60 PUSH2 0xB5A PUSH1 0x24 CALLDATALOAD PUSH1 0x1 PUSH1 0x1 PUSH1 0x70 SHL SUB DUP6 AND PUSH2 0x15E7 JUMP JUMPDEST DUP6 PUSH2 0x15E7 JUMP JUMPDEST SWAP4 JUMPDEST DUP7 ISZERO DUP1 ISZERO SWAP1 PUSH2 0xD3E JUMPI JUMPDEST ISZERO PUSH2 0xCEE JUMPI DUP4 PUSH2 0x3E8 DUP2 MUL DIV PUSH2 0x3E8 EQ DUP5 ISZERO OR ISZERO PUSH2 0xCAF JUMPI PUSH2 0xB9A PUSH2 0xB90 DUP9 PUSH2 0x15F4 JUMP JUMPDEST PUSH2 0x3E8 DUP7 MUL PUSH2 0x15E7 JUMP JUMPDEST DUP2 PUSH2 0x3E8 DUP2 MUL DIV PUSH2 0x3E8 EQ DUP3 ISZERO OR ISZERO PUSH2 0xCAF JUMPI PUSH2 0xBCD SWAP1 PUSH2 0xBC7 PUSH2 0xBBD DUP9 PUSH2 0x15F4 JUMP JUMPDEST PUSH2 0x3E8 DUP6 MUL PUSH2 0x15E7 JUMP JUMPDEST SWAP1 PUSH2 0x160A JUMP JUMPDEST PUSH2 0xBE9 PUSH1 0x1 PUSH1 0x1 PUSH1 0x70 SHL SUB DUP6 AND PUSH1 0x1 PUSH1 0x1 PUSH1 0x70 SHL SUB DUP6 AND PUSH2 0x160A JUMP JUMPDEST PUSH1 0x1 SWAP1 PUSH2 0x3E8 PUSH1 0x2 JUMPDEST PUSH1 0x1 DUP2 GT PUSH2 0xCC5 JUMPI POP DUP1 PUSH1 0x0 NOT DIV DUP4 GT PUSH2 0xCAF JUMPI PUSH2 0xC11 SWAP3 MUL SWAP1 PUSH2 0x160A JUMP JUMPDEST GT PUSH2 0xC7D JUMPI PUSH2 0xC1F SWAP4 PUSH2 0x1985 JUMP JUMPDEST PUSH1 0x40 MLOAD SWAP3 DUP4 MSTORE PUSH1 0x20 DUP4 ADD MSTORE PUSH1 0x4 CALLDATALOAD PUSH1 0x40 DUP4 ADD MSTORE PUSH1 0x24 CALLDATALOAD PUSH1 0x60 DUP4 ADD MSTORE PUSH1 0x1 DUP1 PUSH1 0xA0 SHL SUB AND SWAP1 PUSH32 0xD78AD95FA46C994B6551D0DA85FC275FE613CE37657FB8D5E3D130840159D822 PUSH1 0x80 CALLER SWAP3 LOG3 PUSH1 0x1 PUSH1 0x0 DUP1 MLOAD PUSH1 0x20 PUSH2 0x1CAD DUP4 CODECOPY DUP2 MLOAD SWAP2 MSTORE SSTORE STOP JUMPDEST PUSH1 0x40 MLOAD PUSH3 0x461BCD PUSH1 0xE5 SHL DUP2 MSTORE PUSH1 0x20 PUSH1 0x4 DUP3 ADD MSTORE PUSH1 0xA PUSH1 0x24 DUP3 ADD MSTORE PUSH10 0x444558506169723A204B PUSH1 0xB0 SHL PUSH1 0x44 DUP3 ADD MSTORE PUSH1 0x64 SWAP1 REVERT JUMPDEST PUSH4 0x4E487B71 PUSH1 0xE0 SHL PUSH1 0x0 MSTORE PUSH1 0x11 PUSH1 0x4 MSTORE PUSH1 0x24 PUSH1 0x0 REVERT JUMPDEST SWAP1 DUP1 PUSH1 0x0 NOT DIV DUP2 GT PUSH2 0xCAF JUMPI PUSH1 0x1 DUP3 AND PUSH2 0xCE5 JUMPI JUMPDEST DUP1 MUL SWAP1 PUSH1 0x1 SHR PUSH2 0xBF2 JUMP JUMPDEST DUP1 SWAP4 MUL SWAP3 PUSH2 0xCDA JUMP JUMPDEST PUSH1 0x40 MLOAD PUSH3 0x461BCD PUSH1 0xE5 SHL DUP2 MSTORE PUSH1 0x20 PUSH1 0x4 DUP3 ADD MSTORE PUSH1 0x22 PUSH1 0x24 DUP3 ADD MSTORE PUSH32 0x444558506169723A20494E53554646494349454E545F494E5055545F414D4F55 PUSH1 0x44 DUP3 ADD MSTORE PUSH2 0x1395 PUSH1 0xF2 SHL PUSH1 0x64 DUP3 ADD MSTORE PUSH1 0x84 SWAP1 REVERT JUMPDEST POP DUP5 ISZERO ISZERO PUSH2 0xB6C JUMP JUMPDEST PUSH1 0x0 SWAP4 PUSH2 0xB62 JUMP JUMPDEST PUSH1 0x0 SWAP5 PUSH2 0xB26 JUMP JUMPDEST SWAP1 SWAP3 POP PUSH1 0x20 DUP2 RETURNDATASIZE PUSH1 0x20 GT PUSH2 0xD83 JUMPI JUMPDEST DUP2 PUSH2 0xD73 PUSH1 0x20 SWAP4 DUP4 PUSH2 0x15AF JUMP JUMPDEST DUP2 ADD SUB SLT PUSH2 0x21E JUMPI MLOAD SWAP2 DUP6 PUSH2 0xAE9 JUMP JUMPDEST RETURNDATASIZE SWAP2 POP PUSH2 0xD66 JUMP JUMPDEST SWAP1 POP PUSH1 0x20 DUP2 RETURNDATASIZE PUSH1 0x20 GT PUSH2 0xDB5 JUMPI JUMPDEST DUP2 PUSH2 0xDA6 PUSH1 0x20 SWAP4 DUP4 PUSH2 0x15AF JUMP JUMPDEST DUP2 ADD SUB SLT PUSH2 0x21E JUMPI MLOAD DUP5 PUSH2 0xA93 JUMP JUMPDEST RETURNDATASIZE SWAP2 POP PUSH2 0xD99 JUMP JUMPDEST PUSH2 0xDF2 DUP4 CALLDATALOAD DUP7 PUSH32 0x0 PUSH1 0x1 PUSH1 0x1 PUSH1 0xA0 SHL SUB AND PUSH2 0x1B3D JUMP JUMPDEST PUSH2 0xA6A JUMP JUMPDEST PUSH2 0xE04 PUSH1 0x4 CALLDATALOAD DUP7 DUP4 PUSH2 0x1B3D JUMP JUMPDEST PUSH2 0xA63 JUMP JUMPDEST PUSH1 0x40 MLOAD PUSH3 0x461BCD PUSH1 0xE5 SHL DUP2 MSTORE PUSH1 0x20 PUSH1 0x4 DUP3 ADD MSTORE PUSH1 0x13 PUSH1 0x24 DUP3 ADD MSTORE PUSH19 0x444558506169723A20494E56414C49445F544F PUSH1 0x68 SHL PUSH1 0x44 DUP3 ADD MSTORE PUSH1 0x64 SWAP1 REVERT JUMPDEST POP PUSH1 0x1 PUSH1 0x1 PUSH1 0xA0 SHL SUB DUP5 DUP2 AND PUSH32 0x0 SWAP1 SWAP2 AND EQ ISZERO PUSH2 0xA53 JUMP JUMPDEST PUSH1 0x40 MLOAD PUSH3 0x461BCD PUSH1 0xE5 SHL DUP2 MSTORE PUSH1 0x20 PUSH1 0x4 DUP3 ADD MSTORE PUSH1 0x1F PUSH1 0x24 DUP3 ADD MSTORE PUSH32 0x444558506169723A20494E53554646494349454E545F4C495155494449545900 PUSH1 0x44 DUP3 ADD MSTORE PUSH1 0x64 SWAP1 REVERT JUMPDEST POP PUSH1 0x1 PUSH1 0x1 PUSH1 0x70 SHL SUB DUP3 AND PUSH1 0x24 CALLDATALOAD LT PUSH2 0xA16 JUMP JUMPDEST PUSH1 0x40 MLOAD PUSH3 0x461BCD PUSH1 0xE5 SHL DUP2 MSTORE PUSH1 0x20 PUSH1 0x4 DUP3 ADD MSTORE PUSH1 0x23 PUSH1 0x24 DUP3 ADD MSTORE PUSH32 0x444558506169723A20494E53554646494349454E545F4F55545055545F414D4F PUSH1 0x44 DUP3 ADD MSTORE PUSH3 0x155395 PUSH1 0xEA SHL PUSH1 0x64 DUP3 ADD MSTORE PUSH1 0x84 SWAP1 REVERT JUMPDEST POP PUSH1 0x24 CALLDATALOAD ISZERO ISZERO PUSH2 0x9DB JUMP JUMPDEST CALLVALUE PUSH2 0x21E JUMPI PUSH1 0x20 DUP1 PUSH1 0x3 NOT CALLDATASIZE ADD SLT PUSH2 0x21E JUMPI PUSH2 0xF4A PUSH2 0x1583 JUMP JUMPDEST PUSH2 0xF52 PUSH2 0x1702 JUMP JUMPDEST PUSH2 0xF71 PUSH1 0x5 SLOAD PUSH1 0x1 PUSH1 0x1 PUSH1 0x70 SHL SUB SWAP2 DUP3 DUP3 AND SWAP3 DUP3 PUSH1 0x70 SHR AND SWAP2 PUSH1 0xE0 SHR SWAP1 JUMP JUMPDEST POP PUSH1 0x40 MLOAD PUSH4 0x70A08231 PUSH1 0xE0 SHL DUP1 DUP3 MSTORE ADDRESS PUSH1 0x4 DUP4 ADD MSTORE SWAP3 SWAP4 PUSH1 0x1 PUSH1 0x1 PUSH1 0xA0 SHL SUB SWAP4 SWAP1 SWAP3 SWAP2 DUP7 DUP2 PUSH1 0x24 DUP2 PUSH32 0x0 DUP10 AND GAS STATICCALL SWAP2 DUP3 ISZERO PUSH2 0x22A JUMPI DUP8 SWAP2 PUSH1 0x0 SWAP4 PUSH2 0x11C0 JUMPI JUMPDEST POP PUSH1 0x24 PUSH1 0x40 MLOAD DUP1 SWAP8 DUP2 SWAP4 DUP3 MSTORE ADDRESS PUSH1 0x4 DUP4 ADD MSTORE PUSH32 0x0 AND GAS STATICCALL SWAP4 DUP5 ISZERO PUSH2 0x22A JUMPI PUSH1 0x0 SWAP5 PUSH2 0x1191 JUMPI JUMPDEST POP PUSH1 0x1 PUSH1 0x1 PUSH1 0x70 SHL SUB SWAP2 DUP3 DUP7 AND SWAP6 PUSH2 0x102C DUP8 DUP5 PUSH2 0x15E7 JUMP JUMPDEST SWAP6 DUP5 DUP4 AND SWAP4 PUSH2 0x103B DUP6 DUP4 PUSH2 0x15E7 JUMP JUMPDEST SWAP9 PUSH2 0x1046 DUP6 DUP6 PUSH2 0x173F JUMP JUMPDEST SWAP6 PUSH1 0x2 SLOAD SWAP2 DUP3 ISZERO PUSH1 0x0 EQ PUSH2 0x108A JUMPI PUSH2 0x1066 PUSH2 0x1061 DUP14 DUP14 PUSH2 0x160A JUMP JUMPDEST PUSH2 0x1807 JUMP JUMPDEST PUSH2 0x3E7 NOT DUP2 ADD GT PUSH2 0xCAF JUMPI PUSH1 0x40 MLOAD PUSH4 0xEC442F05 PUSH1 0xE0 SHL DUP2 MSTORE PUSH1 0x0 PUSH1 0x4 DUP3 ADD MSTORE PUSH1 0x24 SWAP1 REVERT JUMPDEST SWAP1 PUSH2 0x5B8 PUSH2 0x10A2 PUSH2 0x10A9 SWAP4 PUSH2 0x5B8 SWAP13 SWAP15 SWAP13 DUP7 DUP16 PUSH2 0x160A JUMP JUMPDEST SWAP4 DUP12 PUSH2 0x160A JUMP JUMPDEST SWAP1 DUP2 DUP1 DUP3 LT SWAP2 XOR MUL XOR SWAP9 DUP10 ISZERO PUSH2 0x113D JUMPI SWAP1 PUSH2 0x10CA DUP11 PUSH2 0x10CF SWAP7 SWAP6 SWAP5 SWAP4 PUSH2 0x1927 JUMP JUMPDEST PUSH2 0x1985 JUMP JUMPDEST PUSH2 0x111F JUMPI JUMPDEST POP PUSH1 0x40 MLOAD SWAP2 DUP3 MSTORE DUP4 DUP3 ADD MSTORE PUSH32 0x4C209B5FC8AD50758F13E2E1088BA56A560DFF690A1C6FEF26394F4C03821C4F PUSH1 0x40 CALLER SWAP3 LOG2 PUSH1 0x1 PUSH1 0x0 DUP1 MLOAD PUSH1 0x20 PUSH2 0x1CAD DUP4 CODECOPY DUP2 MLOAD SWAP2 MSTORE SSTORE PUSH1 0x40 MLOAD SWAP1 DUP2 MSTORE RETURN JUMPDEST PUSH2 0x1134 SWAP1 PUSH1 0x5 SLOAD SWAP1 DUP1 DUP3 PUSH1 0x70 SHR AND SWAP2 AND PUSH2 0x160A JUMP JUMPDEST PUSH1 0x8 SSTORE DUP5 PUSH2 0x10D4 JUMP JUMPDEST PUSH1 0x40 MLOAD PUSH3 0x461BCD PUSH1 0xE5 SHL DUP2 MSTORE PUSH1 0x4 DUP2 ADD DUP13 SWAP1 MSTORE PUSH1 0x26 PUSH1 0x24 DUP3 ADD MSTORE PUSH32 0x444558506169723A20494E53554646494349454E545F4C49515549444954595F PUSH1 0x44 DUP3 ADD MSTORE PUSH6 0x135253951151 PUSH1 0xD2 SHL PUSH1 0x64 DUP3 ADD MSTORE PUSH1 0x84 SWAP1 REVERT JUMPDEST SWAP1 SWAP4 POP DUP6 DUP2 DUP2 RETURNDATASIZE DUP4 GT PUSH2 0x11B9 JUMPI JUMPDEST PUSH2 0x11A9 DUP2 DUP4 PUSH2 0x15AF JUMP JUMPDEST DUP2 ADD SUB SLT PUSH2 0x21E JUMPI MLOAD SWAP3 DUP7 PUSH2 0x1014 JUMP JUMPDEST POP RETURNDATASIZE PUSH2 0x119F JUMP JUMPDEST DUP3 DUP2 SWAP4 SWAP3 SWAP5 POP RETURNDATASIZE DUP4 GT PUSH2 0x11EA JUMPI JUMPDEST PUSH2 0x11D8 DUP2 DUP4 PUSH2 0x15AF JUMP JUMPDEST DUP2 ADD SUB SLT PUSH2 0x21E JUMPI DUP7 SWAP1 MLOAD SWAP2 DUP9 PUSH2 0xFCF JUMP JUMPDEST POP RETURNDATASIZE PUSH2 0x11CE JUMP JUMPDEST CALLVALUE PUSH2 0x21E JUMPI PUSH1 0x0 CALLDATASIZE PUSH1 0x3 NOT ADD SLT PUSH2 0x21E JUMPI PUSH1 0x20 PUSH1 0x7 SLOAD PUSH1 0x40 MLOAD SWAP1 DUP2 MSTORE RETURN JUMPDEST CALLVALUE PUSH2 0x21E JUMPI PUSH1 0x0 CALLDATASIZE PUSH1 0x3 NOT ADD SLT PUSH2 0x21E JUMPI PUSH1 0x20 PUSH1 0x6 SLOAD PUSH1 0x40 MLOAD SWAP1 DUP2 MSTORE RETURN JUMPDEST CALLVALUE PUSH2 0x21E JUMPI PUSH1 0x0 CALLDATASIZE PUSH1 0x3 NOT ADD SLT PUSH2 0x21E JUMPI PUSH1 0x20 PUSH1 0x40 MLOAD PUSH1 0x12 DUP2 MSTORE RETURN JUMPDEST CALLVALUE PUSH2 0x21E JUMPI PUSH1 0x60 CALLDATASIZE PUSH1 0x3 NOT ADD SLT PUSH2 0x21E JUMPI PUSH2 0x1262 PUSH2 0x1583 JUMP JUMPDEST PUSH2 0x126A PUSH2 0x1599 JUMP JUMPDEST PUSH1 0x1 PUSH1 0x1 PUSH1 0xA0 SHL SUB DUP3 AND PUSH1 0x0 DUP2 DUP2 MSTORE PUSH1 0x1 PUSH1 0x20 SWAP1 DUP2 MSTORE PUSH1 0x40 DUP1 DUP4 KECCAK256 CALLER DUP5 MSTORE SWAP1 SWAP2 MSTORE SWAP1 KECCAK256 SLOAD SWAP3 PUSH1 0x44 CALLDATALOAD SWAP3 SWAP2 PUSH1 0x0 NOT DUP6 LT PUSH2 0x12A9 JUMPI JUMPDEST POP PUSH2 0x385 SWAP4 POP PUSH2 0x163D JUMP JUMPDEST DUP4 DUP6 LT PUSH2 0x1315 JUMPI DUP1 ISZERO PUSH2 0x12FC JUMPI CALLER ISZERO PUSH2 0x12E3 JUMPI PUSH2 0x385 SWAP5 DUP5 SWAP2 PUSH1 0x0 MSTORE PUSH1 0x1 PUSH1 0x20 MSTORE PUSH1 0x40 PUSH1 0x0 KECCAK256 CALLER PUSH1 0x0 MSTORE PUSH1 0x20 MSTORE SUB PUSH1 0x40 PUSH1 0x0 KECCAK256 SSTORE DUP5 PUSH2 0x129E JUMP JUMPDEST PUSH1 0x40 MLOAD PUSH4 0x4A1406B1 PUSH1 0xE1 SHL DUP2 MSTORE PUSH1 0x0 PUSH1 0x4 DUP3 ADD MSTORE PUSH1 0x24 SWAP1 REVERT JUMPDEST PUSH1 0x40 MLOAD PUSH4 0xE602DF05 PUSH1 0xE0 SHL DUP2 MSTORE PUSH1 0x0 PUSH1 0x4 DUP3 ADD MSTORE PUSH1 0x24 SWAP1 REVERT JUMPDEST PUSH1 0x40 MLOAD PUSH4 0x7DC7A0D9 PUSH1 0xE1 SHL DUP2 MSTORE CALLER PUSH1 0x4 DUP3 ADD MSTORE PUSH1 0x24 DUP2 ADD DUP7 SWAP1 MSTORE PUSH1 0x44 DUP2 ADD DUP6 SWAP1 MSTORE PUSH1 0x64 SWAP1 REVERT JUMPDEST CALLVALUE PUSH2 0x21E JUMPI PUSH1 0x0 CALLDATASIZE PUSH1 0x3 NOT ADD SLT PUSH2 0x21E JUMPI PUSH1 0x20 PUSH1 0x2 SLOAD PUSH1 0x40 MLOAD SWAP1 DUP2 MSTORE RETURN JUMPDEST CALLVALUE PUSH2 0x21E JUMPI PUSH1 0x0 CALLDATASIZE PUSH1 0x3 NOT ADD SLT PUSH2 0x21E JUMPI PUSH1 0x40 MLOAD PUSH32 0x0 PUSH1 0x1 PUSH1 0x1 PUSH1 0xA0 SHL SUB AND DUP2 MSTORE PUSH1 0x20 SWAP1 RETURN JUMPDEST CALLVALUE PUSH2 0x21E JUMPI PUSH1 0x40 CALLDATASIZE PUSH1 0x3 NOT ADD SLT PUSH2 0x21E JUMPI PUSH2 0x13B7 PUSH2 0x1583 JUMP JUMPDEST PUSH1 0x24 CALLDATALOAD SWAP1 CALLER ISZERO PUSH2 0x12FC JUMPI PUSH1 0x1 PUSH1 0x1 PUSH1 0xA0 SHL SUB AND SWAP1 DUP2 ISZERO PUSH2 0x12E3 JUMPI CALLER PUSH1 0x0 MSTORE PUSH1 0x1 PUSH1 0x20 MSTORE PUSH1 0x40 PUSH1 0x0 KECCAK256 DUP3 PUSH1 0x0 MSTORE PUSH1 0x20 MSTORE DUP1 PUSH1 0x40 PUSH1 0x0 KECCAK256 SSTORE PUSH1 0x40 MLOAD SWAP1 DUP2 MSTORE PUSH32 0x8C5BE1E5EBEC7D5BD14F71427D1E84F3DD0314C0F7B2291E5B200AC8C7C3B925 PUSH1 0x20 CALLER SWAP3 LOG3 PUSH1 0x20 PUSH1 0x40 MLOAD PUSH1 0x1 DUP2 MSTORE RETURN JUMPDEST CALLVALUE PUSH2 0x21E JUMPI PUSH1 0x0 CALLDATASIZE PUSH1 0x3 NOT ADD SLT PUSH2 0x21E JUMPI PUSH1 0x60 PUSH4 0xFFFFFFFF PUSH2 0x145B PUSH1 0x5 SLOAD PUSH1 0x1 PUSH1 0x1 PUSH1 0x70 SHL SUB SWAP2 DUP3 DUP3 AND SWAP3 DUP3 PUSH1 0x70 SHR AND SWAP2 PUSH1 0xE0 SHR SWAP1 JUMP JUMPDEST SWAP1 SWAP3 SWAP2 PUSH1 0x40 MLOAD SWAP4 PUSH1 0x1 PUSH1 0x1 PUSH1 0x70 SHL SUB DUP1 SWAP3 AND DUP6 MSTORE AND PUSH1 0x20 DUP5 ADD MSTORE AND PUSH1 0x40 DUP3 ADD MSTORE RETURN JUMPDEST CALLVALUE PUSH2 0x21E JUMPI PUSH1 0x0 CALLDATASIZE PUSH1 0x3 NOT ADD SLT PUSH2 0x21E JUMPI PUSH1 0x0 SWAP1 PUSH1 0x3 SLOAD PUSH1 0x1 DUP2 PUSH1 0x1 SHR SWAP1 PUSH1 0x1 DUP4 AND SWAP3 DUP4 ISZERO PUSH2 0x1530 JUMPI JUMPDEST PUSH1 0x20 SWAP4 DUP5 DUP5 LT DUP2 EQ PUSH2 0x477 JUMPI DUP4 DUP7 MSTORE SWAP1 DUP2 ISZERO PUSH2 0x457 JUMPI POP PUSH1 0x1 EQ PUSH2 0x14D5 JUMPI PUSH2 0x3F8 DUP5 PUSH2 0x3EC DUP2 DUP9 SUB DUP3 PUSH2 0x15AF JUMP JUMPDEST PUSH1 0x3 PUSH1 0x0 SWAP1 DUP2 MSTORE SWAP3 SWAP5 POP PUSH32 0xC2575A0E9E593C00F959F8C92F12DB2869C3395A3B0502D05E2516446F71F85B JUMPDEST DUP3 DUP5 LT PUSH2 0x151D JUMPI POP POP POP DUP2 PUSH2 0x3F8 SWAP4 PUSH2 0x3EC SWAP3 DUP3 ADD ADD SWAP4 PUSH2 0x3DC JUMP JUMPDEST DUP1 SLOAD DUP6 DUP6 ADD DUP8 ADD MSTORE SWAP3 DUP6 ADD SWAP3 DUP2 ADD PUSH2 0x1501 JUMP JUMPDEST SWAP2 PUSH1 0x7F AND SWAP2 PUSH2 0x14A7 JUMP JUMPDEST PUSH1 0x20 DUP1 DUP3 MSTORE DUP3 MLOAD DUP2 DUP4 ADD DUP2 SWAP1 MSTORE SWAP1 SWAP4 SWAP3 PUSH1 0x0 JUMPDEST DUP3 DUP2 LT PUSH2 0x156F JUMPI POP POP PUSH1 0x40 SWAP3 SWAP4 POP PUSH1 0x0 DUP4 DUP3 DUP5 ADD ADD MSTORE PUSH1 0x1F DUP1 NOT SWAP2 ADD AND ADD ADD SWAP1 JUMP JUMPDEST DUP2 DUP2 ADD DUP7 ADD MLOAD DUP5 DUP3 ADD PUSH1 0x40 ADD MSTORE DUP6 ADD PUSH2 0x154D JUMP JUMPDEST PUSH1 0x4 CALLDATALOAD SWAP1 PUSH1 0x1 PUSH1 0x1 PUSH1 0xA0 SHL SUB DUP3 AND DUP3 SUB PUSH2 0x21E JUMPI JUMP JUMPDEST PUSH1 0x24 CALLDATALOAD SWAP1 PUSH1 0x1 PUSH1 0x1 PUSH1 0xA0 SHL SUB DUP3 AND DUP3 SUB PUSH2 0x21E JUMPI JUMP JUMPDEST SWAP1 PUSH1 0x1F DUP1 NOT SWAP2 ADD AND DUP2 ADD SWAP1 DUP2 LT PUSH8 0xFFFFFFFFFFFFFFFF DUP3 GT OR PUSH2 0x15D1 JUMPI PUSH1 0x40 MSTORE JUMP JUMPDEST PUSH4 0x4E487B71 PUSH1 0xE0 SHL PUSH1 0x0 MSTORE PUSH1 0x41 PUSH1 0x4 MSTORE PUSH1 0x24 PUSH1 0x0 REVERT JUMPDEST SWAP2 SWAP1 DUP3 SUB SWAP2 DUP3 GT PUSH2 0xCAF JUMPI JUMP JUMPDEST SWAP1 PUSH1 0x3 DUP3 MUL SWAP2 DUP1 DUP4 DIV PUSH1 0x3 EQ SWAP1 ISZERO OR ISZERO PUSH2 0xCAF JUMPI JUMP JUMPDEST DUP2 DUP2 MUL SWAP3 SWAP2 DUP2 ISZERO SWAP2 DUP5 DIV EQ OR ISZERO PUSH2 0xCAF JUMPI JUMP JUMPDEST DUP2 ISZERO PUSH2 0x1627 JUMPI DIV SWAP1 JUMP JUMPDEST PUSH4 0x4E487B71 PUSH1 0xE0 SHL PUSH1 0x0 MSTORE PUSH1 0x12 PUSH1 0x4 MSTORE PUSH1 0x24 PUSH1 0x0 REVERT JUMPDEST SWAP2 PUSH1 0x1 PUSH1 0x1 PUSH1 0xA0 SHL SUB DUP1 DUP5 AND SWAP3 DUP4 ISZERO PUSH2 0x86B JUMPI AND SWAP3 DUP4 ISZERO PUSH2 0x16E9 JUMPI PUSH1 0x0 SWAP1 DUP4 DUP3 MSTORE DUP2 PUSH1 0x20 MSTORE PUSH1 0x40 DUP3 KECCAK256 SLOAD SWAP1 DUP4 DUP3 LT PUSH2 0x16B7 JUMPI POP SWAP2 PUSH1 0x40 DUP3 DUP3 PUSH32 0xDDF252AD1BE2C89B69C2B068FC378DAA952BA7F163C4A11628F55A4DF523B3EF SWAP6 DUP8 PUSH1 0x20 SWAP7 MSTORE DUP3 DUP7 MSTORE SUB DUP3 DUP3 KECCAK256 SSTORE DUP7 DUP2 MSTORE KECCAK256 DUP2 DUP2 SLOAD ADD SWAP1 SSTORE PUSH1 0x40 MLOAD SWAP1 DUP2 MSTORE LOG3 JUMP JUMPDEST PUSH1 0x40 MLOAD PUSH4 0x391434E3 PUSH1 0xE2 SHL DUP2 MSTORE PUSH1 0x1 PUSH1 0x1 PUSH1 0xA0 SHL SUB SWAP2 SWAP1 SWAP2 AND PUSH1 0x4 DUP3 ADD MSTORE PUSH1 0x24 DUP2 ADD SWAP2 SWAP1 SWAP2 MSTORE PUSH1 0x44 DUP2 ADD DUP4 SWAP1 MSTORE PUSH1 0x64 SWAP1 REVERT JUMPDEST PUSH1 0x40 MLOAD PUSH4 0xEC442F05 PUSH1 0xE0 SHL DUP2 MSTORE PUSH1 0x0 PUSH1 0x4 DUP3 ADD MSTORE PUSH1 0x24 SWAP1 REVERT JUMPDEST PUSH1 0x0 DUP1 MLOAD PUSH1 0x20 PUSH2 0x1CAD DUP4 CODECOPY DUP2 MLOAD SWAP2 MSTORE PUSH1 0x2 DUP2 SLOAD EQ PUSH2 0x1720 JUMPI PUSH1 0x2 SWAP1 SSTORE JUMP JUMPDEST PUSH1 0x40 MLOAD PUSH4 0x3EE5AEB5 PUSH1 0xE0 SHL DUP2 MSTORE PUSH1 0x4 SWAP1 REVERT JUMPDEST SWAP2 SWAP1 DUP3 ADD DUP1 SWAP3 GT PUSH2 0xCAF JUMPI JUMP JUMPDEST SWAP2 SWAP1 SWAP2 PUSH2 0x174A PUSH2 0x1BBE JUMP JUMPDEST PUSH1 0x8 SLOAD PUSH1 0x1 PUSH1 0x1 PUSH1 0xA0 SHL SUB DUP3 AND ISZERO DUP1 ISZERO SWAP6 SWAP3 SWAP4 SWAP2 SWAP3 SWAP2 SWAP1 PUSH2 0x17F6 JUMPI DUP3 PUSH2 0x1771 JUMPI JUMPDEST POP POP POP POP JUMP JUMPDEST PUSH2 0x1061 PUSH2 0x178E SWAP2 PUSH2 0x1794 SWAP4 PUSH1 0x1 PUSH1 0x1 PUSH1 0x70 SHL SUB DUP1 SWAP2 AND SWAP2 AND PUSH2 0x160A JUMP JUMPDEST SWAP2 PUSH2 0x1807 JUMP JUMPDEST SWAP1 DUP2 DUP2 GT PUSH2 0x17A3 JUMPI JUMPDEST DUP1 PUSH2 0x176B JUMP JUMPDEST PUSH2 0x17B3 PUSH1 0x2 SLOAD PUSH2 0xBC7 DUP5 DUP5 PUSH2 0x15E7 JUMP JUMPDEST SWAP1 PUSH1 0x5 DUP2 MUL SWAP1 DUP1 DUP3 DIV PUSH1 0x5 EQ SWAP1 ISZERO OR ISZERO PUSH2 0xCAF JUMPI PUSH2 0x17DA SWAP3 PUSH2 0x17D4 SWAP2 PUSH2 0x1732 JUMP JUMPDEST SWAP1 PUSH2 0x161D JUMP JUMPDEST DUP1 PUSH2 0x17E6 JUMPI JUMPDEST DUP1 PUSH2 0x179D JUMP JUMPDEST PUSH2 0x17EF SWAP2 PUSH2 0x1927 JUMP JUMPDEST CODESIZE DUP1 PUSH2 0x17E0 JUMP JUMPDEST POP POP SWAP1 POP PUSH2 0x1800 JUMPI JUMP JUMPDEST PUSH1 0x0 PUSH1 0x8 SSTORE JUMP JUMPDEST PUSH1 0x1 DUP1 DUP3 GT ISZERO PUSH2 0x1923 JUMPI PUSH2 0x18C4 SWAP1 DUP1 DUP4 PUSH1 0x1 PUSH1 0x80 SHL DUP2 LT ISZERO PUSH2 0x1911 JUMPI JUMPDEST DUP1 PUSH1 0x1 PUSH1 0x40 SHL PUSH1 0x4 SWAP3 LT ISZERO PUSH2 0x1904 JUMPI JUMPDEST PUSH5 0x100000000 DUP2 LT ISZERO PUSH2 0x18F7 JUMPI JUMPDEST PUSH3 0x10000 DUP2 LT ISZERO PUSH2 0x18EA JUMPI JUMPDEST PUSH2 0x100 DUP2 LT ISZERO PUSH2 0x18DE JUMPI JUMPDEST PUSH1 0x10 DUP2 LT ISZERO PUSH2 0x18D2 JUMPI JUMPDEST LT ISZERO PUSH2 0x18CB JUMPI JUMPDEST PUSH1 0x3 MUL DUP2 SHR PUSH2 0x1879 DUP2 DUP6 PUSH2 0x161D JUMP JUMPDEST ADD DUP2 SHR PUSH2 0x1886 DUP2 DUP6 PUSH2 0x161D JUMP JUMPDEST ADD DUP2 SHR PUSH2 0x1893 DUP2 DUP6 PUSH2 0x161D JUMP JUMPDEST ADD DUP2 SHR PUSH2 0x18A0 DUP2 DUP6 PUSH2 0x161D JUMP JUMPDEST ADD DUP2 SHR PUSH2 0x18AD DUP2 DUP6 PUSH2 0x161D JUMP JUMPDEST ADD DUP2 SHR PUSH2 0x18BA DUP2 DUP6 PUSH2 0x161D JUMP JUMPDEST ADD SWAP1 SHR DUP1 SWAP3 PUSH2 0x161D JUMP JUMPDEST DUP2 GT SWAP1 SUB SWAP1 JUMP JUMPDEST DUP2 SHL PUSH2 0x186A JUMP JUMPDEST DUP2 SHR SWAP2 PUSH1 0x2 SHL SWAP2 PUSH2 0x1863 JUMP JUMPDEST PUSH1 0x8 SHR SWAP2 DUP2 SHL SWAP2 PUSH2 0x1859 JUMP JUMPDEST PUSH1 0x10 SHR SWAP2 PUSH1 0x8 SHL SWAP2 PUSH2 0x184E JUMP JUMPDEST PUSH1 0x20 SHR SWAP2 PUSH1 0x10 SHL SWAP2 PUSH2 0x1842 JUMP JUMPDEST PUSH1 0x40 SHR SWAP2 PUSH1 0x20 SHL SWAP2 PUSH2 0x1834 JUMP JUMPDEST POP PUSH1 0x1 PUSH1 0x40 SHL SWAP1 POP PUSH1 0x80 DUP5 SWAP1 SHR PUSH2 0x1824 JUMP JUMPDEST POP SWAP1 JUMP JUMPDEST PUSH1 0x1 PUSH1 0x1 PUSH1 0xA0 SHL SUB AND SWAP1 DUP2 ISZERO PUSH2 0x16E9 JUMPI PUSH32 0xDDF252AD1BE2C89B69C2B068FC378DAA952BA7F163C4A11628F55A4DF523B3EF PUSH1 0x20 DUP3 PUSH2 0x1969 PUSH1 0x0 SWAP5 PUSH1 0x2 SLOAD PUSH2 0x1732 JUMP JUMPDEST PUSH1 0x2 SSTORE DUP5 DUP5 MSTORE DUP4 DUP3 MSTORE PUSH1 0x40 DUP5 KECCAK256 DUP2 DUP2 SLOAD ADD SWAP1 SSTORE PUSH1 0x40 MLOAD SWAP1 DUP2 MSTORE LOG3 JUMP JUMPDEST SWAP1 SWAP3 SWAP2 PUSH1 0x1 PUSH1 0x1 PUSH1 0x70 SHL SUB SWAP3 DUP4 DUP4 GT ISZERO DUP1 PUSH2 0x1B33 JUMPI JUMPDEST ISZERO PUSH2 0x1AFA JUMPI PUSH4 0xFFFFFFFF PUSH1 0x5 SLOAD PUSH1 0xE0 SHR DUP2 TIMESTAMP AND SUB DUP2 DUP2 GT PUSH2 0xCAF JUMPI AND DUP1 ISZERO ISZERO DUP1 PUSH2 0x1AEF JUMPI JUMPDEST DUP1 PUSH2 0x1AE4 JUMPI JUMPDEST PUSH2 0x1A37 JUMPI JUMPDEST POP POP POP PUSH1 0x70 SWAP3 DUP4 SHL PUSH14 0xFFFFFFFFFFFFFFFFFFFFFFFFFFFF PUSH1 0x70 SHL AND SWAP1 DUP3 AND SWAP1 DUP2 OR TIMESTAMP PUSH1 0xE0 SHL PUSH1 0x1 PUSH1 0x1 PUSH1 0xE0 SHL SUB NOT AND OR PUSH1 0x5 DUP2 SWAP1 SSTORE PUSH1 0x40 DUP1 MLOAD SWAP3 DUP4 MSTORE SWAP4 SHR SWAP1 SWAP2 AND PUSH1 0x20 DUP3 ADD MSTORE PUSH32 0x1C411E9A96E071241C2F21F7726B17AE89E3CAB4C78BE50E062B03A9FFFBBAD1 SWAP2 SWAP1 LOG1 JUMP JUMPDEST SWAP1 SWAP4 SWAP2 SWAP5 SWAP3 DUP3 DUP6 AND SWAP5 PUSH1 0x1 PUSH1 0x1 PUSH1 0x70 SHL SUB PUSH1 0x70 SHL DUP1 SWAP2 PUSH1 0x70 SHL AND SWAP1 PUSH1 0x1 PUSH1 0x70 SHL SWAP8 DUP8 DUP4 DIV DUP10 EQ DUP9 ISZERO OR ISZERO PUSH2 0xCAF JUMPI PUSH2 0x1A86 PUSH2 0x1A7E DUP7 PUSH2 0x1A79 DUP10 DUP6 AND DUP1 SWAP8 PUSH2 0x161D JUMP JUMPDEST PUSH2 0x160A JUMP JUMPDEST PUSH1 0x6 SLOAD PUSH2 0x1732 JUMP JUMPDEST PUSH1 0x6 SSTORE PUSH1 0x70 SHL AND SWAP7 DUP2 DUP9 DIV EQ SWAP1 ISZERO OR ISZERO PUSH2 0xCAF JUMPI PUSH2 0x1AD7 PUSH2 0x1ACF DUP5 SWAP4 PUSH2 0x1A79 PUSH1 0x40 SWAP9 PUSH32 0x1C411E9A96E071241C2F21F7726B17AE89E3CAB4C78BE50E062B03A9FFFBBAD1 SWAP11 PUSH2 0x161D JUMP JUMPDEST PUSH1 0x7 SLOAD PUSH2 0x1732 JUMP JUMPDEST PUSH1 0x7 SSTORE SWAP3 SWAP5 DUP2 SWAP5 POP PUSH2 0x19CB JUMP JUMPDEST POP DUP5 DUP3 AND ISZERO ISZERO PUSH2 0x19C6 JUMP JUMPDEST POP DUP5 DUP4 AND ISZERO ISZERO PUSH2 0x19C0 JUMP JUMPDEST PUSH1 0x40 MLOAD PUSH3 0x461BCD PUSH1 0xE5 SHL DUP2 MSTORE PUSH1 0x20 PUSH1 0x4 DUP3 ADD MSTORE PUSH1 0x11 PUSH1 0x24 DUP3 ADD MSTORE PUSH17 0x444558506169723A204F564552464C4F57 PUSH1 0x78 SHL PUSH1 0x44 DUP3 ADD MSTORE PUSH1 0x64 SWAP1 REVERT JUMPDEST POP DUP4 DUP6 GT ISZERO PUSH2 0x199B JUMP JUMPDEST PUSH1 0x40 MLOAD PUSH4 0xA9059CBB PUSH1 0xE0 SHL PUSH1 0x0 SWAP1 DUP2 MSTORE PUSH1 0x1 PUSH1 0x1 PUSH1 0xA0 SHL SUB SWAP4 DUP5 AND PUSH1 0x4 MSTORE PUSH1 0x24 SWAP5 SWAP1 SWAP5 MSTORE SWAP3 PUSH1 0x20 SWAP1 PUSH1 0x44 DUP2 DUP1 DUP6 GAS CALL PUSH1 0x1 PUSH1 0x0 MLOAD EQ DUP2 AND ISZERO PUSH2 0x1B9E JUMPI JUMPDEST DUP4 PUSH1 0x40 MSTORE ISZERO PUSH2 0x1B88 JUMPI POP POP POP JUMP JUMPDEST PUSH4 0x5274AFE7 PUSH1 0xE0 SHL DUP4 MSTORE AND PUSH1 0x4 DUP3 ADD MSTORE PUSH1 0x24 SWAP2 POP REVERT JUMPDEST PUSH1 0x1 DUP2 ISZERO AND PUSH2 0x1BB4 JUMPI DUP2 EXTCODESIZE ISZERO ISZERO RETURNDATASIZE ISZERO AND AND PUSH2 0x1B7A JUMP JUMPDEST DUP4 RETURNDATASIZE PUSH1 0x0 DUP3 RETURNDATACOPY RETURNDATASIZE SWAP1 REVERT JUMPDEST PUSH1 0x40 DUP1 MLOAD PUSH3 0x2FCFCB PUSH1 0xE3 SHL PUSH1 0x20 DUP3 ADD SWAP1 DUP2 MSTORE PUSH1 0x4 DUP3 MSTORE SWAP2 PUSH8 0xFFFFFFFFFFFFFFFF SWAP2 SWAP1 DUP2 ADD DUP3 DUP2 GT DUP3 DUP3 LT OR PUSH2 0x15D1 JUMPI PUSH1 0x40 MSTORE PUSH1 0x0 DUP1 SWAP4 DUP2 SWAP3 MLOAD SWAP1 PUSH32 0x0 GAS STATICCALL RETURNDATASIZE ISZERO PUSH2 0x1CA3 JUMPI RETURNDATASIZE SWAP2 DUP3 GT PUSH2 0x1C8F JUMPI PUSH1 0x40 MLOAD SWAP2 PUSH2 0x1C41 PUSH1 0x1F DUP3 ADD PUSH1 0x1F NOT AND PUSH1 0x20 ADD DUP5 PUSH2 0x15AF JUMP JUMPDEST DUP3 MSTORE RETURNDATASIZE DUP4 PUSH1 0x20 DUP5 ADD RETURNDATACOPY JUMPDEST ISZERO DUP1 ISZERO PUSH2 0x1C86 JUMPI JUMPDEST PUSH2 0x1923 JUMPI PUSH1 0x20 DUP2 DUP1 MLOAD DUP2 ADD SUB SLT PUSH2 0x1C82 JUMPI PUSH1 0x20 ADD MLOAD PUSH1 0x1 PUSH1 0x1 PUSH1 0xA0 SHL SUB DUP2 AND SWAP2 SWAP1 DUP3 SWAP1 SUB PUSH2 0x1C7F JUMPI POP SWAP1 JUMP JUMPDEST DUP1 REVERT JUMPDEST POP DUP1 REVERT JUMPDEST POP DUP1 MLOAD ISZERO PUSH2 0x1C53 JUMP JUMPDEST PUSH4 0x4E487B71 PUSH1 0xE0 SHL DUP4 MSTORE PUSH1 0x41 PUSH1 0x4 MSTORE PUSH1 0x24 DUP4 REVERT JUMPDEST PUSH1 0x60 SWAP2 POP PUSH2 0x1C4B JUMP INVALID SWAP12 PUSH24 0x9B17422D0DF92223018B32B4D1FA46E071723D6817E2486D STOP EXTCODESIZE 0xEC 0xC5 PUSH0 STOP LOG2 PUSH5 0x6970667358 0x22 SLT KECCAK256 0xC6 NOT PUSH19 0xA38AADDBF246ED420A73ECA1E448D53FBD6747 0xBA STATICCALL 0xE3 BASEFEE CHAINID STATICCALL 0xC0 0xED 0x2D 0x23 PUSH5 0x736F6C6343 STOP ADDMOD XOR STOP CALLER "},"methodIdentifiers":{"MINIMUM_LIQUIDITY()":"ba9a7a56","allowance(address,address)":"dd62ed3e","approve(address,uint256)":"095ea7b3","balanceOf(address)":"70a08231","burn(address)":"89afcb44","decimals()":"313ce567","factory()":"c45a0155","getReserves()":"0902f1ac","kLast()":"7464fc3d","mint(address)":"6a627842","name()":"06fdde03","price0CumulativeLast()":"5909c0d5","price1CumulativeLast()":"5a3d5493","swap(uint256,uint256,address)":"6d9a640a","symbol()":"95d89b41","sync()":"fff6cae9","token0()":"0dfe1681","token1()":"d21220a7","totalSupply()":"18160ddd","transfer(address,uint256)":"a9059cbb","transferFrom(address,address,uint256)":"23b872dd"}}}}}