{"contracts/core/DEXRouter.sol":{"DEXRouter":{"abi":[{"inputs":[{"internalType":"address","name":"_factory","type":"address"}],"stateMutability":"nonpayable","type":"constructor"},{"inputs":[],"name":"Expired","type":"error"},{"inputs":[],"name":"InsufficientAAmount","type":"error"},{"inputs":[],"name":"InsufficientBAmount","type":"error"},{"inputs":[],"name":"InsufficientInputAmount","type":"error"},{"inputs":[],"name":"InsufficientOutputAmount","type":"error"},{"inputs":[],"name":"InvalidPath","type":"error"},{"inputs":[],"name":"PairNotFound","type":"error"},{"inputs":[{"internalType":"address","name":"token","type":"address"}],"name":"SafeERC20FailedOperation","type":"error"},{"inputs":[{"internalType":"address","name":"tokenA","type":"address"},{"internalType":"address","name":"tokenB","type":"address"},{"internalType":"uint256","name":"amountADesired","type":"uint256"},{"internalType":"uint256","name":"amountBDesired","type":"uint256"},{"internalType":"uint256","name":"amountAMin","type":"uint256"},{"internalType":"uint256","name":"amountBMin","type":"uint256"},{"internalType":"address","name":"to","type":"address"},{"internalType":"uint256","name":"deadline","type":"uint256"}],"name":"addLiquidity","outputs":[{"internalType":"uint256","name":"amountA","type":"uint256"},{"internalType":"uint256","name":"amountB","type":"uint256"},{"internalType":"uint256","name":"liquidity","type":"uint256"}],"stateMutability":"nonpayable","type":"function"},{"inputs":[],"name":"factory","outputs":[{"internalType":"contract DEXFactory","name":"","type":"address"}],"stateMutability":"view","type":"function"},{"inputs":[{"internalType":"uint256","name":"amountOut","type":"uint256"},{"internalType":"uint256","name":"reserveIn","type":"uint256"},{"internalType":"uint256","name":"reserveOut","type":"uint256"}],"name":"getAmountIn","outputs":[{"internalType":"uint256","name":"amountIn","type":"uint256"}],"stateMutability":"pure","type":"function"},{"inputs":[{"internalType":"uint256","name":"amountIn","type":"uint256"},{"internalType":"uint256","name":"reserveIn","type":"uint256"},{"internalType":"uint256","name":"reserveOut","type":"uint256"}],"name":"getAmountOut","outputs":[{"internalType":"uint256","name":"amountOut","type":"uint256"}],"stateMutability":"pure","type":"function"},{"inputs":[{"internalType":"uint256","name":"amountOut","type":"uint256"},{"internalType":"address[]","name":"path","type":"address[]"}],"name":"getAmountsIn","outputs":[{"internalType":"uint256[]","name":"amounts","type":"uint256[]"}],"stateMutability":"view","type":"function"},{"inputs":[{"internalType":"uint256","name":"amountIn","type":"uint256"},{"internalType":"address[]","name":"path","type":"address[]"}],"name":"getAmountsOut","outputs":[{"internalType":"uint256[]","name":"amounts","type":"uint256[]"}],"stateMutability":"view","type":"function"},{"inputs":[{"internalType":"uint256","name":"amountA","type":"uint256"},{"internalType":"uint256","name":"reserveA","type":"uint256"},{"internalType":"uint256","name":"reserveB","type":"uint256"}],"name":"quote","outputs":[{"internalType":"uint256","name":"amountB","type":"uint256"}],"stateMutability":"pure","type":"function"},{"inputs":[{"internalType":"address","name":"tokenA","type":"address"},{"internalType":"address","name":"tokenB","type":"address"},{"internalType":"uint256","name":"liquidity","type":"uint256"},{"internalType":"uint256","name":"amountAMin","type":"uint256"},{"internalType":"uint256","name":"amountBMin","type":"uint256"},{"internalType":"address","name":"to","type":"address"},{"internalType":"uint256","name":"deadline","type":"uint256"}],"name":"removeLiquidity","outputs":[{"internalType":"uint256","name":"amountA","type":"uint256"},{"internalType":"uint256","name":"amountB","type":"uint256"}],"stateMutability":"nonpayable","type":"function"},{"inputs":[{"internalType":"uint256","name":"amountIn","type":"uint256"},{"internalType":"uint256","name":"amountOutMin","type":"uint256"},{"internalType":"address[]","name":"path","type":"address[]"},{"internalType":"address","name":"to","type":"address"},{"internalType":"uint256","name":"deadline","type":"uint256"}],"name":"swapExactTokensForTokens","outputs":[{"internalType":"uint256[]","name":"amounts","type":"uint256[]"}],"stateMutability":"nonpayable","type":"function"},{"inputs":[{"internalType":"uint256","name":"amountOut","type":"uint256"},{"internalType":"uint256","name":"amountInMax","type":"uint256"},{"internalType":"address[]","name":"path","type":"address[]"},{"internalType":"address","name":"to","type":"address"},{"internalType":"uint256","name":"deadline","type":"uint256"}],"name":"swapTokensForExactTokens","outputs":[{"internalType":"uint256[]","name":"amounts","type":"uint256[]"}],"stateMutability":"nonpayable","type":"function"}],"evm":{"bytecode":{"linkReferences":{},"object":"60a03461009d57601f61148438819003918201601f19168301916001600160401b038311848410176100a25780849260209460405283398101031261009d57516001600160a01b0381169081900361009d576080526040516113cb90816100b98239608051818181610109015281816104480152818161067c01528181610b8401528181610e1801528181611116015281816111ce01526113270152f35b600080fd5b634e487b7160e01b600052604160045260246000fdfe6040608081526004908136101561001557600080fd5b600090813560e01c8063054d50d4146108075780631f00ca74146107eb57806338ed17391461076957806385f8c2591461074e5780638803dbee146105ce578063ad615dec146105a7578063baa2abde14610477578063c45a015514610434578063d06ca61f146104095763e8e337001461008f57600080fd5b3461040557610100366003190112610405576100a96108e2565b906100b26108f8565b916001600160a01b039060c435828116906044359060643590839003610401574260e435106103f157855163e6a4390560e01b81526001600160a01b038086168b83019081529089166020828101919091529592917f00000000000000000000000000000000000000000000000000000000000000008816918790829081906040010381855afa908115610349578c92858d8b8b958f9583916103d4575b501615610353575b50905089935061016892506112f9565b1697875196630240bc6b60e21b88526060888d818d5afa918215610349578b988c93610311575b508116931696838810918260001461030a57815b6001600160701b03928316931561030357505b168115806102fb575b1561025d575050986101e5859493896024946101de829d9e9a8b949e8f915b3390610fe2565b89875198899485936335313c2160e11b85528401525af193841561025357869461021c575b50606095508251948552840152820152f35b9080945081813d831161024c575b6102348183610a01565b81010312610248576060955051923861020a565b8580fd5b503d61022a565b83513d88823e3d90fd5b6102738261026e838896959661095d565b610986565b928284116102b35750505060a43581106102a357986101e5859493896024946101de829d9e9a8b949e8f916101de565b865163ef71d09160e01b81528a90fd5b8261026e929396506102c5945061095d565b9160843583106102eb57986101e5859493896024946101de829d9e9a8b949e8f916101de565b8651638dc525d160e01b81528a90fd5b5080156101bf565b90506101b6565b80916101a3565b82995061033791935060603d606011610342575b61032f8183610a01565b810190610b11565b50989098929061018f565b503d610325565b89513d8d823e3d90fd5b8c516364e329cb60e11b81526001600160a01b039283169681019687529190931660208601529384928391829060400103925af180156103ca5761039d575b85898c92858d610158565b6103bc90863d88116103c3575b6103b48183610a01565b810190610ade565b5038610392565b503d6103aa565b88513d8c823e3d90fd5b6103eb9150873d89116103c3576103b48183610a01565b38610150565b8551630407b05b60e31b81528990fd5b8780fd5b5080fd5b5034610405576104309061042561041f36610872565b91610dee565b9051918291826108a6565b0390f35b5034610405578160031936011261040557517f00000000000000000000000000000000000000000000000000000000000000006001600160a01b03168152602090f35b5091346104055760e0366003190112610405576104926108e2565b61049a6108f8565b6001600160a01b039060a43582811690819003610248574260c435106105975790868392602486956104cd858b996112f9565b16916104dd604435843381610fe2565b8351978893849263226bf2d160e21b84528b8401525af195861561058c5780948197610554575b505081169116101561054e5791905b6064358310610540576084358210610532575082519182526020820152f35b835163ef71d09160e01b8152fd5b8351638dc525d160e01b8152fd5b90610513565b88809298508196503d8311610585575b61056e8183610a01565b810103126102485783516020909401519582610504565b503d610564565b8751903d90823e3d90fd5b8651630407b05b60e31b81528590fd5b5034610405576020906105c761026e6105bf36610822565b90929161095d565b9051908152f35b5082903461074a576105df3661090e565b96919396949094421161073b5783836105f792610b47565b9561060187610a83565b511161072d57821561071a576001600160a01b03908161062084610aca565b169161062b84610aca565b8560011015610707579160209161067893610647848801610aca565b8a5163e6a4390560e01b81526001600160a01b03928316948101948552911660208401529384928391829160400190565b03917f0000000000000000000000000000000000000000000000000000000000000000165afa9081156106fd57916106ce916106d4969594936104309a916106de575b506106c589610a83565b51913390610fe2565b8561106f565b51918291826108a6565b6106f7915060203d6020116103c3576103b48183610a01565b8a6106bb565b86513d8a823e3d90fd5b634e487b7160e01b8a526032835260248afd5b634e487b7160e01b875260329052602486fd5b845163098fb56160e01b8152fd5b508451630407b05b60e31b8152fd5b8280fd5b5034610405576020906105c761076336610822565b91610d82565b5082903461074a5761077a3661090e565b96919396949094421161073b57838361079292610dee565b95865160001981019081116107d8576107ab9088610aa6565b51106107ca57821561071a576001600160a01b03908161062084610aca565b84516342301c2360e01b8152fd5b634e487b7160e01b895260118352602489fd5b5034610405576104309061042561080136610872565b91610b47565b5034610405576020906105c761081c36610822565b916109a6565b606090600319011261083c57600435906024359060443590565b600080fd5b9181601f8401121561083c5782359167ffffffffffffffff831161083c576020808501948460051b01011161083c57565b90604060031983011261083c57600435916024359067ffffffffffffffff821161083c576108a291600401610841565b9091565b602090602060408183019282815285518094520193019160005b8281106108ce575050505090565b8351855293810193928101926001016108c0565b600435906001600160a01b038216820361083c57565b602435906001600160a01b038216820361083c57565b60a060031982011261083c5760043591602435916044359067ffffffffffffffff821161083c5761094191600401610841565b90916064356001600160a01b038116810361083c579060843590565b8181029291811591840414171561097057565b634e487b7160e01b600052601160045260246000fd5b8115610990570490565b634e487b7160e01b600052601260045260246000fd5b9182156109ef576103e580840293840403610970576109c5908361095d565b916103e891828102928184041490151715610970578101809111610970576109ec91610986565b90565b60405163098fb56160e01b8152600490fd5b90601f8019910116810190811067ffffffffffffffff821117610a2357604052565b634e487b7160e01b600052604160045260246000fd5b67ffffffffffffffff8111610a235760051b60200190565b90610a5b82610a39565b610a686040519182610a01565b8281528092610a79601f1991610a39565b0190602036910137565b805115610a905760200190565b634e487b7160e01b600052603260045260246000fd5b8051821015610a905760209160051b010190565b9190811015610a905760051b0190565b356001600160a01b038116810361083c5790565b9081602091031261083c57516001600160a01b038116810361083c5790565b51906001600160701b038216820361083c57565b9081606091031261083c57610b2581610afd565b916040610b3460208401610afd565b92015163ffffffff8116810361083c5790565b90929160028110610d7057610b5b81610a51565b93600019928284019083821161097057610b788288959495610aa6565b526001600160a01b03917f0000000000000000000000000000000000000000000000000000000000000000831691805b610bb457505050505050565b858101818111610cc957610bd1610bcc828589610aba565b610aca565b610bdf610bcc84868a610aba565b6040805163e6a4390560e01b81526001600160a01b03938416600480830191909152929093166024840152909160209081816044818b5afa918215610d655790899291600092610d48575b505016918215610d3a57815192838092630240bc6b60e21b825260609586935afa918215610d305750610cba92610cb392868b8f948a898e926000978897610cf5575b5050610bcc8583610c86610bcc610c8c9588978a610aba565b96610aba565b1691161015610cde57610cad91926001600160701b03809116931693610aa6565b51610d82565b918a610aa6565b528015610cc957850180610ba8565b60246000634e487b7160e01b81526011600452fd5b610cad916001600160701b03809116931693610aa6565b610bcc9850610c8c9297508493610c86610d20610bcc94848b95903d106103425761032f8183610a01565b509b909b9a955050509350610c6d565b513d6000823e3d90fd5b905163d719ab6960e01b8152fd5b610d5e9250803d106103c3576103b48183610a01565b3880610c2a565b83513d6000823e3d90fd5b6040516320db826760e01b8152600490fd5b908115610ddc5781610d939161095d565b916103e8928381029381850414901517156109705781810391818311610970576103e5808402938404149114171561097057610dce91610986565b600181018091116109705790565b6040516342301c2360e01b8152600490fd5b90919260028410610d705791610e0384610a51565b91610e0d83610a83565b526001600160a01b037f000000000000000000000000000000000000000000000000000000000000000081169160005b600019870187811161097057811015610fda57610e5e610bcc828985610aba565b600182019081831161097057610e78610bcc838b87610aba565b6040805163e6a4390560e01b81526001600160a01b039384166004808301919091529290931660248401529160209081816044818c5afa918215610fcf5790889291600092610fb2575b505016908115610fa457825191828092630240bc6b60e21b825260609485935afa928315610d3057508392610f4e92878988978f60019a610f47976000968798610f67575b5050839282610c86610bcc610bcc94610f20968a610aba565b1691161015610f55576001600160701b0391821691165b610f41868c610aa6565b516109a6565b9188610aa6565b5201610e3d565b6001600160701b039081169116610f37565b610bcc929850610bcc975092610c86610f9287969386610f2097903d106103425761032f8183610a01565b509990999a9450505092819450610f07565b825163d719ab6960e01b8152fd5b610fc89250803d106103c3576103b48183610a01565b3880610ec2565b84513d6000823e3d90fd5b505050509150565b6040516323b872dd60e01b60009081526001600160a01b03938416600452938316602452604494909452909160209060648180855af160016000511481161561104f575b8360405260006060521561103957505050565b635274afe760e01b835216600482015260249150fd5b600181151661106557813b15153d151616611026565b833d6000823e3d90fd5b909392919360005b6000198601868111610970578110156112f157611098610bcc828885610aba565b60018201821161097057611112906110b7610bcc600185018a87610aba565b6110c46001850187610aa6565b51906001600160a01b0380821690841610156112e557602090600092935b60405163e6a4390560e01b81526001600160a01b0391821660048201529116602482015293849081906044820190565b03817f00000000000000000000000000000000000000000000000000000000000000006001600160a01b03165afa928315611292576000936112c4575b50886001198101116109705760011989018410156112bd57611178610bcc600186018b88610aba565b6002850185116109705760206111ca9161119a610bcc8d60028a01908b610aba565b60405163e6a4390560e01b81526001600160a01b0392831660048201529116602482015291829081906044820190565b03817f00000000000000000000000000000000000000000000000000000000000000006001600160a01b03165afa9081156112925760009161129e575b50925b6001600160a01b031692833b1561083c5760646000928360405196879485936336cd320560e11b855260048501526024978885015260018060a01b031660448401525af1801561129257611263575b5050600101611077565b67ffffffffffffffff821161127e5750604052600138611259565b634e487b7160e01b60009081526041600452fd5b6040513d6000823e3d90fd5b6112b7915060203d6020116103c3576103b48183610a01565b38611207565b869261120a565b6112de91935060203d6020116103c3576103b48183610a01565b913861114f565b600092602091906110e2565b505050509050565b60405163e6a4390560e01b81526001600160a01b0391821660048201529181166024830152906020816044817f000000000000000000000000000000000000000000000000000000000000000086165afa90811561129257600091611376575b501680156113645790565b60405163d719ab6960e01b8152600490fd5b61138f915060203d6020116103c3576103b48183610a01565b3861135956fea264697066735822122023e9760733c31f3782fafe7329446e7b84d2d92da9bc1a2c54fe31f8447d73e064736f6c63430008180033","opcodes":"PUSH1 0xA0 CALLVALUE PUSH2 0x9D JUMPI PUSH1 0x1F PUSH2 0x1484 CODESIZE DUP2 SWAP1 SUB SWAP2 DUP3 ADD PUSH1 0x1F NOT AND DUP4 ADD SWAP2 PUSH1 0x1 PUSH1 0x1 PUSH1 0x40 SHL SUB DUP4 GT DUP5 DUP5 LT OR PUSH2 0xA2 JUMPI DUP1 DUP5 SWAP3 PUSH1 0x20 SWAP5 PUSH1 0x40 MSTORE DUP4 CODECOPY DUP2 ADD SUB SLT PUSH2 0x9D JUMPI MLOAD PUSH1 0x1 PUSH1 0x1 PUSH1 0xA0 SHL SUB DUP2 AND SWAP1 DUP2 SWAP1 SUB PUSH2 0x9D JUMPI PUSH1 0x80 MSTORE PUSH1 0x40 MLOAD PUSH2 0x13CB SWAP1 DUP2 PUSH2 0xB9 DUP3 CODECOPY PUSH1 0x80 MLOAD DUP2 DUP2 DUP2 PUSH2 0x109 ADD MSTORE DUP2 DUP2 PUSH2 0x448 ADD MSTORE DUP2 DUP2 PUSH2 0x67C ADD MSTORE DUP2 DUP2 PUSH2 0xB84 ADD MSTORE DUP2 DUP2 PUSH2 0xE18 ADD MSTORE DUP2 DUP2 PUSH2 0x1116 ADD MSTORE DUP2 DUP2 PUSH2 0x11CE ADD MSTORE PUSH2 0x1327 ADD MSTORE RETURN JUMPDEST PUSH1 0x0 DUP1 REVERT JUMPDEST PUSH4 0x4E487B71 PUSH1 0xE0 SHL PUSH1 0x0 MSTORE PUSH1 0x41 PUSH1 0x4 MSTORE PUSH1 0x24 PUSH1 0x0 REVERT INVALID PUSH1 0x40 PUSH1 0x80 DUP2 MSTORE PUSH1 0x4 SWAP1 DUP2 CALLDATASIZE LT ISZERO PUSH2 0x15 JUMPI PUSH1 0x0 DUP1 REVERT JUMPDEST PUSH1 0x0 SWAP1 DUP2 CALLDATALOAD PUSH1 0xE0 SHR DUP1 PUSH4 0x54D50D4 EQ PUSH2 0x807 JUMPI DUP1 PUSH4 0x1F00CA74 EQ PUSH2 0x7EB JUMPI DUP1 PUSH4 0x38ED1739 EQ PUSH2 0x769 JUMPI DUP1 PUSH4 0x85F8C259 EQ PUSH2 0x74E JUMPI DUP1 PUSH4 0x8803DBEE EQ PUSH2 0x5CE JUMPI DUP1 PUSH4 0xAD615DEC EQ PUSH2 0x5A7 JUMPI DUP1 PUSH4 0xBAA2ABDE EQ PUSH2 0x477 JUMPI DUP1 PUSH4 0xC45A0155 EQ PUSH2 0x434 JUMPI DUP1 PUSH4 0xD06CA61F EQ PUSH2 0x409 JUMPI PUSH4 0xE8E33700 EQ PUSH2 0x8F JUMPI PUSH1 0x0 DUP1 REVERT JUMPDEST CALLVALUE PUSH2 0x405 JUMPI PUSH2 0x100 CALLDATASIZE PUSH1 0x3 NOT ADD SLT PUSH2 0x405 JUMPI PUSH2 0xA9 PUSH2 0x8E2 JUMP JUMPDEST SWAP1 PUSH2 0xB2 PUSH2 0x8F8 JUMP JUMPDEST SWAP2 PUSH1 0x1 PUSH1 0x1 PUSH1 0xA0 SHL SUB SWAP1 PUSH1 0xC4 CALLDATALOAD DUP3 DUP2 AND SWAP1 PUSH1 0x44 CALLDATALOAD SWAP1 PUSH1 0x64 CALLDATALOAD SWAP1 DUP4 SWAP1 SUB PUSH2 0x401 JUMPI TIMESTAMP PUSH1 0xE4 CALLDATALOAD LT PUSH2 0x3F1 JUMPI DUP6 MLOAD PUSH4 0xE6A43905 PUSH1 0xE0 SHL DUP2 MSTORE PUSH1 0x1 PUSH1 0x1 PUSH1 0xA0 SHL SUB DUP1 DUP7 AND DUP12 DUP4 ADD SWAP1 DUP2 MSTORE SWAP1 DUP10 AND PUSH1 0x20 DUP3 DUP2 ADD SWAP2 SWAP1 SWAP2 MSTORE SWAP6 SWAP3 SWAP2 PUSH32 0x0 DUP9 AND SWAP2 DUP8 SWAP1 DUP3 SWAP1 DUP2 SWAP1 PUSH1 0x40 ADD SUB DUP2 DUP6 GAS STATICCALL SWAP1 DUP2 ISZERO PUSH2 0x349 JUMPI DUP13 SWAP3 DUP6 DUP14 DUP12 DUP12 SWAP6 DUP16 SWAP6 DUP4 SWAP2 PUSH2 0x3D4 JUMPI JUMPDEST POP AND ISZERO PUSH2 0x353 JUMPI JUMPDEST POP SWAP1 POP DUP10 SWAP4 POP PUSH2 0x168 SWAP3 POP PUSH2 0x12F9 JUMP JUMPDEST AND SWAP8 DUP8 MLOAD SWAP7 PUSH4 0x240BC6B PUSH1 0xE2 SHL DUP9 MSTORE PUSH1 0x60 DUP9 DUP14 DUP2 DUP14 GAS STATICCALL SWAP2 DUP3 ISZERO PUSH2 0x349 JUMPI DUP12 SWAP9 DUP13 SWAP4 PUSH2 0x311 JUMPI JUMPDEST POP DUP2 AND SWAP4 AND SWAP7 DUP4 DUP9 LT SWAP2 DUP3 PUSH1 0x0 EQ PUSH2 0x30A JUMPI DUP2 JUMPDEST PUSH1 0x1 PUSH1 0x1 PUSH1 0x70 SHL SUB SWAP3 DUP4 AND SWAP4 ISZERO PUSH2 0x303 JUMPI POP JUMPDEST AND DUP2 ISZERO DUP1 PUSH2 0x2FB JUMPI JUMPDEST ISZERO PUSH2 0x25D JUMPI POP POP SWAP9 PUSH2 0x1E5 DUP6 SWAP5 SWAP4 DUP10 PUSH1 0x24 SWAP5 PUSH2 0x1DE DUP3 SWAP14 SWAP15 SWAP11 DUP12 SWAP5 SWAP15 DUP16 SWAP2 JUMPDEST CALLER SWAP1 PUSH2 0xFE2 JUMP JUMPDEST DUP10 DUP8 MLOAD SWAP9 DUP10 SWAP5 DUP6 SWAP4 PUSH4 0x35313C21 PUSH1 0xE1 SHL DUP6 MSTORE DUP5 ADD MSTORE GAS CALL SWAP4 DUP5 ISZERO PUSH2 0x253 JUMPI DUP7 SWAP5 PUSH2 0x21C JUMPI JUMPDEST POP PUSH1 0x60 SWAP6 POP DUP3 MLOAD SWAP5 DUP6 MSTORE DUP5 ADD MSTORE DUP3 ADD MSTORE RETURN JUMPDEST SWAP1 DUP1 SWAP5 POP DUP2 DUP2 RETURNDATASIZE DUP4 GT PUSH2 0x24C JUMPI JUMPDEST PUSH2 0x234 DUP2 DUP4 PUSH2 0xA01 JUMP JUMPDEST DUP2 ADD SUB SLT PUSH2 0x248 JUMPI PUSH1 0x60 SWAP6 POP MLOAD SWAP3 CODESIZE PUSH2 0x20A JUMP JUMPDEST DUP6 DUP1 REVERT JUMPDEST POP RETURNDATASIZE PUSH2 0x22A JUMP JUMPDEST DUP4 MLOAD RETURNDATASIZE DUP9 DUP3 RETURNDATACOPY RETURNDATASIZE SWAP1 REVERT JUMPDEST PUSH2 0x273 DUP3 PUSH2 0x26E DUP4 DUP9 SWAP7 SWAP6 SWAP7 PUSH2 0x95D JUMP JUMPDEST PUSH2 0x986 JUMP JUMPDEST SWAP3 DUP3 DUP5 GT PUSH2 0x2B3 JUMPI POP POP POP PUSH1 0xA4 CALLDATALOAD DUP2 LT PUSH2 0x2A3 JUMPI SWAP9 PUSH2 0x1E5 DUP6 SWAP5 SWAP4 DUP10 PUSH1 0x24 SWAP5 PUSH2 0x1DE DUP3 SWAP14 SWAP15 SWAP11 DUP12 SWAP5 SWAP15 DUP16 SWAP2 PUSH2 0x1DE JUMP JUMPDEST DUP7 MLOAD PUSH4 0xEF71D091 PUSH1 0xE0 SHL DUP2 MSTORE DUP11 SWAP1 REVERT JUMPDEST DUP3 PUSH2 0x26E SWAP3 SWAP4 SWAP7 POP PUSH2 0x2C5 SWAP5 POP PUSH2 0x95D JUMP JUMPDEST SWAP2 PUSH1 0x84 CALLDATALOAD DUP4 LT PUSH2 0x2EB JUMPI SWAP9 PUSH2 0x1E5 DUP6 SWAP5 SWAP4 DUP10 PUSH1 0x24 SWAP5 PUSH2 0x1DE DUP3 SWAP14 SWAP15 SWAP11 DUP12 SWAP5 SWAP15 DUP16 SWAP2 PUSH2 0x1DE JUMP JUMPDEST DUP7 MLOAD PUSH4 0x8DC525D1 PUSH1 0xE0 SHL DUP2 MSTORE DUP11 SWAP1 REVERT JUMPDEST POP DUP1 ISZERO PUSH2 0x1BF JUMP JUMPDEST SWAP1 POP PUSH2 0x1B6 JUMP JUMPDEST DUP1 SWAP2 PUSH2 0x1A3 JUMP JUMPDEST DUP3 SWAP10 POP PUSH2 0x337 SWAP2 SWAP4 POP PUSH1 0x60 RETURNDATASIZE PUSH1 0x60 GT PUSH2 0x342 JUMPI JUMPDEST PUSH2 0x32F DUP2 DUP4 PUSH2 0xA01 JUMP JUMPDEST DUP2 ADD SWAP1 PUSH2 0xB11 JUMP JUMPDEST POP SWAP9 SWAP1 SWAP9 SWAP3 SWAP1 PUSH2 0x18F JUMP JUMPDEST POP RETURNDATASIZE PUSH2 0x325 JUMP JUMPDEST DUP10 MLOAD RETURNDATASIZE DUP14 DUP3 RETURNDATACOPY RETURNDATASIZE SWAP1 REVERT JUMPDEST DUP13 MLOAD PUSH4 0x64E329CB PUSH1 0xE1 SHL DUP2 MSTORE PUSH1 0x1 PUSH1 0x1 PUSH1 0xA0 SHL SUB SWAP3 DUP4 AND SWAP7 DUP2 ADD SWAP7 DUP8 MSTORE SWAP2 SWAP1 SWAP4 AND PUSH1 0x20 DUP7 ADD MSTORE SWAP4 DUP5 SWAP3 DUP4 SWAP2 DUP3 SWAP1 PUSH1 0x40 ADD SUB SWAP3 GAS CALL DUP1 ISZERO PUSH2 0x3CA JUMPI PUSH2 0x39D JUMPI JUMPDEST DUP6 DUP10 DUP13 SWAP3 DUP6 DUP14 PUSH2 0x158 JUMP JUMPDEST PUSH2 0x3BC SWAP1 DUP7 RETURNDATASIZE DUP9 GT PUSH2 0x3C3 JUMPI JUMPDEST PUSH2 0x3B4 DUP2 DUP4 PUSH2 0xA01 JUMP JUMPDEST DUP2 ADD SWAP1 PUSH2 0xADE JUMP JUMPDEST POP CODESIZE PUSH2 0x392 JUMP JUMPDEST POP RETURNDATASIZE PUSH2 0x3AA JUMP JUMPDEST DUP9 MLOAD RETURNDATASIZE DUP13 DUP3 RETURNDATACOPY RETURNDATASIZE SWAP1 REVERT JUMPDEST PUSH2 0x3EB SWAP2 POP DUP8 RETURNDATASIZE DUP10 GT PUSH2 0x3C3 JUMPI PUSH2 0x3B4 DUP2 DUP4 PUSH2 0xA01 JUMP JUMPDEST CODESIZE PUSH2 0x150 JUMP JUMPDEST DUP6 MLOAD PUSH4 0x407B05B PUSH1 0xE3 SHL DUP2 MSTORE DUP10 SWAP1 REVERT JUMPDEST DUP8 DUP1 REVERT JUMPDEST POP DUP1 REVERT JUMPDEST POP CALLVALUE PUSH2 0x405 JUMPI PUSH2 0x430 SWAP1 PUSH2 0x425 PUSH2 0x41F CALLDATASIZE PUSH2 0x872 JUMP JUMPDEST SWAP2 PUSH2 0xDEE JUMP JUMPDEST SWAP1 MLOAD SWAP2 DUP3 SWAP2 DUP3 PUSH2 0x8A6 JUMP JUMPDEST SUB SWAP1 RETURN JUMPDEST POP CALLVALUE PUSH2 0x405 JUMPI DUP2 PUSH1 0x3 NOT CALLDATASIZE ADD SLT PUSH2 0x405 JUMPI MLOAD PUSH32 0x0 PUSH1 0x1 PUSH1 0x1 PUSH1 0xA0 SHL SUB AND DUP2 MSTORE PUSH1 0x20 SWAP1 RETURN JUMPDEST POP SWAP2 CALLVALUE PUSH2 0x405 JUMPI PUSH1 0xE0 CALLDATASIZE PUSH1 0x3 NOT ADD SLT PUSH2 0x405 JUMPI PUSH2 0x492 PUSH2 0x8E2 JUMP JUMPDEST PUSH2 0x49A PUSH2 0x8F8 JUMP JUMPDEST PUSH1 0x1 PUSH1 0x1 PUSH1 0xA0 SHL SUB SWAP1 PUSH1 0xA4 CALLDATALOAD DUP3 DUP2 AND SWAP1 DUP2 SWAP1 SUB PUSH2 0x248 JUMPI TIMESTAMP PUSH1 0xC4 CALLDATALOAD LT PUSH2 0x597 JUMPI SWAP1 DUP7 DUP4 SWAP3 PUSH1 0x24 DUP7 SWAP6 PUSH2 0x4CD DUP6 DUP12 SWAP10 PUSH2 0x12F9 JUMP JUMPDEST AND SWAP2 PUSH2 0x4DD PUSH1 0x44 CALLDATALOAD DUP5 CALLER DUP2 PUSH2 0xFE2 JUMP JUMPDEST DUP4 MLOAD SWAP8 DUP9 SWAP4 DUP5 SWAP3 PUSH4 0x226BF2D1 PUSH1 0xE2 SHL DUP5 MSTORE DUP12 DUP5 ADD MSTORE GAS CALL SWAP6 DUP7 ISZERO PUSH2 0x58C JUMPI DUP1 SWAP5 DUP2 SWAP8 PUSH2 0x554 JUMPI JUMPDEST POP POP DUP2 AND SWAP2 AND LT ISZERO PUSH2 0x54E JUMPI SWAP2 SWAP1 JUMPDEST PUSH1 0x64 CALLDATALOAD DUP4 LT PUSH2 0x540 JUMPI PUSH1 0x84 CALLDATALOAD DUP3 LT PUSH2 0x532 JUMPI POP DUP3 MLOAD SWAP2 DUP3 MSTORE PUSH1 0x20 DUP3 ADD MSTORE RETURN JUMPDEST DUP4 MLOAD PUSH4 0xEF71D091 PUSH1 0xE0 SHL DUP2 MSTORE REVERT JUMPDEST DUP4 MLOAD PUSH4 0x8DC525D1 PUSH1 0xE0 SHL DUP2 MSTORE REVERT JUMPDEST SWAP1 PUSH2 0x513 JUMP JUMPDEST DUP9 DUP1 SWAP3 SWAP9 POP DUP2 SWAP7 POP RETURNDATASIZE DUP4 GT PUSH2 0x585 JUMPI JUMPDEST PUSH2 0x56E DUP2 DUP4 PUSH2 0xA01 JUMP JUMPDEST DUP2 ADD SUB SLT PUSH2 0x248 JUMPI DUP4 MLOAD PUSH1 0x20 SWAP1 SWAP5 ADD MLOAD SWAP6 DUP3 PUSH2 0x504 JUMP JUMPDEST POP RETURNDATASIZE PUSH2 0x564 JUMP JUMPDEST DUP8 MLOAD SWAP1 RETURNDATASIZE SWAP1 DUP3 RETURNDATACOPY RETURNDATASIZE SWAP1 REVERT JUMPDEST DUP7 MLOAD PUSH4 0x407B05B PUSH1 0xE3 SHL DUP2 MSTORE DUP6 SWAP1 REVERT JUMPDEST POP CALLVALUE PUSH2 0x405 JUMPI PUSH1 0x20 SWAP1 PUSH2 0x5C7 PUSH2 0x26E PUSH2 0x5BF CALLDATASIZE PUSH2 0x822 JUMP JUMPDEST SWAP1 SWAP3 SWAP2 PUSH2 0x95D JUMP JUMPDEST SWAP1 MLOAD SWAP1 DUP2 MSTORE RETURN JUMPDEST POP DUP3 SWAP1 CALLVALUE PUSH2 0x74A JUMPI PUSH2 0x5DF CALLDATASIZE PUSH2 0x90E JUMP JUMPDEST SWAP7 SWAP2 SWAP4 SWAP7 SWAP5 SWAP1 SWAP5 TIMESTAMP GT PUSH2 0x73B JUMPI DUP4 DUP4 PUSH2 0x5F7 SWAP3 PUSH2 0xB47 JUMP JUMPDEST SWAP6 PUSH2 0x601 DUP8 PUSH2 0xA83 JUMP JUMPDEST MLOAD GT PUSH2 0x72D JUMPI DUP3 ISZERO PUSH2 0x71A JUMPI PUSH1 0x1 PUSH1 0x1 PUSH1 0xA0 SHL SUB SWAP1 DUP2 PUSH2 0x620 DUP5 PUSH2 0xACA JUMP JUMPDEST AND SWAP2 PUSH2 0x62B DUP5 PUSH2 0xACA JUMP JUMPDEST DUP6 PUSH1 0x1 LT ISZERO PUSH2 0x707 JUMPI SWAP2 PUSH1 0x20 SWAP2 PUSH2 0x678 SWAP4 PUSH2 0x647 DUP5 DUP9 ADD PUSH2 0xACA JUMP JUMPDEST DUP11 MLOAD PUSH4 0xE6A43905 PUSH1 0xE0 SHL DUP2 MSTORE PUSH1 0x1 PUSH1 0x1 PUSH1 0xA0 SHL SUB SWAP3 DUP4 AND SWAP5 DUP2 ADD SWAP5 DUP6 MSTORE SWAP2 AND PUSH1 0x20 DUP5 ADD MSTORE SWAP4 DUP5 SWAP3 DUP4 SWAP2 DUP3 SWAP2 PUSH1 0x40 ADD SWAP1 JUMP JUMPDEST SUB SWAP2 PUSH32 0x0 AND GAS STATICCALL SWAP1 DUP2 ISZERO PUSH2 0x6FD JUMPI SWAP2 PUSH2 0x6CE SWAP2 PUSH2 0x6D4 SWAP7 SWAP6 SWAP5 SWAP4 PUSH2 0x430 SWAP11 SWAP2 PUSH2 0x6DE JUMPI JUMPDEST POP PUSH2 0x6C5 DUP10 PUSH2 0xA83 JUMP JUMPDEST MLOAD SWAP2 CALLER SWAP1 PUSH2 0xFE2 JUMP JUMPDEST DUP6 PUSH2 0x106F JUMP JUMPDEST MLOAD SWAP2 DUP3 SWAP2 DUP3 PUSH2 0x8A6 JUMP JUMPDEST PUSH2 0x6F7 SWAP2 POP PUSH1 0x20 RETURNDATASIZE PUSH1 0x20 GT PUSH2 0x3C3 JUMPI PUSH2 0x3B4 DUP2 DUP4 PUSH2 0xA01 JUMP JUMPDEST DUP11 PUSH2 0x6BB JUMP JUMPDEST DUP7 MLOAD RETURNDATASIZE DUP11 DUP3 RETURNDATACOPY RETURNDATASIZE SWAP1 REVERT JUMPDEST PUSH4 0x4E487B71 PUSH1 0xE0 SHL DUP11 MSTORE PUSH1 0x32 DUP4 MSTORE PUSH1 0x24 DUP11 REVERT JUMPDEST PUSH4 0x4E487B71 PUSH1 0xE0 SHL DUP8 MSTORE PUSH1 0x32 SWAP1 MSTORE PUSH1 0x24 DUP7 REVERT JUMPDEST DUP5 MLOAD PUSH4 0x98FB561 PUSH1 0xE0 SHL DUP2 MSTORE REVERT JUMPDEST POP DUP5 MLOAD PUSH4 0x407B05B PUSH1 0xE3 SHL DUP2 MSTORE REVERT JUMPDEST DUP3 DUP1 REVERT JUMPDEST POP CALLVALUE PUSH2 0x405 JUMPI PUSH1 0x20 SWAP1 PUSH2 0x5C7 PUSH2 0x763 CALLDATASIZE PUSH2 0x822 JUMP JUMPDEST SWAP2 PUSH2 0xD82 JUMP JUMPDEST POP DUP3 SWAP1 CALLVALUE PUSH2 0x74A JUMPI PUSH2 0x77A CALLDATASIZE PUSH2 0x90E JUMP JUMPDEST SWAP7 SWAP2 SWAP4 SWAP7 SWAP5 SWAP1 SWAP5 TIMESTAMP GT PUSH2 0x73B JUMPI DUP4 DUP4 PUSH2 0x792 SWAP3 PUSH2 0xDEE JUMP JUMPDEST SWAP6 DUP7 MLOAD PUSH1 0x0 NOT DUP2 ADD SWAP1 DUP2 GT PUSH2 0x7D8 JUMPI PUSH2 0x7AB SWAP1 DUP9 PUSH2 0xAA6 JUMP JUMPDEST MLOAD LT PUSH2 0x7CA JUMPI DUP3 ISZERO PUSH2 0x71A JUMPI PUSH1 0x1 PUSH1 0x1 PUSH1 0xA0 SHL SUB SWAP1 DUP2 PUSH2 0x620 DUP5 PUSH2 0xACA JUMP JUMPDEST DUP5 MLOAD PUSH4 0x42301C23 PUSH1 0xE0 SHL DUP2 MSTORE REVERT JUMPDEST PUSH4 0x4E487B71 PUSH1 0xE0 SHL DUP10 MSTORE PUSH1 0x11 DUP4 MSTORE PUSH1 0x24 DUP10 REVERT JUMPDEST POP CALLVALUE PUSH2 0x405 JUMPI PUSH2 0x430 SWAP1 PUSH2 0x425 PUSH2 0x801 CALLDATASIZE PUSH2 0x872 JUMP JUMPDEST SWAP2 PUSH2 0xB47 JUMP JUMPDEST POP CALLVALUE PUSH2 0x405 JUMPI PUSH1 0x20 SWAP1 PUSH2 0x5C7 PUSH2 0x81C CALLDATASIZE PUSH2 0x822 JUMP JUMPDEST SWAP2 PUSH2 0x9A6 JUMP JUMPDEST PUSH1 0x60 SWAP1 PUSH1 0x3 NOT ADD SLT PUSH2 0x83C JUMPI PUSH1 0x4 CALLDATALOAD SWAP1 PUSH1 0x24 CALLDATALOAD SWAP1 PUSH1 0x44 CALLDATALOAD SWAP1 JUMP JUMPDEST PUSH1 0x0 DUP1 REVERT JUMPDEST SWAP2 DUP2 PUSH1 0x1F DUP5 ADD SLT ISZERO PUSH2 0x83C JUMPI DUP3 CALLDATALOAD SWAP2 PUSH8 0xFFFFFFFFFFFFFFFF DUP4 GT PUSH2 0x83C JUMPI PUSH1 0x20 DUP1 DUP6 ADD SWAP5 DUP5 PUSH1 0x5 SHL ADD ADD GT PUSH2 0x83C JUMPI JUMP JUMPDEST SWAP1 PUSH1 0x40 PUSH1 0x3 NOT DUP4 ADD SLT PUSH2 0x83C JUMPI PUSH1 0x4 CALLDATALOAD SWAP2 PUSH1 0x24 CALLDATALOAD SWAP1 PUSH8 0xFFFFFFFFFFFFFFFF DUP3 GT PUSH2 0x83C JUMPI PUSH2 0x8A2 SWAP2 PUSH1 0x4 ADD PUSH2 0x841 JUMP JUMPDEST SWAP1 SWAP2 JUMP JUMPDEST PUSH1 0x20 SWAP1 PUSH1 0x20 PUSH1 0x40 DUP2 DUP4 ADD SWAP3 DUP3 DUP2 MSTORE DUP6 MLOAD DUP1 SWAP5 MSTORE ADD SWAP4 ADD SWAP2 PUSH1 0x0 JUMPDEST DUP3 DUP2 LT PUSH2 0x8CE JUMPI POP POP POP POP SWAP1 JUMP JUMPDEST DUP4 MLOAD DUP6 MSTORE SWAP4 DUP2 ADD SWAP4 SWAP3 DUP2 ADD SWAP3 PUSH1 0x1 ADD PUSH2 0x8C0 JUMP JUMPDEST PUSH1 0x4 CALLDATALOAD SWAP1 PUSH1 0x1 PUSH1 0x1 PUSH1 0xA0 SHL SUB DUP3 AND DUP3 SUB PUSH2 0x83C JUMPI JUMP JUMPDEST PUSH1 0x24 CALLDATALOAD SWAP1 PUSH1 0x1 PUSH1 0x1 PUSH1 0xA0 SHL SUB DUP3 AND DUP3 SUB PUSH2 0x83C JUMPI JUMP JUMPDEST PUSH1 0xA0 PUSH1 0x3 NOT DUP3 ADD SLT PUSH2 0x83C JUMPI PUSH1 0x4 CALLDATALOAD SWAP2 PUSH1 0x24 CALLDATALOAD SWAP2 PUSH1 0x44 CALLDATALOAD SWAP1 PUSH8 0xFFFFFFFFFFFFFFFF DUP3 GT PUSH2 0x83C JUMPI PUSH2 0x941 SWAP2 PUSH1 0x4 ADD PUSH2 0x841 JUMP JUMPDEST SWAP1 SWAP2 PUSH1 0x64 CALLDATALOAD PUSH1 0x1 PUSH1 0x1 PUSH1 0xA0 SHL SUB DUP2 AND DUP2 SUB PUSH2 0x83C JUMPI SWAP1 PUSH1 0x84 CALLDATALOAD SWAP1 JUMP JUMPDEST DUP2 DUP2 MUL SWAP3 SWAP2 DUP2 ISZERO SWAP2 DUP5 DIV EQ OR ISZERO PUSH2 0x970 JUMPI JUMP JUMPDEST PUSH4 0x4E487B71 PUSH1 0xE0 SHL PUSH1 0x0 MSTORE PUSH1 0x11 PUSH1 0x4 MSTORE PUSH1 0x24 PUSH1 0x0 REVERT JUMPDEST DUP2 ISZERO PUSH2 0x990 JUMPI DIV SWAP1 JUMP JUMPDEST PUSH4 0x4E487B71 PUSH1 0xE0 SHL PUSH1 0x0 MSTORE PUSH1 0x12 PUSH1 0x4 MSTORE PUSH1 0x24 PUSH1 0x0 REVERT JUMPDEST SWAP2 DUP3 ISZERO PUSH2 0x9EF JUMPI PUSH2 0x3E5 DUP1 DUP5 MUL SWAP4 DUP5 DIV SUB PUSH2 0x970 JUMPI PUSH2 0x9C5 SWAP1 DUP4 PUSH2 0x95D JUMP JUMPDEST SWAP2 PUSH2 0x3E8 SWAP2 DUP3 DUP2 MUL SWAP3 DUP2 DUP5 DIV EQ SWAP1 ISZERO OR ISZERO PUSH2 0x970 JUMPI DUP2 ADD DUP1 SWAP2 GT PUSH2 0x970 JUMPI PUSH2 0x9EC SWAP2 PUSH2 0x986 JUMP JUMPDEST SWAP1 JUMP JUMPDEST PUSH1 0x40 MLOAD PUSH4 0x98FB561 PUSH1 0xE0 SHL DUP2 MSTORE PUSH1 0x4 SWAP1 REVERT JUMPDEST SWAP1 PUSH1 0x1F DUP1 NOT SWAP2 ADD AND DUP2 ADD SWAP1 DUP2 LT PUSH8 0xFFFFFFFFFFFFFFFF DUP3 GT OR PUSH2 0xA23 JUMPI PUSH1 0x40 MSTORE JUMP JUMPDEST PUSH4 0x4E487B71 PUSH1 0xE0 SHL PUSH1 0x0 MSTORE PUSH1 0x41 PUSH1 0x4 MSTORE PUSH1 0x24 PUSH1 0x0 REVERT JUMPDEST PUSH8 0xFFFFFFFFFFFFFFFF DUP2 GT PUSH2 0xA23 JUMPI PUSH1 0x5 SHL PUSH1 0x20 ADD SWAP1 JUMP JUMPDEST SWAP1 PUSH2 0xA5B DUP3 PUSH2 0xA39 JUMP JUMPDEST PUSH2 0xA68 PUSH1 0x40 MLOAD SWAP2 DUP3 PUSH2 0xA01 JUMP JUMPDEST DUP3 DUP2 MSTORE DUP1 SWAP3 PUSH2 0xA79 PUSH1 0x1F NOT SWAP2 PUSH2 0xA39 JUMP JUMPDEST ADD SWAP1 PUSH1 0x20 CALLDATASIZE SWAP2 ADD CALLDATACOPY JUMP JUMPDEST DUP1 MLOAD ISZERO PUSH2 0xA90 JUMPI PUSH1 0x20 ADD SWAP1 JUMP JUMPDEST PUSH4 0x4E487B71 PUSH1 0xE0 SHL PUSH1 0x0 MSTORE PUSH1 0x32 PUSH1 0x4 MSTORE PUSH1 0x24 PUSH1 0x0 REVERT JUMPDEST DUP1 MLOAD DUP3 LT ISZERO PUSH2 0xA90 JUMPI PUSH1 0x20 SWAP2 PUSH1 0x5 SHL ADD ADD SWAP1 JUMP JUMPDEST SWAP2 SWAP1 DUP2 LT ISZERO PUSH2 0xA90 JUMPI PUSH1 0x5 SHL ADD SWAP1 JUMP JUMPDEST CALLDATALOAD PUSH1 0x1 PUSH1 0x1 PUSH1 0xA0 SHL SUB DUP2 AND DUP2 SUB PUSH2 0x83C JUMPI SWAP1 JUMP JUMPDEST SWAP1 DUP2 PUSH1 0x20 SWAP2 SUB SLT PUSH2 0x83C JUMPI MLOAD PUSH1 0x1 PUSH1 0x1 PUSH1 0xA0 SHL SUB DUP2 AND DUP2 SUB PUSH2 0x83C JUMPI SWAP1 JUMP JUMPDEST MLOAD SWAP1 PUSH1 0x1 PUSH1 0x1 PUSH1 0x70 SHL SUB DUP3 AND DUP3 SUB PUSH2 0x83C JUMPI JUMP JUMPDEST SWAP1 DUP2 PUSH1 0x60 SWAP2 SUB SLT PUSH2 0x83C JUMPI PUSH2 0xB25 DUP2 PUSH2 0xAFD JUMP JUMPDEST SWAP2 PUSH1 0x40 PUSH2 0xB34 PUSH1 0x20 DUP5 ADD PUSH2 0xAFD JUMP JUMPDEST SWAP3 ADD MLOAD PUSH4 0xFFFFFFFF DUP2 AND DUP2 SUB PUSH2 0x83C JUMPI SWAP1 JUMP JUMPDEST SWAP1 SWAP3 SWAP2 PUSH1 0x2 DUP2 LT PUSH2 0xD70 JUMPI PUSH2 0xB5B DUP2 PUSH2 0xA51 JUMP JUMPDEST SWAP4 PUSH1 0x0 NOT SWAP3 DUP3 DUP5 ADD SWAP1 DUP4 DUP3 GT PUSH2 0x970 JUMPI PUSH2 0xB78 DUP3 DUP9 SWAP6 SWAP5 SWAP6 PUSH2 0xAA6 JUMP JUMPDEST MSTORE PUSH1 0x1 PUSH1 0x1 PUSH1 0xA0 SHL SUB SWAP2 PUSH32 0x0 DUP4 AND SWAP2 DUP1 JUMPDEST PUSH2 0xBB4 JUMPI POP POP POP POP POP POP JUMP JUMPDEST DUP6 DUP2 ADD DUP2 DUP2 GT PUSH2 0xCC9 JUMPI PUSH2 0xBD1 PUSH2 0xBCC DUP3 DUP6 DUP10 PUSH2 0xABA JUMP JUMPDEST PUSH2 0xACA JUMP JUMPDEST PUSH2 0xBDF PUSH2 0xBCC DUP5 DUP7 DUP11 PUSH2 0xABA JUMP JUMPDEST PUSH1 0x40 DUP1 MLOAD PUSH4 0xE6A43905 PUSH1 0xE0 SHL DUP2 MSTORE PUSH1 0x1 PUSH1 0x1 PUSH1 0xA0 SHL SUB SWAP4 DUP5 AND PUSH1 0x4 DUP1 DUP4 ADD SWAP2 SWAP1 SWAP2 MSTORE SWAP3 SWAP1 SWAP4 AND PUSH1 0x24 DUP5 ADD MSTORE SWAP1 SWAP2 PUSH1 0x20 SWAP1 DUP2 DUP2 PUSH1 0x44 DUP2 DUP12 GAS STATICCALL SWAP2 DUP3 ISZERO PUSH2 0xD65 JUMPI SWAP1 DUP10 SWAP3 SWAP2 PUSH1 0x0 SWAP3 PUSH2 0xD48 JUMPI JUMPDEST POP POP AND SWAP2 DUP3 ISZERO PUSH2 0xD3A JUMPI DUP2 MLOAD SWAP3 DUP4 DUP1 SWAP3 PUSH4 0x240BC6B PUSH1 0xE2 SHL DUP3 MSTORE PUSH1 0x60 SWAP6 DUP7 SWAP4 GAS STATICCALL SWAP2 DUP3 ISZERO PUSH2 0xD30 JUMPI POP PUSH2 0xCBA SWAP3 PUSH2 0xCB3 SWAP3 DUP7 DUP12 DUP16 SWAP5 DUP11 DUP10 DUP15 SWAP3 PUSH1 0x0 SWAP8 DUP9 SWAP8 PUSH2 0xCF5 JUMPI JUMPDEST POP POP PUSH2 0xBCC DUP6 DUP4 PUSH2 0xC86 PUSH2 0xBCC PUSH2 0xC8C SWAP6 DUP9 SWAP8 DUP11 PUSH2 0xABA JUMP JUMPDEST SWAP7 PUSH2 0xABA JUMP JUMPDEST AND SWAP2 AND LT ISZERO PUSH2 0xCDE JUMPI PUSH2 0xCAD SWAP2 SWAP3 PUSH1 0x1 PUSH1 0x1 PUSH1 0x70 SHL SUB DUP1 SWAP2 AND SWAP4 AND SWAP4 PUSH2 0xAA6 JUMP JUMPDEST MLOAD PUSH2 0xD82 JUMP JUMPDEST SWAP2 DUP11 PUSH2 0xAA6 JUMP JUMPDEST MSTORE DUP1 ISZERO PUSH2 0xCC9 JUMPI DUP6 ADD DUP1 PUSH2 0xBA8 JUMP JUMPDEST PUSH1 0x24 PUSH1 0x0 PUSH4 0x4E487B71 PUSH1 0xE0 SHL DUP2 MSTORE PUSH1 0x11 PUSH1 0x4 MSTORE REVERT JUMPDEST PUSH2 0xCAD SWAP2 PUSH1 0x1 PUSH1 0x1 PUSH1 0x70 SHL SUB DUP1 SWAP2 AND SWAP4 AND SWAP4 PUSH2 0xAA6 JUMP JUMPDEST PUSH2 0xBCC SWAP9 POP PUSH2 0xC8C SWAP3 SWAP8 POP DUP5 SWAP4 PUSH2 0xC86 PUSH2 0xD20 PUSH2 0xBCC SWAP5 DUP5 DUP12 SWAP6 SWAP1 RETURNDATASIZE LT PUSH2 0x342 JUMPI PUSH2 0x32F DUP2 DUP4 PUSH2 0xA01 JUMP JUMPDEST POP SWAP12 SWAP1 SWAP12 SWAP11 SWAP6 POP POP POP SWAP4 POP PUSH2 0xC6D JUMP JUMPDEST MLOAD RETURNDATASIZE PUSH1 0x0 DUP3 RETURNDATACOPY RETURNDATASIZE SWAP1 REVERT JUMPDEST SWAP1 MLOAD PUSH4 0xD719AB69 PUSH1 0xE0 SHL DUP2 MSTORE REVERT JUMPDEST PUSH2 0xD5E SWAP3 POP DUP1 RETURNDATASIZE LT PUSH2 0x3C3 JUMPI PUSH2 0x3B4 DUP2 DUP4 PUSH2 0xA01 JUMP JUMPDEST CODESIZE DUP1 PUSH2 0xC2A JUMP JUMPDEST DUP4 MLOAD RETURNDATASIZE PUSH1 0x0 DUP3 RETURNDATACOPY RETURNDATASIZE SWAP1 REVERT JUMPDEST PUSH1 0x40 MLOAD PUSH4 0x20DB8267 PUSH1 0xE0 SHL DUP2 MSTORE PUSH1 0x4 SWAP1 REVERT JUMPDEST SWAP1 DUP2 ISZERO PUSH2 0xDDC JUMPI DUP2 PUSH2 0xD93 SWAP2 PUSH2 0x95D JUMP JUMPDEST SWAP2 PUSH2 0x3E8 SWAP3 DUP4 DUP2 MUL SWAP4 DUP2 DUP6 DIV EQ SWAP1 ISZERO OR ISZERO PUSH2 0x970 JUMPI DUP2 DUP2 SUB SWAP2 DUP2 DUP4 GT PUSH2 0x970 JUMPI PUSH2 0x3E5 DUP1 DUP5 MUL SWAP4 DUP5 DIV EQ SWAP2 EQ OR ISZERO PUSH2 0x970 JUMPI PUSH2 0xDCE SWAP2 PUSH2 0x986 JUMP JUMPDEST PUSH1 0x1 DUP2 ADD DUP1 SWAP2 GT PUSH2 0x970 JUMPI SWAP1 JUMP JUMPDEST PUSH1 0x40 MLOAD PUSH4 0x42301C23 PUSH1 0xE0 SHL DUP2 MSTORE PUSH1 0x4 SWAP1 REVERT JUMPDEST SWAP1 SWAP2 SWAP3 PUSH1 0x2 DUP5 LT PUSH2 0xD70 JUMPI SWAP2 PUSH2 0xE03 DUP5 PUSH2 0xA51 JUMP JUMPDEST SWAP2 PUSH2 0xE0D DUP4 PUSH2 0xA83 JUMP JUMPDEST MSTORE PUSH1 0x1 PUSH1 0x1 PUSH1 0xA0 SHL SUB PUSH32 0x0 DUP2 AND SWAP2 PUSH1 0x0 JUMPDEST PUSH1 0x0 NOT DUP8 ADD DUP8 DUP2 GT PUSH2 0x970 JUMPI DUP2 LT ISZERO PUSH2 0xFDA JUMPI PUSH2 0xE5E PUSH2 0xBCC DUP3 DUP10 DUP6 PUSH2 0xABA JUMP JUMPDEST PUSH1 0x1 DUP3 ADD SWAP1 DUP2 DUP4 GT PUSH2 0x970 JUMPI PUSH2 0xE78 PUSH2 0xBCC DUP4 DUP12 DUP8 PUSH2 0xABA JUMP JUMPDEST PUSH1 0x40 DUP1 MLOAD PUSH4 0xE6A43905 PUSH1 0xE0 SHL DUP2 MSTORE PUSH1 0x1 PUSH1 0x1 PUSH1 0xA0 SHL SUB SWAP4 DUP5 AND PUSH1 0x4 DUP1 DUP4 ADD SWAP2 SWAP1 SWAP2 MSTORE SWAP3 SWAP1 SWAP4 AND PUSH1 0x24 DUP5 ADD MSTORE SWAP2 PUSH1 0x20 SWAP1 DUP2 DUP2 PUSH1 0x44 DUP2 DUP13 GAS STATICCALL SWAP2 DUP3 ISZERO PUSH2 0xFCF JUMPI SWAP1 DUP9 SWAP3 SWAP2 PUSH1 0x0 SWAP3 PUSH2 0xFB2 JUMPI JUMPDEST POP POP AND SWAP1 DUP2 ISZERO PUSH2 0xFA4 JUMPI DUP3 MLOAD SWAP2 DUP3 DUP1 SWAP3 PUSH4 0x240BC6B PUSH1 0xE2 SHL DUP3 MSTORE PUSH1 0x60 SWAP5 DUP6 SWAP4 GAS STATICCALL SWAP3 DUP4 ISZERO PUSH2 0xD30 JUMPI POP DUP4 SWAP3 PUSH2 0xF4E SWAP3 DUP8 DUP10 DUP9 SWAP8 DUP16 PUSH1 0x1 SWAP11 PUSH2 0xF47 SWAP8 PUSH1 0x0 SWAP7 DUP8 SWAP9 PUSH2 0xF67 JUMPI JUMPDEST POP POP DUP4 SWAP3 DUP3 PUSH2 0xC86 PUSH2 0xBCC PUSH2 0xBCC SWAP5 PUSH2 0xF20 SWAP7 DUP11 PUSH2 0xABA JUMP JUMPDEST AND SWAP2 AND LT ISZERO PUSH2 0xF55 JUMPI PUSH1 0x1 PUSH1 0x1 PUSH1 0x70 SHL SUB SWAP2 DUP3 AND SWAP2 AND JUMPDEST PUSH2 0xF41 DUP7 DUP13 PUSH2 0xAA6 JUMP JUMPDEST MLOAD PUSH2 0x9A6 JUMP JUMPDEST SWAP2 DUP9 PUSH2 0xAA6 JUMP JUMPDEST MSTORE ADD PUSH2 0xE3D JUMP JUMPDEST PUSH1 0x1 PUSH1 0x1 PUSH1 0x70 SHL SUB SWAP1 DUP2 AND SWAP2 AND PUSH2 0xF37 JUMP JUMPDEST PUSH2 0xBCC SWAP3 SWAP9 POP PUSH2 0xBCC SWAP8 POP SWAP3 PUSH2 0xC86 PUSH2 0xF92 DUP8 SWAP7 SWAP4 DUP7 PUSH2 0xF20 SWAP8 SWAP1 RETURNDATASIZE LT PUSH2 0x342 JUMPI PUSH2 0x32F DUP2 DUP4 PUSH2 0xA01 JUMP JUMPDEST POP SWAP10 SWAP1 SWAP10 SWAP11 SWAP5 POP POP POP SWAP3 DUP2 SWAP5 POP PUSH2 0xF07 JUMP JUMPDEST DUP3 MLOAD PUSH4 0xD719AB69 PUSH1 0xE0 SHL DUP2 MSTORE REVERT JUMPDEST PUSH2 0xFC8 SWAP3 POP DUP1 RETURNDATASIZE LT PUSH2 0x3C3 JUMPI PUSH2 0x3B4 DUP2 DUP4 PUSH2 0xA01 JUMP JUMPDEST CODESIZE DUP1 PUSH2 0xEC2 JUMP JUMPDEST DUP5 MLOAD RETURNDATASIZE PUSH1 0x0 DUP3 RETURNDATACOPY RETURNDATASIZE SWAP1 REVERT JUMPDEST POP POP POP POP SWAP2 POP JUMP JUMPDEST PUSH1 0x40 MLOAD PUSH4 0x23B872DD PUSH1 0xE0 SHL PUSH1 0x0 SWAP1 DUP2 MSTORE PUSH1 0x1 PUSH1 0x1 PUSH1 0xA0 SHL SUB SWAP4 DUP5 AND PUSH1 0x4 MSTORE SWAP4 DUP4 AND PUSH1 0x24 MSTORE PUSH1 0x44 SWAP5 SWAP1 SWAP5 MSTORE SWAP1 SWAP2 PUSH1 0x20 SWAP1 PUSH1 0x64 DUP2 DUP1 DUP6 GAS CALL PUSH1 0x1 PUSH1 0x0 MLOAD EQ DUP2 AND ISZERO PUSH2 0x104F JUMPI JUMPDEST DUP4 PUSH1 0x40 MSTORE PUSH1 0x0 PUSH1 0x60 MSTORE ISZERO PUSH2 0x1039 JUMPI POP POP POP JUMP JUMPDEST PUSH4 0x5274AFE7 PUSH1 0xE0 SHL DUP4 MSTORE AND PUSH1 0x4 DUP3 ADD MSTORE PUSH1 0x24 SWAP2 POP REVERT JUMPDEST PUSH1 0x1 DUP2 ISZERO AND PUSH2 0x1065 JUMPI DUP2 EXTCODESIZE ISZERO ISZERO RETURNDATASIZE ISZERO AND AND PUSH2 0x1026 JUMP JUMPDEST DUP4 RETURNDATASIZE PUSH1 0x0 DUP3 RETURNDATACOPY RETURNDATASIZE SWAP1 REVERT JUMPDEST SWAP1 SWAP4 SWAP3 SWAP2 SWAP4 PUSH1 0x0 JUMPDEST PUSH1 0x0 NOT DUP7 ADD DUP7 DUP2 GT PUSH2 0x970 JUMPI DUP2 LT ISZERO PUSH2 0x12F1 JUMPI PUSH2 0x1098 PUSH2 0xBCC DUP3 DUP9 DUP6 PUSH2 0xABA JUMP JUMPDEST PUSH1 0x1 DUP3 ADD DUP3 GT PUSH2 0x970 JUMPI PUSH2 0x1112 SWAP1 PUSH2 0x10B7 PUSH2 0xBCC PUSH1 0x1 DUP6 ADD DUP11 DUP8 PUSH2 0xABA JUMP JUMPDEST PUSH2 0x10C4 PUSH1 0x1 DUP6 ADD DUP8 PUSH2 0xAA6 JUMP JUMPDEST MLOAD SWAP1 PUSH1 0x1 PUSH1 0x1 PUSH1 0xA0 SHL SUB DUP1 DUP3 AND SWAP1 DUP5 AND LT ISZERO PUSH2 0x12E5 JUMPI PUSH1 0x20 SWAP1 PUSH1 0x0 SWAP3 SWAP4 JUMPDEST PUSH1 0x40 MLOAD PUSH4 0xE6A43905 PUSH1 0xE0 SHL DUP2 MSTORE PUSH1 0x1 PUSH1 0x1 PUSH1 0xA0 SHL SUB SWAP2 DUP3 AND PUSH1 0x4 DUP3 ADD MSTORE SWAP2 AND PUSH1 0x24 DUP3 ADD MSTORE SWAP4 DUP5 SWAP1 DUP2 SWAP1 PUSH1 0x44 DUP3 ADD SWAP1 JUMP JUMPDEST SUB DUP2 PUSH32 0x0 PUSH1 0x1 PUSH1 0x1 PUSH1 0xA0 SHL SUB AND GAS STATICCALL SWAP3 DUP4 ISZERO PUSH2 0x1292 JUMPI PUSH1 0x0 SWAP4 PUSH2 0x12C4 JUMPI JUMPDEST POP DUP9 PUSH1 0x1 NOT DUP2 ADD GT PUSH2 0x970 JUMPI PUSH1 0x1 NOT DUP10 ADD DUP5 LT ISZERO PUSH2 0x12BD JUMPI PUSH2 0x1178 PUSH2 0xBCC PUSH1 0x1 DUP7 ADD DUP12 DUP9 PUSH2 0xABA JUMP JUMPDEST PUSH1 0x2 DUP6 ADD DUP6 GT PUSH2 0x970 JUMPI PUSH1 0x20 PUSH2 0x11CA SWAP2 PUSH2 0x119A PUSH2 0xBCC DUP14 PUSH1 0x2 DUP11 ADD SWAP1 DUP12 PUSH2 0xABA JUMP JUMPDEST PUSH1 0x40 MLOAD PUSH4 0xE6A43905 PUSH1 0xE0 SHL DUP2 MSTORE PUSH1 0x1 PUSH1 0x1 PUSH1 0xA0 SHL SUB SWAP3 DUP4 AND PUSH1 0x4 DUP3 ADD MSTORE SWAP2 AND PUSH1 0x24 DUP3 ADD MSTORE SWAP2 DUP3 SWAP1 DUP2 SWAP1 PUSH1 0x44 DUP3 ADD SWAP1 JUMP JUMPDEST SUB DUP2 PUSH32 0x0 PUSH1 0x1 PUSH1 0x1 PUSH1 0xA0 SHL SUB AND GAS STATICCALL SWAP1 DUP2 ISZERO PUSH2 0x1292 JUMPI PUSH1 0x0 SWAP2 PUSH2 0x129E JUMPI JUMPDEST POP SWAP3 JUMPDEST PUSH1 0x1 PUSH1 0x1 PUSH1 0xA0 SHL SUB AND SWAP3 DUP4 EXTCODESIZE ISZERO PUSH2 0x83C JUMPI PUSH1 0x64 PUSH1 0x0 SWAP3 DUP4 PUSH1 0x40 MLOAD SWAP7 DUP8 SWAP5 DUP6 SWAP4 PUSH4 0x36CD3205 PUSH1 0xE1 SHL DUP6 MSTORE PUSH1 0x4 DUP6 ADD MSTORE PUSH1 0x24 SWAP8 DUP9 DUP6 ADD MSTORE PUSH1 0x1 DUP1 PUSH1 0xA0 SHL SUB AND PUSH1 0x44 DUP5 ADD MSTORE GAS CALL DUP1 ISZERO PUSH2 0x1292 JUMPI PUSH2 0x1263 JUMPI JUMPDEST POP POP PUSH1 0x1 ADD PUSH2 0x1077 JUMP JUMPDEST PUSH8 0xFFFFFFFFFFFFFFFF DUP3 GT PUSH2 0x127E JUMPI POP PUSH1 0x40 MSTORE PUSH1 0x1 CODESIZE PUSH2 0x1259 JUMP JUMPDEST PUSH4 0x4E487B71 PUSH1 0xE0 SHL PUSH1 0x0 SWAP1 DUP2 MSTORE PUSH1 0x41 PUSH1 0x4 MSTORE REVERT JUMPDEST PUSH1 0x40 MLOAD RETURNDATASIZE PUSH1 0x0 DUP3 RETURNDATACOPY RETURNDATASIZE SWAP1 REVERT JUMPDEST PUSH2 0x12B7 SWAP2 POP PUSH1 0x20 RETURNDATASIZE PUSH1 0x20 GT PUSH2 0x3C3 JUMPI PUSH2 0x3B4 DUP2 DUP4 PUSH2 0xA01 JUMP JUMPDEST CODESIZE PUSH2 0x1207 JUMP JUMPDEST DUP7 SWAP3 PUSH2 0x120A JUMP JUMPDEST PUSH2 0x12DE SWAP2 SWAP4 POP PUSH1 0x20 RETURNDATASIZE PUSH1 0x20 GT PUSH2 0x3C3 JUMPI PUSH2 0x3B4 DUP2 DUP4 PUSH2 0xA01 JUMP JUMPDEST SWAP2 CODESIZE PUSH2 0x114F JUMP JUMPDEST PUSH1 0x0 SWAP3 PUSH1 0x20 SWAP2 SWAP1 PUSH2 0x10E2 JUMP JUMPDEST POP POP POP POP SWAP1 POP JUMP JUMPDEST PUSH1 0x40 MLOAD PUSH4 0xE6A43905 PUSH1 0xE0 SHL DUP2 MSTORE PUSH1 0x1 PUSH1 0x1 PUSH1 0xA0 SHL SUB SWAP2 DUP3 AND PUSH1 0x4 DUP3 ADD MSTORE SWAP2 DUP2 AND PUSH1 0x24 DUP4 ADD MSTORE SWAP1 PUSH1 0x20 DUP2 PUSH1 0x44 DUP2 PUSH32 0x0 DUP7 AND GAS STATICCALL SWAP1 DUP2 ISZERO PUSH2 0x1292 JUMPI PUSH1 0x0 SWAP2 PUSH2 0x1376 JUMPI JUMPDEST POP AND DUP1 ISZERO PUSH2 0x1364 JUMPI SWAP1 JUMP JUMPDEST PUSH1 0x40 MLOAD PUSH4 0xD719AB69 PUSH1 0xE0 SHL DUP2 MSTORE PUSH1 0x4 SWAP1 REVERT JUMPDEST PUSH2 0x138F SWAP2 POP PUSH1 0x20 RETURNDATASIZE PUSH1 0x20 GT PUSH2 0x3C3 JUMPI PUSH2 0x3B4 DUP2 DUP4 PUSH2 0xA01 JUMP JUMPDEST CODESIZE PUSH2 0x1359 JUMP INVALID LOG2 PUSH5 0x6970667358 0x22 SLT KECCAK256 0x23 0xE9 PUSH23 0x733C31F3782FAFE7329446E7B84D2D92DA9BC1A2C54FE BALANCE 0xF8 PREVRANDAO PUSH30 0x73E064736F6C634300081800330000000000000000000000000000000000 "},"methodIdentifiers":{"addLiquidity(address,address,uint256,uint256,uint256,uint256,address,uint256)":"e8e33700","factory()":"c45a0155","getAmountIn(uint256,uint256,uint256)":"85f8c259","getAmountOut(uint256,uint256,uint256)":"054d50d4","getAmountsIn(uint256,address[])":"1f00ca74","getAmountsOut(uint256,address[])":"d06ca61f","quote(uint256,uint256,uint256)":"ad615dec","removeLiquidity(address,address,uint256,uint256,uint256,address,uint256)":"baa2abde","swapExactTokensForTokens(uint256,uint256,address[],address,uint256)":"38ed1739","swapTokensForExactTokens(uint256,uint256,address[],address,uint256)":"8803dbee"}}}}}