{
  "_format": "hh-sol-artifact-1",
  "contractName": "DEXPair",
  "sourceName": "contracts/core/DEXPair.sol",
  "abi": [
    {
      "inputs": [
        {
          "internalType": "address",
          "name": "_token0",
          "type": "address"
        },
        {
          "internalType": "address",
          "name": "_token1",
          "type": "address"
        },
        {
          "internalType": "address",
          "name": "_factory",
          "type": "address"
        }
      ],
      "stateMutability": "nonpayable",
      "type": "constructor"
    },
    {
      "inputs": [
        {
          "internalType": "address",
          "name": "spender",
          "type": "address"
        },
        {
          "internalType": "uint256",
          "name": "allowance",
          "type": "uint256"
        },
        {
          "internalType": "uint256",
          "name": "needed",
          "type": "uint256"
        }
      ],
      "name": "ERC20InsufficientAllowance",
      "type": "error"
    },
    {
      "inputs": [
        {
          "internalType": "address",
          "name": "sender",
          "type": "address"
        },
        {
          "internalType": "uint256",
          "name": "balance",
          "type": "uint256"
        },
        {
          "internalType": "uint256",
          "name": "needed",
          "type": "uint256"
        }
      ],
      "name": "ERC20InsufficientBalance",
      "type": "error"
    },
    {
      "inputs": [
        {
          "internalType": "address",
          "name": "approver",
          "type": "address"
        }
      ],
      "name": "ERC20InvalidApprover",
      "type": "error"
    },
    {
      "inputs": [
        {
          "internalType": "address",
          "name": "receiver",
          "type": "address"
        }
      ],
      "name": "ERC20InvalidReceiver",
      "type": "error"
    },
    {
      "inputs": [
        {
          "internalType": "address",
          "name": "sender",
          "type": "address"
        }
      ],
      "name": "ERC20InvalidSender",
      "type": "error"
    },
    {
      "inputs": [
        {
          "internalType": "address",
          "name": "spender",
          "type": "address"
        }
      ],
      "name": "ERC20InvalidSpender",
      "type": "error"
    },
    {
      "inputs": [],
      "name": "ReentrancyGuardReentrantCall",
      "type": "error"
    },
    {
      "inputs": [
        {
          "internalType": "address",
          "name": "token",
          "type": "address"
        }
      ],
      "name": "SafeERC20FailedOperation",
      "type": "error"
    },
    {
      "anonymous": false,
      "inputs": [
        {
          "indexed": true,
          "internalType": "address",
          "name": "owner",
          "type": "address"
        },
        {
          "indexed": true,
          "internalType": "address",
          "name": "spender",
          "type": "address"
        },
        {
          "indexed": false,
          "internalType": "uint256",
          "name": "value",
          "type": "uint256"
        }
      ],
      "name": "Approval",
      "type": "event"
    },
    {
      "anonymous": false,
      "inputs": [
        {
          "indexed": true,
          "internalType": "address",
          "name": "sender",
          "type": "address"
        },
        {
          "indexed": false,
          "internalType": "uint256",
          "name": "amount0",
          "type": "uint256"
        },
        {
          "indexed": false,
          "internalType": "uint256",
          "name": "amount1",
          "type": "uint256"
        },
        {
          "indexed": true,
          "internalType": "address",
          "name": "to",
          "type": "address"
        }
      ],
      "name": "Burn",
      "type": "event"
    },
    {
      "anonymous": false,
      "inputs": [
        {
          "indexed": true,
          "internalType": "address",
          "name": "sender",
          "type": "address"
        },
        {
          "indexed": false,
          "internalType": "uint256",
          "name": "amount0",
          "type": "uint256"
        },
        {
          "indexed": false,
          "internalType": "uint256",
          "name": "amount1",
          "type": "uint256"
        }
      ],
      "name": "Mint",
      "type": "event"
    },
    {
      "anonymous": false,
      "inputs": [
        {
          "indexed": true,
          "internalType": "address",
          "name": "sender",
          "type": "address"
        },
        {
          "indexed": false,
          "internalType": "uint256",
          "name": "amount0In",
          "type": "uint256"
        },
        {
          "indexed": false,
          "internalType": "uint256",
          "name": "amount1In",
          "type": "uint256"
        },
        {
          "indexed": false,
          "internalType": "uint256",
          "name": "amount0Out",
          "type": "uint256"
        },
        {
          "indexed": false,
          "internalType": "uint256",
          "name": "amount1Out",
          "type": "uint256"
        },
        {
          "indexed": true,
          "internalType": "address",
          "name": "to",
          "type": "address"
        }
      ],
      "name": "Swap",
      "type": "event"
    },
    {
      "anonymous": false,
      "inputs": [
        {
          "indexed": false,
          "internalType": "uint112",
          "name": "reserve0",
          "type": "uint112"
        },
        {
          "indexed": false,
          "internalType": "uint112",
          "name": "reserve1",
          "type": "uint112"
        }
      ],
      "name": "Sync",
      "type": "event"
    },
    {
      "anonymous": false,
      "inputs": [
        {
          "indexed": true,
          "internalType": "address",
          "name": "from",
          "type": "address"
        },
        {
          "indexed": true,
          "internalType": "address",
          "name": "to",
          "type": "address"
        },
        {
          "indexed": false,
          "internalType": "uint256",
          "name": "value",
          "type": "uint256"
        }
      ],
      "name": "Transfer",
      "type": "event"
    },
    {
      "inputs": [],
      "name": "MINIMUM_LIQUIDITY",
      "outputs": [
        {
          "internalType": "uint256",
          "name": "",
          "type": "uint256"
        }
      ],
      "stateMutability": "view",
      "type": "function"
    },
    {
      "inputs": [
        {
          "internalType": "address",
          "name": "owner",
          "type": "address"
        },
        {
          "internalType": "address",
          "name": "spender",
          "type": "address"
        }
      ],
      "name": "allowance",
      "outputs": [
        {
          "internalType": "uint256",
          "name": "",
          "type": "uint256"
        }
      ],
      "stateMutability": "view",
      "type": "function"
    },
    {
      "inputs": [
        {
          "internalType": "address",
          "name": "spender",
          "type": "address"
        },
        {
          "internalType": "uint256",
          "name": "value",
          "type": "uint256"
        }
      ],
      "name": "approve",
      "outputs": [
        {
          "internalType": "bool",
          "name": "",
          "type": "bool"
        }
      ],
      "stateMutability": "nonpayable",
      "type": "function"
    },
    {
      "inputs": [
        {
          "internalType": "address",
          "name": "account",
          "type": "address"
        }
      ],
      "name": "balanceOf",
      "outputs": [
        {
          "internalType": "uint256",
          "name": "",
          "type": "uint256"
        }
      ],
      "stateMutability": "view",
      "type": "function"
    },
    {
      "inputs": [
        {
          "internalType": "address",
          "name": "to",
          "type": "address"
        }
      ],
      "name": "burn",
      "outputs": [
        {
          "internalType": "uint256",
          "name": "amount0",
          "type": "uint256"
        },
        {
          "internalType": "uint256",
          "name": "amount1",
          "type": "uint256"
        }
      ],
      "stateMutability": "nonpayable",
      "type": "function"
    },
    {
      "inputs": [],
      "name": "decimals",
      "outputs": [
        {
          "internalType": "uint8",
          "name": "",
          "type": "uint8"
        }
      ],
      "stateMutability": "view",
      "type": "function"
    },
    {
      "inputs": [],
      "name": "factory",
      "outputs": [
        {
          "internalType": "address",
          "name": "",
          "type": "address"
        }
      ],
      "stateMutability": "view",
      "type": "function"
    },
    {
      "inputs": [],
      "name": "getReserves",
      "outputs": [
        {
          "internalType": "uint112",
          "name": "_reserve0",
          "type": "uint112"
        },
        {
          "internalType": "uint112",
          "name": "_reserve1",
          "type": "uint112"
        },
        {
          "internalType": "uint32",
          "name": "_blockTimestampLast",
          "type": "uint32"
        }
      ],
      "stateMutability": "view",
      "type": "function"
    },
    {
      "inputs": [],
      "name": "kLast",
      "outputs": [
        {
          "internalType": "uint256",
          "name": "",
          "type": "uint256"
        }
      ],
      "stateMutability": "view",
      "type": "function"
    },
    {
      "inputs": [
        {
          "internalType": "address",
          "name": "to",
          "type": "address"
        }
      ],
      "name": "mint",
      "outputs": [
        {
          "internalType": "uint256",
          "name": "liquidity",
          "type": "uint256"
        }
      ],
      "stateMutability": "nonpayable",
      "type": "function"
    },
    {
      "inputs": [],
      "name": "name",
      "outputs": [
        {
          "internalType": "string",
          "name": "",
          "type": "string"
        }
      ],
      "stateMutability": "view",
      "type": "function"
    },
    {
      "inputs": [],
      "name": "price0CumulativeLast",
      "outputs": [
        {
          "internalType": "uint256",
          "name": "",
          "type": "uint256"
        }
      ],
      "stateMutability": "view",
      "type": "function"
    },
    {
      "inputs": [],
      "name": "price1CumulativeLast",
      "outputs": [
        {
          "internalType": "uint256",
          "name": "",
          "type": "uint256"
        }
      ],
      "stateMutability": "view",
      "type": "function"
    },
    {
      "inputs": [
        {
          "internalType": "uint256",
          "name": "amount0Out",
          "type": "uint256"
        },
        {
          "internalType": "uint256",
          "name": "amount1Out",
          "type": "uint256"
        },
        {
          "internalType": "address",
          "name": "to",
          "type": "address"
        }
      ],
      "name": "swap",
      "outputs": [],
      "stateMutability": "nonpayable",
      "type": "function"
    },
    {
      "inputs": [],
      "name": "symbol",
      "outputs": [
        {
          "internalType": "string",
          "name": "",
          "type": "string"
        }
      ],
      "stateMutability": "view",
      "type": "function"
    },
    {
      "inputs": [],
      "name": "sync",
      "outputs": [],
      "stateMutability": "nonpayable",
      "type": "function"
    },
    {
      "inputs": [],
      "name": "token0",
      "outputs": [
        {
          "internalType": "address",
          "name": "",
          "type": "address"
        }
      ],
      "stateMutability": "view",
      "type": "function"
    },
    {
      "inputs": [],
      "name": "token1",
      "outputs": [
        {
          "internalType": "address",
          "name": "",
          "type": "address"
        }
      ],
      "stateMutability": "view",
      "type": "function"
    },
    {
      "inputs": [],
      "name": "totalSupply",
      "outputs": [
        {
          "internalType": "uint256",
          "name": "",
          "type": "uint256"
        }
      ],
      "stateMutability": "view",
      "type": "function"
    },
    {
      "inputs": [
        {
          "internalType": "address",
          "name": "to",
          "type": "address"
        },
        {
          "internalType": "uint256",
          "name": "value",
          "type": "uint256"
        }
      ],
      "name": "transfer",
      "outputs": [
        {
          "internalType": "bool",
          "name": "",
          "type": "bool"
        }
      ],
      "stateMutability": "nonpayable",
      "type": "function"
    },
    {
      "inputs": [
        {
          "internalType": "address",
          "name": "from",
          "type": "address"
        },
        {
          "internalType": "address",
          "name": "to",
          "type": "address"
        },
        {
          "internalType": "uint256",
          "name": "value",
          "type": "uint256"
        }
      ],
      "name": "transferFrom",
      "outputs": [
        {
          "internalType": "bool",
          "name": "",
          "type": "bool"
        }
      ],
      "stateMutability": "nonpayable",
      "type": "function"
    }
  ],
  "bytecode": "0x60e0346200041e576001600160401b0390601f19601f62002174388190038281018416850191908683118684101762000322578086926060946040528339810103126200041e57620000518362000443565b916020946200007060406200006888880162000443565b960162000443565b956200007b62000423565b93600c85526b2222ac102628102a37b5b2b760a11b828601526200009e62000423565b600681526504445582d4c560d41b83820152855192848411620003225760039384546001988982811c9216801562000413575b84831014620003fd578186849311620003a7575b508390868311600114620003445760009262000338575b505060001982871b1c191690881b1784555b8151948511620003225760049586548881811c9116801562000317575b83821014620003025790818588979695949311620002a4575b5081938611600114620002395750506000936200022d575b505082851b92600019911b1c19161790555b7f9b779b17422d0df92223018b32b4d1fa46e071723d6817e2486d003becc55f005560a05260c052608052604051611d1b90816200045982396080518181816103130152611bf3015260a051818181610147015281816104f50152818161062a015281816106a601528181610a1301528181610f89015261138c015260c05181818161018f015281816102ce0152818161054b0152818161065e015281816106fc01528181610a9e01528181610db301528181610e400152610fd10152f35b0151915038806200015c565b88969493929194168760005284600020946000905b8282106200028a57505085116200026f575b50505050811b0190556200016e565b01519060f884600019921b161c191690553880808062000260565b8484015187558a989096019593840193908101906200024e565b9091929394955087600052826000208580890160051c820192858a10620002f8575b918b918a999897969594930160051c01915b828110620002e857505062000144565b600081558998508b9101620002d8565b92508192620002c6565b602288634e487b7160e01b6000525260246000fd5b90607f16906200012b565b634e487b7160e01b600052604160045260246000fd5b015190503880620000fc565b90898b94169188600052856000209260005b8782821062000390575050841162000377575b505050811b0184556200010e565b015160001983891b60f8161c1916905538808062000369565b8385015186558e9790950194938401930162000356565b90915086600052836000208680850160051c820192868610620003f3575b918c91869594930160051c01915b828110620003e3575050620000e5565b600081558594508c9101620003d3565b92508192620003c5565b634e487b7160e01b600052602260045260246000fd5b91607f1691620000d1565b600080fd5b60408051919082016001600160401b038111838210176200032257604052565b51906001600160a01b03821682036200041e5756fe608080604052600436101561001357600080fd5b60003560e01c90816306fdde031461149a575080630902f1ac14611441578063095ea7b3146113bb5780630dfe16811461137657806318160ddd1461135857806323b872dd14611266578063313ce5671461124a5780635909c0d51461122c5780635a3d54931461120e5780636a62784214610f1e5780636d9a640a1461098f57806370a08231146109555780637464fc3d1461093757806389afcb441461049757806395d89b4114610390578063a9059cbb1461035f578063ba9a7a5614610342578063c45a0155146102fd578063d21220a7146102b8578063dd62ed3e146102675763fff6cae91461010657600080fd5b3461021e57600036600319011261021e5761011f61170d565b6040516370a0823160e01b8082523060048301526001600160a01b03916020919082816024817f000000000000000000000000000000000000000000000000000000000000000088165afa91821561022a578391600093610236575b5060246040518096819382523060048301527f0000000000000000000000000000000000000000000000000000000000000000165afa91821561022a576000926101f3575b6101df8383600554916001600160701b03808460701c1693169161197e565b6001600080516020611cc683398151915255005b90915082813d8311610223575b61020a81836115cc565b8101031261021e576101df915190386101c0565b600080fd5b503d610200565b6040513d6000823e3d90fd5b8281939294503d8311610260575b61024e81836115cc565b8101031261021e57829051913861017b565b503d610244565b3461021e57604036600319011261021e576102806115a0565b6102886115b6565b9060018060a01b038091166000526001602052604060002091166000526020526020604060002054604051908152f35b3461021e57600036600319011261021e576040517f00000000000000000000000000000000000000000000000000000000000000006001600160a01b03168152602090f35b3461021e57600036600319011261021e576040517f00000000000000000000000000000000000000000000000000000000000000006001600160a01b03168152602090f35b3461021e57600036600319011261021e5760206040516103e88152f35b3461021e57604036600319011261021e5761038561037b6115a0565b602435903361165a565b602060405160018152f35b3461021e57600036600319011261021e5760405160009060045460018160011c906001831692831561048d575b60209384841081146104775783865290811561045757506001146103fc575b6103f8846103ec818803826115cc565b60405191829182611557565b0390f35b600460009081529294507f8a35acfbc15ff81a39ae7d344fd709f28e8600b4aa8c65c6b64bfe7fe36bd19b5b82841061044457505050816103f8936103ec92820101936103dc565b8054858501870152928501928101610428565b60ff1916858501525050151560051b82010191506103ec816103f86103dc565b634e487b7160e01b600052602260045260246000fd5b91607f16916103bd565b3461021e57602036600319011261021e576104b06115a0565b6104b861170d565b6104d76005546001600160701b0391828216928260701c169160e01c90565b506040516370a0823160e01b815230600482015291926020836024817f00000000000000000000000000000000000000000000000000000000000000006001600160a01b03165afa92831561022a57600093610903575b506040516370a0823160e01b8152306004820152926020846024817f00000000000000000000000000000000000000000000000000000000000000006001600160a01b03165afa93841561022a576000946108cf575b50306000526000602052604060002054926105c46105b86105b86105bd6105ab858b61174a565b956002549384918a611627565b61163a565b9787611627565b93851515806108c6575b1561087257301561085957306000526000602052604060002054818110610831579080600092308452836020520360408320558060025403600255604051908152600080516020611ca683398151915260203092a361065785847f00000000000000000000000000000000000000000000000000000000000000006001600160a01b0316611b36565b61068b84847f00000000000000000000000000000000000000000000000000000000000000006001600160a01b0316611b36565b6040516370a0823160e01b81523060048201526020816024817f00000000000000000000000000000000000000000000000000000000000000006001600160a01b03165afa90811561022a576000916107ff575b506040516370a0823160e01b8152306004820152906020826024817f00000000000000000000000000000000000000000000000000000000000000006001600160a01b03165afa91821561022a576000926107c4575b5096610744929160409861197e565b6107a1575b83519083825282602083015260018060a01b0316907fdccd412f0b1252819cb1fd330b93224ca42612892bb3f4f789976e6d81936496853392a36001600080516020611cc68339815191525582519182526020820152f35b6107bc6005546001600160701b03808260701c169116611627565b600855610749565b929150966020833d6020116107f7575b816107e1602093836115cc565b8101031261021e57915191969091906040610735565b3d91506107d4565b90506020813d602011610829575b8161081a602093836115cc565b8101031261021e5751876106df565b3d915061080d565b60405163391434e360e21b815230600482015260248101919091526044810191909152606490fd5b604051634b637e8f60e11b815260006004820152602490fd5b60405162461bcd60e51b815260206004820152602660248201527f444558506169723a20494e53554646494349454e545f4c49515549444954595f60448201526510955493915160d21b6064820152608490fd5b508415156105ce565b9093506020813d6020116108fb575b816108eb602093836115cc565b8101031261021e57519285610584565b3d91506108de565b9092506020813d60201161092f575b8161091f602093836115cc565b8101031261021e5751918461052e565b3d9150610912565b3461021e57600036600319011261021e576020600854604051908152f35b3461021e57602036600319011261021e576001600160a01b036109766115a0565b1660005260006020526020604060002054604051908152f35b3461021e57606036600319011261021e576044356001600160a01b038116810361021e576109bb61170d565b600435159081158092610f13575b15610ec2576109ed6005546001600160701b0391828216928260701c169160e01c90565b5090926001600160701b0384166004351080610eae575b15610e69576001600160a01b037f000000000000000000000000000000000000000000000000000000000000000081169190841682141580610e32575b15610df757602491602091610de5575b8235610dab575b6040516370a0823160e01b815230600482015292839182905afa90811561022a57600091610d79575b506040516370a0823160e01b8152306004820152916020836024817f00000000000000000000000000000000000000000000000000000000000000006001600160a01b03165afa92831561022a57600093610d45575b50610aed6004356001600160701b038716611604565b821115610d3d57610b12610b0c6004356001600160701b038816611604565b83611604565b945b610b296024356001600160701b038416611604565b841115610d3557610b4e610b486024356001600160701b038516611604565b85611604565b935b8615801590610d2c575b15610cdc57836103e88102046103e81484151715610c9d57610b88610b7e88611611565b6103e88602611604565b816103e88102046103e81482151715610c9d57610bbb90610bb5610bab88611611565b6103e88502611604565b90611627565b610bd76001600160701b0385166001600160701b038516611627565b6001906103e860025b60018111610cb3575080600019048311610c9d57610bff920290611627565b11610c6b57610c0d9361197e565b60405192835260208301526004356040830152602435606083015260018060a01b0316907fd78ad95fa46c994b6551d0da85fc275fe613ce37657fb8d5e3d130840159d82260803392a36001600080516020611cc683398151915255005b60405162461bcd60e51b815260206004820152600a602482015269444558506169723a204b60b01b6044820152606490fd5b634e487b7160e01b600052601160045260246000fd5b9080600019048111610c9d5760018216610cd3575b80029060011c610be0565b80930292610cc8565b60405162461bcd60e51b815260206004820152602260248201527f444558506169723a20494e53554646494349454e545f494e5055545f414d4f55604482015261139560f21b6064820152608490fd5b50841515610b5a565b600093610b50565b600094610b14565b9092506020813d602011610d71575b81610d61602093836115cc565b8101031261021e57519185610ad7565b3d9150610d54565b90506020813d602011610da3575b81610d94602093836115cc565b8101031261021e575184610a81565b3d9150610d87565b610de08335867f00000000000000000000000000000000000000000000000000000000000000006001600160a01b0316611b36565b610a58565b610df26004358683611b36565b610a51565b60405162461bcd60e51b8152602060048201526013602482015272444558506169723a20494e56414c49445f544f60681b6044820152606490fd5b506001600160a01b038481167f00000000000000000000000000000000000000000000000000000000000000009091161415610a41565b60405162461bcd60e51b815260206004820152601f60248201527f444558506169723a20494e53554646494349454e545f4c4951554944495459006044820152606490fd5b506001600160701b03821660243510610a04565b60405162461bcd60e51b815260206004820152602360248201527f444558506169723a20494e53554646494349454e545f4f55545055545f414d4f60448201526215539560ea1b6064820152608490fd5b5060243515156109c9565b3461021e5760208060031936011261021e57610f386115a0565b610f4061170d565b610f5f6005546001600160701b0391828216928260701c169160e01c90565b506040516370a0823160e01b80825230600483015292936001600160a01b039390929186816024817f000000000000000000000000000000000000000000000000000000000000000089165afa91821561022a5787916000936111dd575b5060246040518097819382523060048301527f0000000000000000000000000000000000000000000000000000000000000000165afa93841561022a576000946111ae575b506001600160701b03918286169561101a8784611604565b95848316936110298583611604565b96611034858561174a565b956002549a8b15600014611181575050611056611051898b611627565b611812565b6103e7198101908111610c9d57996103e890818101809111610c9d576002556000600080516020611ca68339815191528d61dead9384845283825260408420818154019055604051908152a35b891561112d57906110ba8a6110bf96959493611932565b61197e565b61110f575b50604051918252838201527f4c209b5fc8ad50758f13e2e1088ba56a560dff690a1c6fef26394f4c03821c4f60403392a26001600080516020611cc683398151915255604051908152f35b6111249060055490808260701c169116611627565b600855846110c4565b60405162461bcd60e51b8152600481018c9052602660248201527f444558506169723a20494e53554646494349454e545f4c49515549444954595f60448201526513525395115160d21b6064820152608490fd5b906105b861119861119f936105b88f969f8f611627565b938b611627565b908180821091180218986110a3565b9093508581813d83116111d6575b6111c681836115cc565b8101031261021e57519286611002565b503d6111bc565b8281939294503d8311611207575b6111f581836115cc565b8101031261021e578690519188610fbd565b503d6111eb565b3461021e57600036600319011261021e576020600754604051908152f35b3461021e57600036600319011261021e576020600654604051908152f35b3461021e57600036600319011261021e57602060405160128152f35b3461021e57606036600319011261021e5761127f6115a0565b6112876115b6565b6001600160a01b038216600081815260016020908152604080832033845290915290205492604435929160001985106112c6575b50610385935061165a565b83851061133257801561131957331561130057610385948491600052600160205260406000203360005260205203604060002055846112bb565b604051634a1406b160e11b815260006004820152602490fd5b60405163e602df0560e01b815260006004820152602490fd5b604051637dc7a0d960e11b81523360048201526024810186905260448101859052606490fd5b3461021e57600036600319011261021e576020600254604051908152f35b3461021e57600036600319011261021e576040517f00000000000000000000000000000000000000000000000000000000000000006001600160a01b03168152602090f35b3461021e57604036600319011261021e576113d46115a0565b602435903315611319576001600160a01b031690811561130057336000526001602052604060002082600052602052806040600020556040519081527f8c5be1e5ebec7d5bd14f71427d1e84f3dd0314c0f7b2291e5b200ac8c7c3b92560203392a3602060405160018152f35b3461021e57600036600319011261021e57606063ffffffff6114786005546001600160701b0391828216928260701c169160e01c90565b909291604051936001600160701b038092168552166020840152166040820152f35b3461021e57600036600319011261021e5760009060035460018160011c906001831692831561154d575b60209384841081146104775783865290811561045757506001146114f2576103f8846103ec818803826115cc565b600360009081529294507fc2575a0e9e593c00f959f8c92f12db2869c3395a3b0502d05e2516446f71f85b5b82841061153a57505050816103f8936103ec92820101936103dc565b805485850187015292850192810161151e565b91607f16916114c4565b6020808252825181830181905290939260005b82811061158c57505060409293506000838284010152601f8019910116010190565b81810186015184820160400152850161156a565b600435906001600160a01b038216820361021e57565b602435906001600160a01b038216820361021e57565b90601f8019910116810190811067ffffffffffffffff8211176115ee57604052565b634e487b7160e01b600052604160045260246000fd5b91908203918211610c9d57565b90600382029180830460031490151715610c9d57565b81810292918115918404141715610c9d57565b8115611644570490565b634e487b7160e01b600052601260045260246000fd5b916001600160a01b0380841692831561085957169283156116f457600090838252816020526040822054908382106116c257509160408282600080516020611ca6833981519152958760209652828652038282205586815220818154019055604051908152a3565b60405163391434e360e21b81526001600160a01b03919091166004820152602481019190915260448101839052606490fd5b60405163ec442f0560e01b815260006004820152602490fd5b600080516020611cc6833981519152600281541461172b5760029055565b604051633ee5aeb560e01b8152600490fd5b91908201809211610c9d57565b919091611755611bb7565b6008546001600160a01b03821615801595929391929190611801578261177c575b50505050565b6110516117999161179f936001600160701b038091169116611627565b91611812565b908181116117ae575b80611776565b6117be600254610bb58484611604565b90600581029080820460051490151715610c9d576117e5926117df9161173d565b9061163a565b806117f1575b806117a8565b6117fa91611932565b38806117eb565b5050905061180b57565b6000600855565b60018082111561192e576118cf908083600160801b81101561191c575b80600160401b600492101561190f575b640100000000811015611902575b620100008110156118f5575b6101008110156118e9575b60108110156118dd575b10156118d6575b600302811c611884818561163a565b01811c611891818561163a565b01811c61189e818561163a565b01811c6118ab818561163a565b01811c6118b8818561163a565b01811c6118c5818561163a565b01901c809261163a565b8111900390565b811b611875565b811c9160021b9161186e565b60081c91811b91611864565b60101c9160081b91611859565b60201c9160101b9161184d565b60401c9160201b9161183f565b50600160401b9050608084901c61182f565b5090565b6001600160a01b03169081156116f457600080516020611ca683398151915260208261196260009460025461173d565b60025584845283825260408420818154019055604051908152a3565b9092916001600160701b03928383111580611b2c575b15611af35763ffffffff60055460e01c81421603818111610c9d571680151580611ae8575b80611add575b611a30575b505050607092831b6dffffffffffffffffffffffffffff60701b169082169081174260e01b6001600160e01b03191617600581905560408051928352931c90911660208201527f1c411e9a96e071241c2f21f7726b17ae89e3cab4c78be50e062b03a9fffbbad19190a1565b9093919492828516946001600160701b0360701b809160701b1690600160701b97878304891488151715610c9d57611a7f611a7786611a72898516809761163a565b611627565b60065461173d565b60065560701b16968188041490151715610c9d57611ad0611ac88493611a726040987f1c411e9a96e071241c2f21f7726b17ae89e3cab4c78be50e062b03a9fffbbad19a61163a565b60075461173d565b60075592948194506119c4565b5084821615156119bf565b5084831615156119b9565b60405162461bcd60e51b8152602060048201526011602482015270444558506169723a204f564552464c4f5760781b6044820152606490fd5b5083851115611994565b60405163a9059cbb60e01b60009081526001600160a01b039384166004526024949094529260209060448180855af1600160005114811615611b97575b8360405215611b8157505050565b635274afe760e01b835216600482015260249150fd5b6001811516611bad57813b15153d151616611b73565b833d6000823e3d90fd5b60408051622fcfcb60e31b60208201908152600482529167ffffffffffffffff91908101828111828210176115ee5760405260008093819251907f00000000000000000000000000000000000000000000000000000000000000005afa3d15611c9c573d918211611c885760405191611c3a601f8201601f1916602001846115cc565b82523d83602084013e5b158015611c7f575b61192e57602081805181010312611c7b57602001516001600160a01b0381169190829003611c78575090565b80fd5b5080fd5b50805115611c4c565b634e487b7160e01b83526041600452602483fd5b60609150611c4456feddf252ad1be2c89b69c2b068fc378daa952ba7f163c4a11628f55a4df523b3ef9b779b17422d0df92223018b32b4d1fa46e071723d6817e2486d003becc55f00a264697066735822122008f54ee83b458aad5d802f50182f4456ae6af9b3e74f12bd3f6d600506ffcbfc64736f6c63430008180033",
  "linkReferences": {},
  "deployedLinkReferences": {}
}