{
  "_format": "hh-sol-artifact-1",
  "contractName": "DEXRouter",
  "sourceName": "contracts/core/DEXRouter.sol",
  "abi": [
    {
      "inputs": [
        {
          "internalType": "address",
          "name": "_factory",
          "type": "address"
        }
      ],
      "stateMutability": "nonpayable",
      "type": "constructor"
    },
    {
      "inputs": [],
      "name": "Expired",
      "type": "error"
    },
    {
      "inputs": [],
      "name": "InsufficientAAmount",
      "type": "error"
    },
    {
      "inputs": [],
      "name": "InsufficientBAmount",
      "type": "error"
    },
    {
      "inputs": [],
      "name": "InsufficientInputAmount",
      "type": "error"
    },
    {
      "inputs": [],
      "name": "InsufficientOutputAmount",
      "type": "error"
    },
    {
      "inputs": [],
      "name": "InvalidPath",
      "type": "error"
    },
    {
      "inputs": [],
      "name": "PairNotFound",
      "type": "error"
    },
    {
      "inputs": [
        {
          "internalType": "address",
          "name": "token",
          "type": "address"
        }
      ],
      "name": "SafeERC20FailedOperation",
      "type": "error"
    },
    {
      "inputs": [
        {
          "internalType": "address",
          "name": "tokenA",
          "type": "address"
        },
        {
          "internalType": "address",
          "name": "tokenB",
          "type": "address"
        },
        {
          "internalType": "uint256",
          "name": "amountADesired",
          "type": "uint256"
        },
        {
          "internalType": "uint256",
          "name": "amountBDesired",
          "type": "uint256"
        },
        {
          "internalType": "uint256",
          "name": "amountAMin",
          "type": "uint256"
        },
        {
          "internalType": "uint256",
          "name": "amountBMin",
          "type": "uint256"
        },
        {
          "internalType": "address",
          "name": "to",
          "type": "address"
        },
        {
          "internalType": "uint256",
          "name": "deadline",
          "type": "uint256"
        }
      ],
      "name": "addLiquidity",
      "outputs": [
        {
          "internalType": "uint256",
          "name": "amountA",
          "type": "uint256"
        },
        {
          "internalType": "uint256",
          "name": "amountB",
          "type": "uint256"
        },
        {
          "internalType": "uint256",
          "name": "liquidity",
          "type": "uint256"
        }
      ],
      "stateMutability": "nonpayable",
      "type": "function"
    },
    {
      "inputs": [],
      "name": "factory",
      "outputs": [
        {
          "internalType": "contract DEXFactory",
          "name": "",
          "type": "address"
        }
      ],
      "stateMutability": "view",
      "type": "function"
    },
    {
      "inputs": [
        {
          "internalType": "uint256",
          "name": "amountOut",
          "type": "uint256"
        },
        {
          "internalType": "uint256",
          "name": "reserveIn",
          "type": "uint256"
        },
        {
          "internalType": "uint256",
          "name": "reserveOut",
          "type": "uint256"
        }
      ],
      "name": "getAmountIn",
      "outputs": [
        {
          "internalType": "uint256",
          "name": "amountIn",
          "type": "uint256"
        }
      ],
      "stateMutability": "pure",
      "type": "function"
    },
    {
      "inputs": [
        {
          "internalType": "uint256",
          "name": "amountIn",
          "type": "uint256"
        },
        {
          "internalType": "uint256",
          "name": "reserveIn",
          "type": "uint256"
        },
        {
          "internalType": "uint256",
          "name": "reserveOut",
          "type": "uint256"
        }
      ],
      "name": "getAmountOut",
      "outputs": [
        {
          "internalType": "uint256",
          "name": "amountOut",
          "type": "uint256"
        }
      ],
      "stateMutability": "pure",
      "type": "function"
    },
    {
      "inputs": [
        {
          "internalType": "uint256",
          "name": "amountOut",
          "type": "uint256"
        },
        {
          "internalType": "address[]",
          "name": "path",
          "type": "address[]"
        }
      ],
      "name": "getAmountsIn",
      "outputs": [
        {
          "internalType": "uint256[]",
          "name": "amounts",
          "type": "uint256[]"
        }
      ],
      "stateMutability": "view",
      "type": "function"
    },
    {
      "inputs": [
        {
          "internalType": "uint256",
          "name": "amountIn",
          "type": "uint256"
        },
        {
          "internalType": "address[]",
          "name": "path",
          "type": "address[]"
        }
      ],
      "name": "getAmountsOut",
      "outputs": [
        {
          "internalType": "uint256[]",
          "name": "amounts",
          "type": "uint256[]"
        }
      ],
      "stateMutability": "view",
      "type": "function"
    },
    {
      "inputs": [
        {
          "internalType": "uint256",
          "name": "amountA",
          "type": "uint256"
        },
        {
          "internalType": "uint256",
          "name": "reserveA",
          "type": "uint256"
        },
        {
          "internalType": "uint256",
          "name": "reserveB",
          "type": "uint256"
        }
      ],
      "name": "quote",
      "outputs": [
        {
          "internalType": "uint256",
          "name": "amountB",
          "type": "uint256"
        }
      ],
      "stateMutability": "pure",
      "type": "function"
    },
    {
      "inputs": [
        {
          "internalType": "address",
          "name": "tokenA",
          "type": "address"
        },
        {
          "internalType": "address",
          "name": "tokenB",
          "type": "address"
        },
        {
          "internalType": "uint256",
          "name": "liquidity",
          "type": "uint256"
        },
        {
          "internalType": "uint256",
          "name": "amountAMin",
          "type": "uint256"
        },
        {
          "internalType": "uint256",
          "name": "amountBMin",
          "type": "uint256"
        },
        {
          "internalType": "address",
          "name": "to",
          "type": "address"
        },
        {
          "internalType": "uint256",
          "name": "deadline",
          "type": "uint256"
        }
      ],
      "name": "removeLiquidity",
      "outputs": [
        {
          "internalType": "uint256",
          "name": "amountA",
          "type": "uint256"
        },
        {
          "internalType": "uint256",
          "name": "amountB",
          "type": "uint256"
        }
      ],
      "stateMutability": "nonpayable",
      "type": "function"
    },
    {
      "inputs": [
        {
          "internalType": "uint256",
          "name": "amountIn",
          "type": "uint256"
        },
        {
          "internalType": "uint256",
          "name": "amountOutMin",
          "type": "uint256"
        },
        {
          "internalType": "address[]",
          "name": "path",
          "type": "address[]"
        },
        {
          "internalType": "address",
          "name": "to",
          "type": "address"
        },
        {
          "internalType": "uint256",
          "name": "deadline",
          "type": "uint256"
        }
      ],
      "name": "swapExactTokensForTokens",
      "outputs": [
        {
          "internalType": "uint256[]",
          "name": "amounts",
          "type": "uint256[]"
        }
      ],
      "stateMutability": "nonpayable",
      "type": "function"
    },
    {
      "inputs": [
        {
          "internalType": "uint256",
          "name": "amountOut",
          "type": "uint256"
        },
        {
          "internalType": "uint256",
          "name": "amountInMax",
          "type": "uint256"
        },
        {
          "internalType": "address[]",
          "name": "path",
          "type": "address[]"
        },
        {
          "internalType": "address",
          "name": "to",
          "type": "address"
        },
        {
          "internalType": "uint256",
          "name": "deadline",
          "type": "uint256"
        }
      ],
      "name": "swapTokensForExactTokens",
      "outputs": [
        {
          "internalType": "uint256[]",
          "name": "amounts",
          "type": "uint256[]"
        }
      ],
      "stateMutability": "nonpayable",
      "type": "function"
    }
  ],
  "bytecode": "0x60a03461009d57601f61148438819003918201601f19168301916001600160401b038311848410176100a25780849260209460405283398101031261009d57516001600160a01b0381169081900361009d576080526040516113cb90816100b98239608051818181610109015281816104480152818161067c01528181610b8401528181610e1801528181611116015281816111ce01526113270152f35b600080fd5b634e487b7160e01b600052604160045260246000fdfe6040608081526004908136101561001557600080fd5b600090813560e01c8063054d50d4146108075780631f00ca74146107eb57806338ed17391461076957806385f8c2591461074e5780638803dbee146105ce578063ad615dec146105a7578063baa2abde14610477578063c45a015514610434578063d06ca61f146104095763e8e337001461008f57600080fd5b3461040557610100366003190112610405576100a96108e2565b906100b26108f8565b916001600160a01b039060c435828116906044359060643590839003610401574260e435106103f157855163e6a4390560e01b81526001600160a01b038086168b83019081529089166020828101919091529592917f00000000000000000000000000000000000000000000000000000000000000008816918790829081906040010381855afa908115610349578c92858d8b8b958f9583916103d4575b501615610353575b50905089935061016892506112f9565b1697875196630240bc6b60e21b88526060888d818d5afa918215610349578b988c93610311575b508116931696838810918260001461030a57815b6001600160701b03928316931561030357505b168115806102fb575b1561025d575050986101e5859493896024946101de829d9e9a8b949e8f915b3390610fe2565b89875198899485936335313c2160e11b85528401525af193841561025357869461021c575b50606095508251948552840152820152f35b9080945081813d831161024c575b6102348183610a01565b81010312610248576060955051923861020a565b8580fd5b503d61022a565b83513d88823e3d90fd5b6102738261026e838896959661095d565b610986565b928284116102b35750505060a43581106102a357986101e5859493896024946101de829d9e9a8b949e8f916101de565b865163ef71d09160e01b81528a90fd5b8261026e929396506102c5945061095d565b9160843583106102eb57986101e5859493896024946101de829d9e9a8b949e8f916101de565b8651638dc525d160e01b81528a90fd5b5080156101bf565b90506101b6565b80916101a3565b82995061033791935060603d606011610342575b61032f8183610a01565b810190610b11565b50989098929061018f565b503d610325565b89513d8d823e3d90fd5b8c516364e329cb60e11b81526001600160a01b039283169681019687529190931660208601529384928391829060400103925af180156103ca5761039d575b85898c92858d610158565b6103bc90863d88116103c3575b6103b48183610a01565b810190610ade565b5038610392565b503d6103aa565b88513d8c823e3d90fd5b6103eb9150873d89116103c3576103b48183610a01565b38610150565b8551630407b05b60e31b81528990fd5b8780fd5b5080fd5b5034610405576104309061042561041f36610872565b91610dee565b9051918291826108a6565b0390f35b5034610405578160031936011261040557517f00000000000000000000000000000000000000000000000000000000000000006001600160a01b03168152602090f35b5091346104055760e0366003190112610405576104926108e2565b61049a6108f8565b6001600160a01b039060a43582811690819003610248574260c435106105975790868392602486956104cd858b996112f9565b16916104dd604435843381610fe2565b8351978893849263226bf2d160e21b84528b8401525af195861561058c5780948197610554575b505081169116101561054e5791905b6064358310610540576084358210610532575082519182526020820152f35b835163ef71d09160e01b8152fd5b8351638dc525d160e01b8152fd5b90610513565b88809298508196503d8311610585575b61056e8183610a01565b810103126102485783516020909401519582610504565b503d610564565b8751903d90823e3d90fd5b8651630407b05b60e31b81528590fd5b5034610405576020906105c761026e6105bf36610822565b90929161095d565b9051908152f35b5082903461074a576105df3661090e565b96919396949094421161073b5783836105f792610b47565b9561060187610a83565b511161072d57821561071a576001600160a01b03908161062084610aca565b169161062b84610aca565b8560011015610707579160209161067893610647848801610aca565b8a5163e6a4390560e01b81526001600160a01b03928316948101948552911660208401529384928391829160400190565b03917f0000000000000000000000000000000000000000000000000000000000000000165afa9081156106fd57916106ce916106d4969594936104309a916106de575b506106c589610a83565b51913390610fe2565b8561106f565b51918291826108a6565b6106f7915060203d6020116103c3576103b48183610a01565b8a6106bb565b86513d8a823e3d90fd5b634e487b7160e01b8a526032835260248afd5b634e487b7160e01b875260329052602486fd5b845163098fb56160e01b8152fd5b508451630407b05b60e31b8152fd5b8280fd5b5034610405576020906105c761076336610822565b91610d82565b5082903461074a5761077a3661090e565b96919396949094421161073b57838361079292610dee565b95865160001981019081116107d8576107ab9088610aa6565b51106107ca57821561071a576001600160a01b03908161062084610aca565b84516342301c2360e01b8152fd5b634e487b7160e01b895260118352602489fd5b5034610405576104309061042561080136610872565b91610b47565b5034610405576020906105c761081c36610822565b916109a6565b606090600319011261083c57600435906024359060443590565b600080fd5b9181601f8401121561083c5782359167ffffffffffffffff831161083c576020808501948460051b01011161083c57565b90604060031983011261083c57600435916024359067ffffffffffffffff821161083c576108a291600401610841565b9091565b602090602060408183019282815285518094520193019160005b8281106108ce575050505090565b8351855293810193928101926001016108c0565b600435906001600160a01b038216820361083c57565b602435906001600160a01b038216820361083c57565b60a060031982011261083c5760043591602435916044359067ffffffffffffffff821161083c5761094191600401610841565b90916064356001600160a01b038116810361083c579060843590565b8181029291811591840414171561097057565b634e487b7160e01b600052601160045260246000fd5b8115610990570490565b634e487b7160e01b600052601260045260246000fd5b9182156109ef576103e580840293840403610970576109c5908361095d565b916103e891828102928184041490151715610970578101809111610970576109ec91610986565b90565b60405163098fb56160e01b8152600490fd5b90601f8019910116810190811067ffffffffffffffff821117610a2357604052565b634e487b7160e01b600052604160045260246000fd5b67ffffffffffffffff8111610a235760051b60200190565b90610a5b82610a39565b610a686040519182610a01565b8281528092610a79601f1991610a39565b0190602036910137565b805115610a905760200190565b634e487b7160e01b600052603260045260246000fd5b8051821015610a905760209160051b010190565b9190811015610a905760051b0190565b356001600160a01b038116810361083c5790565b9081602091031261083c57516001600160a01b038116810361083c5790565b51906001600160701b038216820361083c57565b9081606091031261083c57610b2581610afd565b916040610b3460208401610afd565b92015163ffffffff8116810361083c5790565b90929160028110610d7057610b5b81610a51565b93600019928284019083821161097057610b788288959495610aa6565b526001600160a01b03917f0000000000000000000000000000000000000000000000000000000000000000831691805b610bb457505050505050565b858101818111610cc957610bd1610bcc828589610aba565b610aca565b610bdf610bcc84868a610aba565b6040805163e6a4390560e01b81526001600160a01b03938416600480830191909152929093166024840152909160209081816044818b5afa918215610d655790899291600092610d48575b505016918215610d3a57815192838092630240bc6b60e21b825260609586935afa918215610d305750610cba92610cb392868b8f948a898e926000978897610cf5575b5050610bcc8583610c86610bcc610c8c9588978a610aba565b96610aba565b1691161015610cde57610cad91926001600160701b03809116931693610aa6565b51610d82565b918a610aa6565b528015610cc957850180610ba8565b60246000634e487b7160e01b81526011600452fd5b610cad916001600160701b03809116931693610aa6565b610bcc9850610c8c9297508493610c86610d20610bcc94848b95903d106103425761032f8183610a01565b509b909b9a955050509350610c6d565b513d6000823e3d90fd5b905163d719ab6960e01b8152fd5b610d5e9250803d106103c3576103b48183610a01565b3880610c2a565b83513d6000823e3d90fd5b6040516320db826760e01b8152600490fd5b908115610ddc5781610d939161095d565b916103e8928381029381850414901517156109705781810391818311610970576103e5808402938404149114171561097057610dce91610986565b600181018091116109705790565b6040516342301c2360e01b8152600490fd5b90919260028410610d705791610e0384610a51565b91610e0d83610a83565b526001600160a01b037f000000000000000000000000000000000000000000000000000000000000000081169160005b600019870187811161097057811015610fda57610e5e610bcc828985610aba565b600182019081831161097057610e78610bcc838b87610aba565b6040805163e6a4390560e01b81526001600160a01b039384166004808301919091529290931660248401529160209081816044818c5afa918215610fcf5790889291600092610fb2575b505016908115610fa457825191828092630240bc6b60e21b825260609485935afa928315610d3057508392610f4e92878988978f60019a610f47976000968798610f67575b5050839282610c86610bcc610bcc94610f20968a610aba565b1691161015610f55576001600160701b0391821691165b610f41868c610aa6565b516109a6565b9188610aa6565b5201610e3d565b6001600160701b039081169116610f37565b610bcc929850610bcc975092610c86610f9287969386610f2097903d106103425761032f8183610a01565b509990999a9450505092819450610f07565b825163d719ab6960e01b8152fd5b610fc89250803d106103c3576103b48183610a01565b3880610ec2565b84513d6000823e3d90fd5b505050509150565b6040516323b872dd60e01b60009081526001600160a01b03938416600452938316602452604494909452909160209060648180855af160016000511481161561104f575b8360405260006060521561103957505050565b635274afe760e01b835216600482015260249150fd5b600181151661106557813b15153d151616611026565b833d6000823e3d90fd5b909392919360005b6000198601868111610970578110156112f157611098610bcc828885610aba565b60018201821161097057611112906110b7610bcc600185018a87610aba565b6110c46001850187610aa6565b51906001600160a01b0380821690841610156112e557602090600092935b60405163e6a4390560e01b81526001600160a01b0391821660048201529116602482015293849081906044820190565b03817f00000000000000000000000000000000000000000000000000000000000000006001600160a01b03165afa928315611292576000936112c4575b50886001198101116109705760011989018410156112bd57611178610bcc600186018b88610aba565b6002850185116109705760206111ca9161119a610bcc8d60028a01908b610aba565b60405163e6a4390560e01b81526001600160a01b0392831660048201529116602482015291829081906044820190565b03817f00000000000000000000000000000000000000000000000000000000000000006001600160a01b03165afa9081156112925760009161129e575b50925b6001600160a01b031692833b1561083c5760646000928360405196879485936336cd320560e11b855260048501526024978885015260018060a01b031660448401525af1801561129257611263575b5050600101611077565b67ffffffffffffffff821161127e5750604052600138611259565b634e487b7160e01b60009081526041600452fd5b6040513d6000823e3d90fd5b6112b7915060203d6020116103c3576103b48183610a01565b38611207565b869261120a565b6112de91935060203d6020116103c3576103b48183610a01565b913861114f565b600092602091906110e2565b505050509050565b60405163e6a4390560e01b81526001600160a01b0391821660048201529181166024830152906020816044817f000000000000000000000000000000000000000000000000000000000000000086165afa90811561129257600091611376575b501680156113645790565b60405163d719ab6960e01b8152600490fd5b61138f915060203d6020116103c3576103b48183610a01565b3861135956fea264697066735822122023e9760733c31f3782fafe7329446e7b84d2d92da9bc1a2c54fe31f8447d73e064736f6c63430008180033",
  "linkReferences": {},
  "deployedLinkReferences": {}
}